{
	"contracts/KipuBank.sol": {
		"KipuBank": {
			"abi": [
				{
					"inputs": [
						{
							"internalType": "address",
							"name": "_tokenAddress",
							"type": "address"
						},
						{
							"internalType": "uint256",
							"name": "_bankCap",
							"type": "uint256"
						}
					],
					"stateMutability": "nonpayable",
					"type": "constructor"
				},
				{
					"inputs": [
						{
							"internalType": "address",
							"name": "owner",
							"type": "address"
						}
					],
					"name": "OwnableInvalidOwner",
					"type": "error"
				},
				{
					"inputs": [
						{
							"internalType": "address",
							"name": "account",
							"type": "address"
						}
					],
					"name": "OwnableUnauthorizedAccount",
					"type": "error"
				},
				{
					"inputs": [],
					"name": "ReentrancyGuardReentrantCall",
					"type": "error"
				},
				{
					"anonymous": false,
					"inputs": [
						{
							"indexed": true,
							"internalType": "address",
							"name": "owner",
							"type": "address"
						}
					],
					"name": "AccountCreated",
					"type": "event"
				},
				{
					"anonymous": false,
					"inputs": [
						{
							"indexed": false,
							"internalType": "uint256",
							"name": "cap",
							"type": "uint256"
						}
					],
					"name": "BankCapSet",
					"type": "event"
				},
				{
					"anonymous": false,
					"inputs": [
						{
							"indexed": true,
							"internalType": "address",
							"name": "owner",
							"type": "address"
						},
						{
							"indexed": false,
							"internalType": "uint256",
							"name": "amount",
							"type": "uint256"
						},
						{
							"indexed": false,
							"internalType": "uint256",
							"name": "userDepositCount",
							"type": "uint256"
						},
						{
							"indexed": false,
							"internalType": "uint256",
							"name": "totalDepositsCount",
							"type": "uint256"
						}
					],
					"name": "Deposited",
					"type": "event"
				},
				{
					"anonymous": false,
					"inputs": [
						{
							"indexed": false,
							"internalType": "uint256",
							"name": "newLockPeriod",
							"type": "uint256"
						}
					],
					"name": "LockPeriodUpdated",
					"type": "event"
				},
				{
					"anonymous": false,
					"inputs": [
						{
							"indexed": false,
							"internalType": "uint256",
							"name": "newMinimumDeposit",
							"type": "uint256"
						}
					],
					"name": "MinimumDepositUpdated",
					"type": "event"
				},
				{
					"anonymous": false,
					"inputs": [
						{
							"indexed": true,
							"internalType": "address",
							"name": "previousOwner",
							"type": "address"
						},
						{
							"indexed": true,
							"internalType": "address",
							"name": "newOwner",
							"type": "address"
						}
					],
					"name": "OwnershipTransferred",
					"type": "event"
				},
				{
					"anonymous": false,
					"inputs": [
						{
							"indexed": false,
							"internalType": "address",
							"name": "newTokenAddress",
							"type": "address"
						}
					],
					"name": "TokenAddressUpdated",
					"type": "event"
				},
				{
					"anonymous": false,
					"inputs": [
						{
							"indexed": false,
							"internalType": "uint256",
							"name": "newWithdrawalFee",
							"type": "uint256"
						}
					],
					"name": "WithdrawalFeeUpdated",
					"type": "event"
				},
				{
					"anonymous": false,
					"inputs": [
						{
							"indexed": true,
							"internalType": "address",
							"name": "owner",
							"type": "address"
						},
						{
							"indexed": false,
							"internalType": "uint256",
							"name": "amount",
							"type": "uint256"
						},
						{
							"indexed": false,
							"internalType": "uint256",
							"name": "fee",
							"type": "uint256"
						},
						{
							"indexed": false,
							"internalType": "uint256",
							"name": "userWithdrawalCount",
							"type": "uint256"
						},
						{
							"indexed": false,
							"internalType": "uint256",
							"name": "totalWithdrawalsCount",
							"type": "uint256"
						}
					],
					"name": "Withdrawn",
					"type": "event"
				},
				{
					"inputs": [
						{
							"internalType": "address",
							"name": "",
							"type": "address"
						}
					],
					"name": "accounts",
					"outputs": [
						{
							"internalType": "uint256",
							"name": "balance",
							"type": "uint256"
						},
						{
							"internalType": "uint256",
							"name": "lastDepositTimestamp",
							"type": "uint256"
						},
						{
							"internalType": "bool",
							"name": "exists",
							"type": "bool"
						},
						{
							"internalType": "uint256",
							"name": "depositCount",
							"type": "uint256"
						},
						{
							"internalType": "uint256",
							"name": "withdrawalCount",
							"type": "uint256"
						}
					],
					"stateMutability": "view",
					"type": "function"
				},
				{
					"inputs": [],
					"name": "bankCap",
					"outputs": [
						{
							"internalType": "uint256",
							"name": "",
							"type": "uint256"
						}
					],
					"stateMutability": "view",
					"type": "function"
				},
				{
					"inputs": [],
					"name": "createAccount",
					"outputs": [],
					"stateMutability": "nonpayable",
					"type": "function"
				},
				{
					"inputs": [
						{
							"internalType": "uint256",
							"name": "amount",
							"type": "uint256"
						}
					],
					"name": "deposit",
					"outputs": [],
					"stateMutability": "nonpayable",
					"type": "function"
				},
				{
					"inputs": [
						{
							"internalType": "address",
							"name": "accountOwner",
							"type": "address"
						}
					],
					"name": "getAccountBalance",
					"outputs": [
						{
							"internalType": "uint256",
							"name": "",
							"type": "uint256"
						}
					],
					"stateMutability": "view",
					"type": "function"
				},
				{
					"inputs": [],
					"name": "getTotalDepositsCount",
					"outputs": [
						{
							"internalType": "uint256",
							"name": "",
							"type": "uint256"
						}
					],
					"stateMutability": "view",
					"type": "function"
				},
				{
					"inputs": [],
					"name": "getTotalWithdrawalsCount",
					"outputs": [
						{
							"internalType": "uint256",
							"name": "",
							"type": "uint256"
						}
					],
					"stateMutability": "view",
					"type": "function"
				},
				{
					"inputs": [
						{
							"internalType": "address",
							"name": "user",
							"type": "address"
						}
					],
					"name": "getUserDepositCount",
					"outputs": [
						{
							"internalType": "uint256",
							"name": "",
							"type": "uint256"
						}
					],
					"stateMutability": "view",
					"type": "function"
				},
				{
					"inputs": [
						{
							"internalType": "address",
							"name": "user",
							"type": "address"
						}
					],
					"name": "getUserWithdrawalCount",
					"outputs": [
						{
							"internalType": "uint256",
							"name": "",
							"type": "uint256"
						}
					],
					"stateMutability": "view",
					"type": "function"
				},
				{
					"inputs": [],
					"name": "lockPeriod",
					"outputs": [
						{
							"internalType": "uint256",
							"name": "",
							"type": "uint256"
						}
					],
					"stateMutability": "view",
					"type": "function"
				},
				{
					"inputs": [],
					"name": "minimumDeposit",
					"outputs": [
						{
							"internalType": "uint256",
							"name": "",
							"type": "uint256"
						}
					],
					"stateMutability": "view",
					"type": "function"
				},
				{
					"inputs": [],
					"name": "owner",
					"outputs": [
						{
							"internalType": "address",
							"name": "",
							"type": "address"
						}
					],
					"stateMutability": "view",
					"type": "function"
				},
				{
					"inputs": [],
					"name": "renounceOwnership",
					"outputs": [],
					"stateMutability": "nonpayable",
					"type": "function"
				},
				{
					"inputs": [
						{
							"internalType": "uint256",
							"name": "_lockPeriod",
							"type": "uint256"
						}
					],
					"name": "setLockPeriod",
					"outputs": [],
					"stateMutability": "nonpayable",
					"type": "function"
				},
				{
					"inputs": [
						{
							"internalType": "uint256",
							"name": "_minimumDeposit",
							"type": "uint256"
						}
					],
					"name": "setMinimumDeposit",
					"outputs": [],
					"stateMutability": "nonpayable",
					"type": "function"
				},
				{
					"inputs": [
						{
							"internalType": "address",
							"name": "_tokenAddress",
							"type": "address"
						}
					],
					"name": "setTokenAddress",
					"outputs": [],
					"stateMutability": "nonpayable",
					"type": "function"
				},
				{
					"inputs": [
						{
							"internalType": "uint256",
							"name": "_withdrawalFee",
							"type": "uint256"
						}
					],
					"name": "setWithdrawalFee",
					"outputs": [],
					"stateMutability": "nonpayable",
					"type": "function"
				},
				{
					"inputs": [],
					"name": "token",
					"outputs": [
						{
							"internalType": "contract IERC20",
							"name": "",
							"type": "address"
						}
					],
					"stateMutability": "view",
					"type": "function"
				},
				{
					"inputs": [],
					"name": "totalDeposits",
					"outputs": [
						{
							"internalType": "uint256",
							"name": "",
							"type": "uint256"
						}
					],
					"stateMutability": "view",
					"type": "function"
				},
				{
					"inputs": [],
					"name": "totalDepositsCount",
					"outputs": [
						{
							"internalType": "uint256",
							"name": "",
							"type": "uint256"
						}
					],
					"stateMutability": "view",
					"type": "function"
				},
				{
					"inputs": [],
					"name": "totalWithdrawalsCount",
					"outputs": [
						{
							"internalType": "uint256",
							"name": "",
							"type": "uint256"
						}
					],
					"stateMutability": "view",
					"type": "function"
				},
				{
					"inputs": [
						{
							"internalType": "address",
							"name": "newOwner",
							"type": "address"
						}
					],
					"name": "transferOwnership",
					"outputs": [],
					"stateMutability": "nonpayable",
					"type": "function"
				},
				{
					"inputs": [
						{
							"internalType": "uint256",
							"name": "amount",
							"type": "uint256"
						}
					],
					"name": "withdraw",
					"outputs": [],
					"stateMutability": "nonpayable",
					"type": "function"
				},
				{
					"inputs": [],
					"name": "withdrawFees",
					"outputs": [],
					"stateMutability": "nonpayable",
					"type": "function"
				},
				{
					"inputs": [],
					"name": "withdrawalFee",
					"outputs": [
						{
							"internalType": "uint256",
							"name": "",
							"type": "uint256"
						}
					],
					"stateMutability": "view",
					"type": "function"
				}
			],
			"devdoc": {
				"errors": {
					"OwnableInvalidOwner(address)": [
						{
							"details": "The owner is not a valid owner account. (eg. `address(0)`)"
						}
					],
					"OwnableUnauthorizedAccount(address)": [
						{
							"details": "The caller account is not authorized to perform an operation."
						}
					],
					"ReentrancyGuardReentrantCall()": [
						{
							"details": "Unauthorized reentrant call."
						}
					]
				},
				"kind": "dev",
				"methods": {
					"owner()": {
						"details": "Returns the address of the current owner."
					},
					"renounceOwnership()": {
						"details": "Leaves the contract without owner. It will not be possible to call `onlyOwner` functions. Can only be called by the current owner. NOTE: Renouncing ownership will leave the contract without an owner, thereby disabling any functionality that is only available to the owner."
					},
					"transferOwnership(address)": {
						"details": "Transfers ownership of the contract to a new account (`newOwner`). Can only be called by the current owner."
					}
				},
				"version": 1
			},
			"evm": {
				"assembly": "    /* \"contracts/KipuBank.sol\":229:6713  contract KipuBank is Ownable, ReentrancyGuard {... */\n  mstore(0x40, 0xc0)\n    /* \"contracts/KipuBank.sol\":1001:1013  100 * 10**18 */\n  0x056bc75e2d63100000\n    /* \"contracts/KipuBank.sol\":969:1013  uint256 public minimumDeposit = 100 * 10**18 */\n  0x07\n  sstore\n    /* \"contracts/KipuBank.sol\":1064:1065  5 */\n  0x05\n    /* \"contracts/KipuBank.sol\":1033:1065  uint256 public withdrawalFee = 5 */\n  0x08\n  sstore\n    /* \"contracts/KipuBank.sol\":1109:1115  1 days */\n  0x015180\n    /* \"contracts/KipuBank.sol\":1081:1115  uint256 public lockPeriod = 1 days */\n  0x09\n  sstore\n    /* \"contracts/KipuBank.sol\":1173:1176  200 */\n  0xc8\n    /* \"contracts/KipuBank.sol\":1121:1176  uint256 immutable private MAX_WITHDRAWL_PER_TRANS = 200 */\n  0xa0\n  swap1\n  dup2\n  mstore\n  pop\n    /* \"contracts/KipuBank.sol\":1741:2067  constructor(address _tokenAddress, uint256 _bankCap) Ownable(msg.sender) {... */\n  callvalue\n  dup1\n  iszero\n  tag_1\n  jumpi\n  revert(0x00, 0x00)\ntag_1:\n  pop\n  mload(0x40)\n  sub(codesize, bytecodeSize)\n  dup1\n  bytecodeSize\n  dup4\n  codecopy\n  dup2\n  dup2\n  add\n  0x40\n  mstore\n  dup2\n  add\n  swap1\n  tag_2\n  swap2\n  swap1\n  tag_3\n  jump\t// in\ntag_2:\n    /* \"contracts/KipuBank.sol\":1802:1812  msg.sender */\n  caller\n    /* \"@openzeppelin/contracts/access/Ownable.sol\":1297:1298  0 */\n  0x00\n    /* \"@openzeppelin/contracts/access/Ownable.sol\":1273:1299  initialOwner == address(0) */\n  0xffffffffffffffffffffffffffffffffffffffff\n  and\n    /* \"@openzeppelin/contracts/access/Ownable.sol\":1273:1285  initialOwner */\n  dup2\n    /* \"@openzeppelin/contracts/access/Ownable.sol\":1273:1299  initialOwner == address(0) */\n  0xffffffffffffffffffffffffffffffffffffffff\n  and\n  sub\n    /* \"@openzeppelin/contracts/access/Ownable.sol\":1269:1364  if (initialOwner == address(0)) {... */\n  tag_8\n  jumpi\n    /* \"@openzeppelin/contracts/access/Ownable.sol\":1350:1351  0 */\n  0x00\n    /* \"@openzeppelin/contracts/access/Ownable.sol\":1322:1353  OwnableInvalidOwner(address(0)) */\n  mload(0x40)\n  0x1e4fbdf700000000000000000000000000000000000000000000000000000000\n  dup2\n  mstore\n  0x04\n  add\n  tag_9\n  swap2\n  swap1\n  tag_10\n  jump\t// in\ntag_9:\n  mload(0x40)\n  dup1\n  swap2\n  sub\n  swap1\n  revert\n    /* \"@openzeppelin/contracts/access/Ownable.sol\":1269:1364  if (initialOwner == address(0)) {... */\ntag_8:\n    /* \"@openzeppelin/contracts/access/Ownable.sol\":1373:1405  _transferOwnership(initialOwner) */\n  tag_11\n    /* \"@openzeppelin/contracts/access/Ownable.sol\":1392:1404  initialOwner */\n  dup2\n    /* \"@openzeppelin/contracts/access/Ownable.sol\":1373:1391  _transferOwnership */\n  shl(0x20, tag_12)\n    /* \"@openzeppelin/contracts/access/Ownable.sol\":1373:1405  _transferOwnership(initialOwner) */\n  0x20\n  shr\n  jump\t// in\ntag_11:\n    /* \"@openzeppelin/contracts/access/Ownable.sol\":1225:1412  constructor(address initialOwner) {... */\n  pop\n    /* \"@openzeppelin/contracts/utils/ReentrancyGuard.sol\":1857:1858  1 */\n  0x01\n    /* \"@openzeppelin/contracts/utils/ReentrancyGuard.sol\":2061:2068  _status */\n  dup1\n    /* \"@openzeppelin/contracts/utils/ReentrancyGuard.sol\":2061:2082  _status = NOT_ENTERED */\n  dup2\n  swap1\n  sstore\n  pop\n    /* \"contracts/KipuBank.sol\":1857:1858  0 */\n  0x00\n    /* \"contracts/KipuBank.sol\":1832:1859  _tokenAddress != address(0) */\n  0xffffffffffffffffffffffffffffffffffffffff\n  and\n    /* \"contracts/KipuBank.sol\":1832:1845  _tokenAddress */\n  dup3\n    /* \"contracts/KipuBank.sol\":1832:1859  _tokenAddress != address(0) */\n  0xffffffffffffffffffffffffffffffffffffffff\n  and\n  sub\n    /* \"contracts/KipuBank.sol\":1824:1892  require(_tokenAddress != address(0), \"Token address cannot be zero\") */\n  tag_15\n  jumpi\n  mload(0x40)\n  0x08c379a000000000000000000000000000000000000000000000000000000000\n  dup2\n  mstore\n  0x04\n  add\n  tag_16\n  swap1\n  tag_17\n  jump\t// in\ntag_16:\n  mload(0x40)\n  dup1\n  swap2\n  sub\n  swap1\n  revert\ntag_15:\n    /* \"contracts/KipuBank.sol\":1921:1922  0 */\n  0x00\n    /* \"contracts/KipuBank.sol\":1910:1918  _bankCap */\n  dup2\n    /* \"contracts/KipuBank.sol\":1910:1922  _bankCap > 0 */\n  gt\n    /* \"contracts/KipuBank.sol\":1902:1958  require(_bankCap > 0, \"Bank cap must be greater than 0\") */\n  tag_18\n  jumpi\n  mload(0x40)\n  0x08c379a000000000000000000000000000000000000000000000000000000000\n  dup2\n  mstore\n  0x04\n  add\n  tag_19\n  swap1\n  tag_20\n  jump\t// in\ntag_19:\n  mload(0x40)\n  dup1\n  swap2\n  sub\n  swap1\n  revert\ntag_18:\n    /* \"contracts/KipuBank.sol\":1983:1996  _tokenAddress */\n  dup2\n    /* \"contracts/KipuBank.sol\":1968:1973  token */\n  0x02\n  0x00\n    /* \"contracts/KipuBank.sol\":1968:1997  token = IERC20(_tokenAddress) */\n  0x0100\n  exp\n  dup2\n  sload\n  dup2\n  0xffffffffffffffffffffffffffffffffffffffff\n  mul\n  not\n  and\n  swap1\n  dup4\n  0xffffffffffffffffffffffffffffffffffffffff\n  and\n  mul\n  or\n  swap1\n  sstore\n  pop\n    /* \"contracts/KipuBank.sol\":2017:2025  _bankCap */\n  dup1\n    /* \"contracts/KipuBank.sol\":2007:2025  bankCap = _bankCap */\n  0x80\n  dup2\n  dup2\n  mstore\n  pop\n  pop\n    /* \"contracts/KipuBank.sol\":2040:2060  BankCapSet(_bankCap) */\n  0xd8224a2376272b81083832b8284e6cd2d1c3fd0c1951cbe8a9c1d20c534e8b53\n    /* \"contracts/KipuBank.sol\":2051:2059  _bankCap */\n  dup2\n    /* \"contracts/KipuBank.sol\":2040:2060  BankCapSet(_bankCap) */\n  mload(0x40)\n  tag_21\n  swap2\n  swap1\n  tag_22\n  jump\t// in\ntag_21:\n  mload(0x40)\n  dup1\n  swap2\n  sub\n  swap1\n  log1\n    /* \"contracts/KipuBank.sol\":1741:2067  constructor(address _tokenAddress, uint256 _bankCap) Ownable(msg.sender) {... */\n  pop\n  pop\n    /* \"contracts/KipuBank.sol\":229:6713  contract KipuBank is Ownable, ReentrancyGuard {... */\n  jump(tag_23)\n    /* \"@openzeppelin/contracts/access/Ownable.sol\":2912:3099  function _transferOwnership(address newOwner) internal virtual {... */\ntag_12:\n    /* \"@openzeppelin/contracts/access/Ownable.sol\":2985:3001  address oldOwner */\n  0x00\n    /* \"@openzeppelin/contracts/access/Ownable.sol\":3004:3010  _owner */\n  0x00\n  0x00\n  swap1\n  sload\n  swap1\n  0x0100\n  exp\n  swap1\n  div\n  0xffffffffffffffffffffffffffffffffffffffff\n  and\n    /* \"@openzeppelin/contracts/access/Ownable.sol\":2985:3010  address oldOwner = _owner */\n  swap1\n  pop\n    /* \"@openzeppelin/contracts/access/Ownable.sol\":3029:3037  newOwner */\n  dup2\n    /* \"@openzeppelin/contracts/access/Ownable.sol\":3020:3026  _owner */\n  0x00\n  0x00\n    /* \"@openzeppelin/contracts/access/Ownable.sol\":3020:3037  _owner = newOwner */\n  0x0100\n  exp\n  dup2\n  sload\n  dup2\n  0xffffffffffffffffffffffffffffffffffffffff\n  mul\n  not\n  and\n  swap1\n  dup4\n  0xffffffffffffffffffffffffffffffffffffffff\n  and\n  mul\n  or\n  swap1\n  sstore\n  pop\n    /* \"@openzeppelin/contracts/access/Ownable.sol\":3083:3091  newOwner */\n  dup2\n    /* \"@openzeppelin/contracts/access/Ownable.sol\":3052:3092  OwnershipTransferred(oldOwner, newOwner) */\n  0xffffffffffffffffffffffffffffffffffffffff\n  and\n    /* \"@openzeppelin/contracts/access/Ownable.sol\":3073:3081  oldOwner */\n  dup2\n    /* \"@openzeppelin/contracts/access/Ownable.sol\":3052:3092  OwnershipTransferred(oldOwner, newOwner) */\n  0xffffffffffffffffffffffffffffffffffffffff\n  and\n  0x8be0079c531659141344cd1fd0a4f28419497f9722a3daafe3b4186f6b6457e0\n  mload(0x40)\n  mload(0x40)\n  dup1\n  swap2\n  sub\n  swap1\n  log3\n    /* \"@openzeppelin/contracts/access/Ownable.sol\":2975:3099  {... */\n  pop\n    /* \"@openzeppelin/contracts/access/Ownable.sol\":2912:3099  function _transferOwnership(address newOwner) internal virtual {... */\n  pop\n  jump\t// out\n    /* \"#utility.yul\":88:205   */\ntag_26:\n    /* \"#utility.yul\":197:198   */\n  0x00\n    /* \"#utility.yul\":194:195   */\n  0x00\n    /* \"#utility.yul\":187:199   */\n  revert\n    /* \"#utility.yul\":334:460   */\ntag_28:\n    /* \"#utility.yul\":371:378   */\n  0x00\n    /* \"#utility.yul\":411:453   */\n  0xffffffffffffffffffffffffffffffffffffffff\n    /* \"#utility.yul\":404:409   */\n  dup3\n    /* \"#utility.yul\":400:454   */\n  and\n    /* \"#utility.yul\":389:454   */\n  swap1\n  pop\n    /* \"#utility.yul\":334:460   */\n  swap2\n  swap1\n  pop\n  jump\t// out\n    /* \"#utility.yul\":466:562   */\ntag_29:\n    /* \"#utility.yul\":503:510   */\n  0x00\n    /* \"#utility.yul\":532:556   */\n  tag_48\n    /* \"#utility.yul\":550:555   */\n  dup3\n    /* \"#utility.yul\":532:556   */\n  tag_28\n  jump\t// in\ntag_48:\n    /* \"#utility.yul\":521:556   */\n  swap1\n  pop\n    /* \"#utility.yul\":466:562   */\n  swap2\n  swap1\n  pop\n  jump\t// out\n    /* \"#utility.yul\":568:690   */\ntag_30:\n    /* \"#utility.yul\":641:665   */\n  tag_50\n    /* \"#utility.yul\":659:664   */\n  dup2\n    /* \"#utility.yul\":641:665   */\n  tag_29\n  jump\t// in\ntag_50:\n    /* \"#utility.yul\":634:639   */\n  dup2\n    /* \"#utility.yul\":631:666   */\n  eq\n    /* \"#utility.yul\":621:684   */\n  tag_51\n  jumpi\n    /* \"#utility.yul\":680:681   */\n  0x00\n    /* \"#utility.yul\":677:678   */\n  0x00\n    /* \"#utility.yul\":670:682   */\n  revert\n    /* \"#utility.yul\":621:684   */\ntag_51:\n    /* \"#utility.yul\":568:690   */\n  pop\n  jump\t// out\n    /* \"#utility.yul\":696:839   */\ntag_31:\n    /* \"#utility.yul\":753:758   */\n  0x00\n    /* \"#utility.yul\":784:790   */\n  dup2\n    /* \"#utility.yul\":778:791   */\n  mload\n    /* \"#utility.yul\":769:791   */\n  swap1\n  pop\n    /* \"#utility.yul\":800:833   */\n  tag_53\n    /* \"#utility.yul\":827:832   */\n  dup2\n    /* \"#utility.yul\":800:833   */\n  tag_30\n  jump\t// in\ntag_53:\n    /* \"#utility.yul\":696:839   */\n  swap3\n  swap2\n  pop\n  pop\n  jump\t// out\n    /* \"#utility.yul\":845:922   */\ntag_32:\n    /* \"#utility.yul\":882:889   */\n  0x00\n    /* \"#utility.yul\":911:916   */\n  dup2\n    /* \"#utility.yul\":900:916   */\n  swap1\n  pop\n    /* \"#utility.yul\":845:922   */\n  swap2\n  swap1\n  pop\n  jump\t// out\n    /* \"#utility.yul\":928:1050   */\ntag_33:\n    /* \"#utility.yul\":1001:1025   */\n  tag_56\n    /* \"#utility.yul\":1019:1024   */\n  dup2\n    /* \"#utility.yul\":1001:1025   */\n  tag_32\n  jump\t// in\ntag_56:\n    /* \"#utility.yul\":994:999   */\n  dup2\n    /* \"#utility.yul\":991:1026   */\n  eq\n    /* \"#utility.yul\":981:1044   */\n  tag_57\n  jumpi\n    /* \"#utility.yul\":1040:1041   */\n  0x00\n    /* \"#utility.yul\":1037:1038   */\n  0x00\n    /* \"#utility.yul\":1030:1042   */\n  revert\n    /* \"#utility.yul\":981:1044   */\ntag_57:\n    /* \"#utility.yul\":928:1050   */\n  pop\n  jump\t// out\n    /* \"#utility.yul\":1056:1199   */\ntag_34:\n    /* \"#utility.yul\":1113:1118   */\n  0x00\n    /* \"#utility.yul\":1144:1150   */\n  dup2\n    /* \"#utility.yul\":1138:1151   */\n  mload\n    /* \"#utility.yul\":1129:1151   */\n  swap1\n  pop\n    /* \"#utility.yul\":1160:1193   */\n  tag_59\n    /* \"#utility.yul\":1187:1192   */\n  dup2\n    /* \"#utility.yul\":1160:1193   */\n  tag_33\n  jump\t// in\ntag_59:\n    /* \"#utility.yul\":1056:1199   */\n  swap3\n  swap2\n  pop\n  pop\n  jump\t// out\n    /* \"#utility.yul\":1205:1712   */\ntag_3:\n    /* \"#utility.yul\":1284:1290   */\n  0x00\n    /* \"#utility.yul\":1292:1298   */\n  0x00\n    /* \"#utility.yul\":1341:1343   */\n  0x40\n    /* \"#utility.yul\":1329:1338   */\n  dup4\n    /* \"#utility.yul\":1320:1327   */\n  dup6\n    /* \"#utility.yul\":1316:1339   */\n  sub\n    /* \"#utility.yul\":1312:1344   */\n  slt\n    /* \"#utility.yul\":1309:1428   */\n  iszero\n  tag_61\n  jumpi\n    /* \"#utility.yul\":1347:1426   */\n  tag_62\n  tag_26\n  jump\t// in\ntag_62:\n    /* \"#utility.yul\":1309:1428   */\ntag_61:\n    /* \"#utility.yul\":1467:1468   */\n  0x00\n    /* \"#utility.yul\":1492:1556   */\n  tag_63\n    /* \"#utility.yul\":1548:1555   */\n  dup6\n    /* \"#utility.yul\":1539:1545   */\n  dup3\n    /* \"#utility.yul\":1528:1537   */\n  dup7\n    /* \"#utility.yul\":1524:1546   */\n  add\n    /* \"#utility.yul\":1492:1556   */\n  tag_31\n  jump\t// in\ntag_63:\n    /* \"#utility.yul\":1482:1556   */\n  swap3\n  pop\n    /* \"#utility.yul\":1438:1566   */\n  pop\n    /* \"#utility.yul\":1605:1607   */\n  0x20\n    /* \"#utility.yul\":1631:1695   */\n  tag_64\n    /* \"#utility.yul\":1687:1694   */\n  dup6\n    /* \"#utility.yul\":1678:1684   */\n  dup3\n    /* \"#utility.yul\":1667:1676   */\n  dup7\n    /* \"#utility.yul\":1663:1685   */\n  add\n    /* \"#utility.yul\":1631:1695   */\n  tag_34\n  jump\t// in\ntag_64:\n    /* \"#utility.yul\":1621:1695   */\n  swap2\n  pop\n    /* \"#utility.yul\":1576:1705   */\n  pop\n    /* \"#utility.yul\":1205:1712   */\n  swap3\n  pop\n  swap3\n  swap1\n  pop\n  jump\t// out\n    /* \"#utility.yul\":1718:1836   */\ntag_35:\n    /* \"#utility.yul\":1805:1829   */\n  tag_66\n    /* \"#utility.yul\":1823:1828   */\n  dup2\n    /* \"#utility.yul\":1805:1829   */\n  tag_29\n  jump\t// in\ntag_66:\n    /* \"#utility.yul\":1800:1803   */\n  dup3\n    /* \"#utility.yul\":1793:1830   */\n  mstore\n    /* \"#utility.yul\":1718:1836   */\n  pop\n  pop\n  jump\t// out\n    /* \"#utility.yul\":1842:2064   */\ntag_10:\n    /* \"#utility.yul\":1935:1939   */\n  0x00\n    /* \"#utility.yul\":1973:1975   */\n  0x20\n    /* \"#utility.yul\":1962:1971   */\n  dup3\n    /* \"#utility.yul\":1958:1976   */\n  add\n    /* \"#utility.yul\":1950:1976   */\n  swap1\n  pop\n    /* \"#utility.yul\":1986:2057   */\n  tag_68\n    /* \"#utility.yul\":2054:2055   */\n  0x00\n    /* \"#utility.yul\":2043:2052   */\n  dup4\n    /* \"#utility.yul\":2039:2056   */\n  add\n    /* \"#utility.yul\":2030:2036   */\n  dup5\n    /* \"#utility.yul\":1986:2057   */\n  tag_35\n  jump\t// in\ntag_68:\n    /* \"#utility.yul\":1842:2064   */\n  swap3\n  swap2\n  pop\n  pop\n  jump\t// out\n    /* \"#utility.yul\":2070:2239   */\ntag_36:\n    /* \"#utility.yul\":2154:2165   */\n  0x00\n    /* \"#utility.yul\":2188:2194   */\n  dup3\n    /* \"#utility.yul\":2183:2186   */\n  dup3\n    /* \"#utility.yul\":2176:2195   */\n  mstore\n    /* \"#utility.yul\":2228:2232   */\n  0x20\n    /* \"#utility.yul\":2223:2226   */\n  dup3\n    /* \"#utility.yul\":2219:2233   */\n  add\n    /* \"#utility.yul\":2204:2233   */\n  swap1\n  pop\n    /* \"#utility.yul\":2070:2239   */\n  swap3\n  swap2\n  pop\n  pop\n  jump\t// out\n    /* \"#utility.yul\":2245:2423   */\ntag_37:\n    /* \"#utility.yul\":2385:2415   */\n  0x546f6b656e20616464726573732063616e6e6f74206265207a65726f00000000\n    /* \"#utility.yul\":2381:2382   */\n  0x00\n    /* \"#utility.yul\":2373:2379   */\n  dup3\n    /* \"#utility.yul\":2369:2383   */\n  add\n    /* \"#utility.yul\":2362:2416   */\n  mstore\n    /* \"#utility.yul\":2245:2423   */\n  pop\n  jump\t// out\n    /* \"#utility.yul\":2429:2795   */\ntag_38:\n    /* \"#utility.yul\":2571:2574   */\n  0x00\n    /* \"#utility.yul\":2592:2659   */\n  tag_72\n    /* \"#utility.yul\":2656:2658   */\n  0x1c\n    /* \"#utility.yul\":2651:2654   */\n  dup4\n    /* \"#utility.yul\":2592:2659   */\n  tag_36\n  jump\t// in\ntag_72:\n    /* \"#utility.yul\":2585:2659   */\n  swap2\n  pop\n    /* \"#utility.yul\":2668:2761   */\n  tag_73\n    /* \"#utility.yul\":2757:2760   */\n  dup3\n    /* \"#utility.yul\":2668:2761   */\n  tag_37\n  jump\t// in\ntag_73:\n    /* \"#utility.yul\":2786:2788   */\n  0x20\n    /* \"#utility.yul\":2781:2784   */\n  dup3\n    /* \"#utility.yul\":2777:2789   */\n  add\n    /* \"#utility.yul\":2770:2789   */\n  swap1\n  pop\n    /* \"#utility.yul\":2429:2795   */\n  swap2\n  swap1\n  pop\n  jump\t// out\n    /* \"#utility.yul\":2801:3220   */\ntag_17:\n    /* \"#utility.yul\":2967:2971   */\n  0x00\n    /* \"#utility.yul\":3005:3007   */\n  0x20\n    /* \"#utility.yul\":2994:3003   */\n  dup3\n    /* \"#utility.yul\":2990:3008   */\n  add\n    /* \"#utility.yul\":2982:3008   */\n  swap1\n  pop\n    /* \"#utility.yul\":3054:3063   */\n  dup2\n    /* \"#utility.yul\":3048:3052   */\n  dup2\n    /* \"#utility.yul\":3044:3064   */\n  sub\n    /* \"#utility.yul\":3040:3041   */\n  0x00\n    /* \"#utility.yul\":3029:3038   */\n  dup4\n    /* \"#utility.yul\":3025:3042   */\n  add\n    /* \"#utility.yul\":3018:3065   */\n  mstore\n    /* \"#utility.yul\":3082:3213   */\n  tag_75\n    /* \"#utility.yul\":3208:3212   */\n  dup2\n    /* \"#utility.yul\":3082:3213   */\n  tag_38\n  jump\t// in\ntag_75:\n    /* \"#utility.yul\":3074:3213   */\n  swap1\n  pop\n    /* \"#utility.yul\":2801:3220   */\n  swap2\n  swap1\n  pop\n  jump\t// out\n    /* \"#utility.yul\":3226:3407   */\ntag_39:\n    /* \"#utility.yul\":3366:3399   */\n  0x42616e6b20636170206d7573742062652067726561746572207468616e203000\n    /* \"#utility.yul\":3362:3363   */\n  0x00\n    /* \"#utility.yul\":3354:3360   */\n  dup3\n    /* \"#utility.yul\":3350:3364   */\n  add\n    /* \"#utility.yul\":3343:3400   */\n  mstore\n    /* \"#utility.yul\":3226:3407   */\n  pop\n  jump\t// out\n    /* \"#utility.yul\":3413:3779   */\ntag_40:\n    /* \"#utility.yul\":3555:3558   */\n  0x00\n    /* \"#utility.yul\":3576:3643   */\n  tag_78\n    /* \"#utility.yul\":3640:3642   */\n  0x1f\n    /* \"#utility.yul\":3635:3638   */\n  dup4\n    /* \"#utility.yul\":3576:3643   */\n  tag_36\n  jump\t// in\ntag_78:\n    /* \"#utility.yul\":3569:3643   */\n  swap2\n  pop\n    /* \"#utility.yul\":3652:3745   */\n  tag_79\n    /* \"#utility.yul\":3741:3744   */\n  dup3\n    /* \"#utility.yul\":3652:3745   */\n  tag_39\n  jump\t// in\ntag_79:\n    /* \"#utility.yul\":3770:3772   */\n  0x20\n    /* \"#utility.yul\":3765:3768   */\n  dup3\n    /* \"#utility.yul\":3761:3773   */\n  add\n    /* \"#utility.yul\":3754:3773   */\n  swap1\n  pop\n    /* \"#utility.yul\":3413:3779   */\n  swap2\n  swap1\n  pop\n  jump\t// out\n    /* \"#utility.yul\":3785:4204   */\ntag_20:\n    /* \"#utility.yul\":3951:3955   */\n  0x00\n    /* \"#utility.yul\":3989:3991   */\n  0x20\n    /* \"#utility.yul\":3978:3987   */\n  dup3\n    /* \"#utility.yul\":3974:3992   */\n  add\n    /* \"#utility.yul\":3966:3992   */\n  swap1\n  pop\n    /* \"#utility.yul\":4038:4047   */\n  dup2\n    /* \"#utility.yul\":4032:4036   */\n  dup2\n    /* \"#utility.yul\":4028:4048   */\n  sub\n    /* \"#utility.yul\":4024:4025   */\n  0x00\n    /* \"#utility.yul\":4013:4022   */\n  dup4\n    /* \"#utility.yul\":4009:4026   */\n  add\n    /* \"#utility.yul\":4002:4049   */\n  mstore\n    /* \"#utility.yul\":4066:4197   */\n  tag_81\n    /* \"#utility.yul\":4192:4196   */\n  dup2\n    /* \"#utility.yul\":4066:4197   */\n  tag_40\n  jump\t// in\ntag_81:\n    /* \"#utility.yul\":4058:4197   */\n  swap1\n  pop\n    /* \"#utility.yul\":3785:4204   */\n  swap2\n  swap1\n  pop\n  jump\t// out\n    /* \"#utility.yul\":4210:4328   */\ntag_41:\n    /* \"#utility.yul\":4297:4321   */\n  tag_83\n    /* \"#utility.yul\":4315:4320   */\n  dup2\n    /* \"#utility.yul\":4297:4321   */\n  tag_32\n  jump\t// in\ntag_83:\n    /* \"#utility.yul\":4292:4295   */\n  dup3\n    /* \"#utility.yul\":4285:4322   */\n  mstore\n    /* \"#utility.yul\":4210:4328   */\n  pop\n  pop\n  jump\t// out\n    /* \"#utility.yul\":4334:4556   */\ntag_22:\n    /* \"#utility.yul\":4427:4431   */\n  0x00\n    /* \"#utility.yul\":4465:4467   */\n  0x20\n    /* \"#utility.yul\":4454:4463   */\n  dup3\n    /* \"#utility.yul\":4450:4468   */\n  add\n    /* \"#utility.yul\":4442:4468   */\n  swap1\n  pop\n    /* \"#utility.yul\":4478:4549   */\n  tag_85\n    /* \"#utility.yul\":4546:4547   */\n  0x00\n    /* \"#utility.yul\":4535:4544   */\n  dup4\n    /* \"#utility.yul\":4531:4548   */\n  add\n    /* \"#utility.yul\":4522:4528   */\n  dup5\n    /* \"#utility.yul\":4478:4549   */\n  tag_41\n  jump\t// in\ntag_85:\n    /* \"#utility.yul\":4334:4556   */\n  swap3\n  swap2\n  pop\n  pop\n  jump\t// out\n    /* \"contracts/KipuBank.sol\":229:6713  contract KipuBank is Ownable, ReentrancyGuard {... */\ntag_23:\n  mload(0x80)\n  mload(0xa0)\n  codecopy(0x00, dataOffset(sub_0), dataSize(sub_0))\n  0x00\n  assignImmutable(\"0x38985005b3886382adf349011d67a82b9ae02641442e41e1921bb637b1dc329d\")\n  0x00\n  assignImmutable(\"0xeaeba2e6d5db55ec0e36d29579da585b3cbc07168dc9c1795186a4d126c8f86b\")\n  return(0x00, dataSize(sub_0))\nstop\n\nsub_0: assembly {\n        /* \"contracts/KipuBank.sol\":229:6713  contract KipuBank is Ownable, ReentrancyGuard {... */\n      mstore(0x40, 0x80)\n      callvalue\n      dup1\n      iszero\n      tag_1\n      jumpi\n      revert(0x00, 0x00)\n    tag_1:\n      pop\n      jumpi(tag_2, lt(calldatasize, 0x04))\n      shr(0xe0, calldataload(0x00))\n      dup1\n      0x8da5cb5b\n      gt\n      tag_28\n      jumpi\n      dup1\n      0xb6e7d830\n      gt\n      tag_29\n      jumpi\n      dup1\n      0xe78ec42e\n      gt\n      tag_30\n      jumpi\n      dup1\n      0xe78ec42e\n      eq\n      tag_24\n      jumpi\n      dup1\n      0xecbea24d\n      eq\n      tag_25\n      jumpi\n      dup1\n      0xf2fde38b\n      eq\n      tag_26\n      jumpi\n      dup1\n      0xfc0c546a\n      eq\n      tag_27\n      jumpi\n      jump(tag_2)\n    tag_30:\n      dup1\n      0xb6e7d830\n      eq\n      tag_21\n      jumpi\n      dup1\n      0xc847119d\n      eq\n      tag_22\n      jumpi\n      dup1\n      0xd3b5f520\n      eq\n      tag_23\n      jumpi\n      jump(tag_2)\n    tag_29:\n      dup1\n      0x8da5cb5b\n      eq\n      tag_15\n      jumpi\n      dup1\n      0x93423e9c\n      eq\n      tag_16\n      jumpi\n      dup1\n      0x9dca362f\n      eq\n      tag_17\n      jumpi\n      dup1\n      0xac1e5025\n      eq\n      tag_18\n      jumpi\n      dup1\n      0xb30d5815\n      eq\n      tag_19\n      jumpi\n      dup1\n      0xb6b55f25\n      eq\n      tag_20\n      jumpi\n      jump(tag_2)\n    tag_28:\n      dup1\n      0x5e5c06e2\n      gt\n      tag_31\n      jumpi\n      dup1\n      0x5e5c06e2\n      eq\n      tag_9\n      jumpi\n      dup1\n      0x636bfbab\n      eq\n      tag_10\n      jumpi\n      dup1\n      0x715018a6\n      eq\n      tag_11\n      jumpi\n      dup1\n      0x779972da\n      eq\n      tag_12\n      jumpi\n      dup1\n      0x7d882097\n      eq\n      tag_13\n      jumpi\n      dup1\n      0x8bc7e8c4\n      eq\n      tag_14\n      jumpi\n      jump(tag_2)\n    tag_31:\n      dup1\n      0x0770e571\n      eq\n      tag_3\n      jumpi\n      dup1\n      0x1bae91a4\n      eq\n      tag_4\n      jumpi\n      dup1\n      0x26a4e8d2\n      eq\n      tag_5\n      jumpi\n      dup1\n      0x2e1a7d4d\n      eq\n      tag_6\n      jumpi\n      dup1\n      0x3fd8b02f\n      eq\n      tag_7\n      jumpi\n      dup1\n      0x476343ee\n      eq\n      tag_8\n      jumpi\n    tag_2:\n      revert(0x00, 0x00)\n        /* \"contracts/KipuBank.sol\":593:629  uint256 public totalWithdrawalsCount */\n    tag_3:\n      tag_32\n      tag_33\n      jump\t// in\n    tag_32:\n      mload(0x40)\n      tag_34\n      swap2\n      swap1\n      tag_35\n      jump\t// in\n    tag_34:\n      mload(0x40)\n      dup1\n      swap2\n      sub\n      swap1\n      return\n        /* \"contracts/KipuBank.sol\":4271:4463  function getUserDepositCount(address user) external view returns (uint256) {... */\n    tag_4:\n      tag_36\n      0x04\n      dup1\n      calldatasize\n      sub\n      dup2\n      add\n      swap1\n      tag_37\n      swap2\n      swap1\n      tag_38\n      jump\t// in\n    tag_37:\n      tag_39\n      jump\t// in\n    tag_36:\n      mload(0x40)\n      tag_40\n      swap2\n      swap1\n      tag_35\n      jump\t// in\n    tag_40:\n      mload(0x40)\n      dup1\n      swap2\n      sub\n      swap1\n      return\n        /* \"contracts/KipuBank.sol\":5719:5959  function setTokenAddress(address _tokenAddress) external onlyOwner {... */\n    tag_5:\n      tag_41\n      0x04\n      dup1\n      calldatasize\n      sub\n      dup2\n      add\n      swap1\n      tag_42\n      swap2\n      swap1\n      tag_38\n      jump\t// in\n    tag_42:\n      tag_43\n      jump\t// in\n    tag_41:\n      stop\n        /* \"contracts/KipuBank.sol\":3320:4265  function withdraw(uint256 amount) external nonReentrant {... */\n    tag_6:\n      tag_44\n      0x04\n      dup1\n      calldatasize\n      sub\n      dup2\n      add\n      swap1\n      tag_45\n      swap2\n      swap1\n      tag_46\n      jump\t// in\n    tag_45:\n      tag_47\n      jump\t// in\n    tag_44:\n      stop\n        /* \"contracts/KipuBank.sol\":1081:1115  uint256 public lockPeriod = 1 days */\n    tag_7:\n      tag_48\n      tag_49\n      jump\t// in\n    tag_48:\n      mload(0x40)\n      tag_50\n      swap2\n      swap1\n      tag_35\n      jump\t// in\n    tag_50:\n      mload(0x40)\n      dup1\n      swap2\n      sub\n      swap1\n      return\n        /* \"contracts/KipuBank.sol\":5965:6711  function withdrawFees() external onlyOwner {... */\n    tag_8:\n      tag_51\n      tag_52\n      jump\t// in\n    tag_51:\n      stop\n        /* \"contracts/KipuBank.sol\":920:963  mapping(address => Account) public accounts */\n    tag_9:\n      tag_53\n      0x04\n      dup1\n      calldatasize\n      sub\n      dup2\n      add\n      swap1\n      tag_54\n      swap2\n      swap1\n      tag_38\n      jump\t// in\n    tag_54:\n      tag_55\n      jump\t// in\n    tag_53:\n      mload(0x40)\n      tag_56\n      swap6\n      swap5\n      swap4\n      swap3\n      swap2\n      swap1\n      tag_57\n      jump\t// in\n    tag_56:\n      mload(0x40)\n      dup1\n      swap2\n      sub\n      swap1\n      return\n        /* \"contracts/KipuBank.sol\":969:1013  uint256 public minimumDeposit = 100 * 10**18 */\n    tag_10:\n      tag_58\n      tag_59\n      jump\t// in\n    tag_58:\n      mload(0x40)\n      tag_60\n      swap2\n      swap1\n      tag_35\n      jump\t// in\n    tag_60:\n      mload(0x40)\n      dup1\n      swap2\n      sub\n      swap1\n      return\n        /* \"@openzeppelin/contracts/access/Ownable.sol\":2293:2394  function renounceOwnership() public virtual onlyOwner {... */\n    tag_11:\n      tag_61\n      tag_62\n      jump\t// in\n    tag_61:\n      stop\n        /* \"contracts/KipuBank.sol\":5564:5713  function setLockPeriod(uint256 _lockPeriod) external onlyOwner {... */\n    tag_12:\n      tag_63\n      0x04\n      dup1\n      calldatasize\n      sub\n      dup2\n      add\n      swap1\n      tag_64\n      swap2\n      swap1\n      tag_46\n      jump\t// in\n    tag_64:\n      tag_65\n      jump\t// in\n    tag_63:\n      stop\n        /* \"contracts/KipuBank.sol\":392:420  uint256 public totalDeposits */\n    tag_13:\n      tag_66\n      tag_67\n      jump\t// in\n    tag_66:\n      mload(0x40)\n      tag_68\n      swap2\n      swap1\n      tag_35\n      jump\t// in\n    tag_68:\n      mload(0x40)\n      dup1\n      swap2\n      sub\n      swap1\n      return\n        /* \"contracts/KipuBank.sol\":1033:1065  uint256 public withdrawalFee = 5 */\n    tag_14:\n      tag_69\n      tag_70\n      jump\t// in\n    tag_69:\n      mload(0x40)\n      tag_71\n      swap2\n      swap1\n      tag_35\n      jump\t// in\n    tag_71:\n      mload(0x40)\n      dup1\n      swap2\n      sub\n      swap1\n      return\n        /* \"@openzeppelin/contracts/access/Ownable.sol\":1638:1723  function owner() public view virtual returns (address) {... */\n    tag_15:\n      tag_72\n      tag_73\n      jump\t// in\n    tag_72:\n      mload(0x40)\n      tag_74\n      swap2\n      swap1\n      tag_75\n      jump\t// in\n    tag_74:\n      mload(0x40)\n      dup1\n      swap2\n      sub\n      swap1\n      return\n        /* \"contracts/KipuBank.sol\":4905:5142  function getAccountBalance(address accountOwner)... */\n    tag_16:\n      tag_76\n      0x04\n      dup1\n      calldatasize\n      sub\n      dup2\n      add\n      swap1\n      tag_77\n      swap2\n      swap1\n      tag_38\n      jump\t// in\n    tag_77:\n      tag_78\n      jump\t// in\n    tag_76:\n      mload(0x40)\n      tag_79\n      swap2\n      swap1\n      tag_35\n      jump\t// in\n    tag_79:\n      mload(0x40)\n      dup1\n      swap2\n      sub\n      swap1\n      return\n        /* \"contracts/KipuBank.sol\":2073:2513  function createAccount() external {... */\n    tag_17:\n      tag_80\n      tag_81\n      jump\t// in\n    tag_80:\n      stop\n        /* \"contracts/KipuBank.sol\":5327:5558  function setWithdrawalFee(uint256 _withdrawalFee) external onlyOwner {... */\n    tag_18:\n      tag_82\n      0x04\n      dup1\n      calldatasize\n      sub\n      dup2\n      add\n      swap1\n      tag_83\n      swap2\n      swap1\n      tag_46\n      jump\t// in\n    tag_83:\n      tag_84\n      jump\t// in\n    tag_82:\n      stop\n        /* \"contracts/KipuBank.sol\":4673:4780  function getTotalDepositsCount() external view returns (uint256) {... */\n    tag_19:\n      tag_85\n      tag_86\n      jump\t// in\n    tag_85:\n      mload(0x40)\n      tag_87\n      swap2\n      swap1\n      tag_35\n      jump\t// in\n    tag_87:\n      mload(0x40)\n      dup1\n      swap2\n      sub\n      swap1\n      return\n        /* \"contracts/KipuBank.sol\":2519:3314  function deposit(uint256 amount) external nonReentrant {... */\n    tag_20:\n      tag_88\n      0x04\n      dup1\n      calldatasize\n      sub\n      dup2\n      add\n      swap1\n      tag_89\n      swap2\n      swap1\n      tag_46\n      jump\t// in\n    tag_89:\n      tag_90\n      jump\t// in\n    tag_88:\n      stop\n        /* \"contracts/KipuBank.sol\":4786:4899  function getTotalWithdrawalsCount() external view returns (uint256) {... */\n    tag_21:\n      tag_91\n      tag_92\n      jump\t// in\n    tag_91:\n      mload(0x40)\n      tag_93\n      swap2\n      swap1\n      tag_35\n      jump\t// in\n    tag_93:\n      mload(0x40)\n      dup1\n      swap2\n      sub\n      swap1\n      return\n        /* \"contracts/KipuBank.sol\":515:548  uint256 public totalDepositsCount */\n    tag_22:\n      tag_94\n      tag_95\n      jump\t// in\n    tag_94:\n      mload(0x40)\n      tag_96\n      swap2\n      swap1\n      tag_35\n      jump\t// in\n    tag_96:\n      mload(0x40)\n      dup1\n      swap2\n      sub\n      swap1\n      return\n        /* \"contracts/KipuBank.sol\":4469:4667  function getUserWithdrawalCount(address user) external view returns (uint256) {... */\n    tag_23:\n      tag_97\n      0x04\n      dup1\n      calldatasize\n      sub\n      dup2\n      add\n      swap1\n      tag_98\n      swap2\n      swap1\n      tag_38\n      jump\t// in\n    tag_98:\n      tag_99\n      jump\t// in\n    tag_97:\n      mload(0x40)\n      tag_100\n      swap2\n      swap1\n      tag_35\n      jump\t// in\n    tag_100:\n      mload(0x40)\n      dup1\n      swap2\n      sub\n      swap1\n      return\n        /* \"contracts/KipuBank.sol\":5148:5321  function setMinimumDeposit(uint256 _minimumDeposit) external onlyOwner {... */\n    tag_24:\n      tag_101\n      0x04\n      dup1\n      calldatasize\n      sub\n      dup2\n      add\n      swap1\n      tag_102\n      swap2\n      swap1\n      tag_46\n      jump\t// in\n    tag_102:\n      tag_103\n      jump\t// in\n    tag_101:\n      stop\n        /* \"contracts/KipuBank.sol\":306:338  uint256 public immutable bankCap */\n    tag_25:\n      tag_104\n      tag_105\n      jump\t// in\n    tag_104:\n      mload(0x40)\n      tag_106\n      swap2\n      swap1\n      tag_35\n      jump\t// in\n    tag_106:\n      mload(0x40)\n      dup1\n      swap2\n      sub\n      swap1\n      return\n        /* \"@openzeppelin/contracts/access/Ownable.sol\":2543:2758  function transferOwnership(address newOwner) public virtual onlyOwner {... */\n    tag_26:\n      tag_107\n      0x04\n      dup1\n      calldatasize\n      sub\n      dup2\n      add\n      swap1\n      tag_108\n      swap2\n      swap1\n      tag_38\n      jump\t// in\n    tag_108:\n      tag_109\n      jump\t// in\n    tag_107:\n      stop\n        /* \"contracts/KipuBank.sol\":281:300  IERC20 public token */\n    tag_27:\n      tag_110\n      tag_111\n      jump\t// in\n    tag_110:\n      mload(0x40)\n      tag_112\n      swap2\n      swap1\n      tag_113\n      jump\t// in\n    tag_112:\n      mload(0x40)\n      dup1\n      swap2\n      sub\n      swap1\n      return\n        /* \"contracts/KipuBank.sol\":593:629  uint256 public totalWithdrawalsCount */\n    tag_33:\n      sload(0x05)\n      dup2\n      jump\t// out\n        /* \"contracts/KipuBank.sol\":4271:4463  function getUserDepositCount(address user) external view returns (uint256) {... */\n    tag_39:\n        /* \"contracts/KipuBank.sol\":4337:4344  uint256 */\n      0x00\n        /* \"contracts/KipuBank.sol\":4364:4372  accounts */\n      0x06\n        /* \"contracts/KipuBank.sol\":4364:4378  accounts[user] */\n      0x00\n        /* \"contracts/KipuBank.sol\":4373:4377  user */\n      dup4\n        /* \"contracts/KipuBank.sol\":4364:4378  accounts[user] */\n      0xffffffffffffffffffffffffffffffffffffffff\n      and\n      0xffffffffffffffffffffffffffffffffffffffff\n      and\n      dup2\n      mstore\n      0x20\n      add\n      swap1\n      dup2\n      mstore\n      0x20\n      add\n      0x00\n      keccak256\n        /* \"contracts/KipuBank.sol\":4364:4385  accounts[user].exists */\n      0x02\n      add\n      0x00\n      swap1\n      sload\n      swap1\n      0x0100\n      exp\n      swap1\n      div\n      0xff\n      and\n        /* \"contracts/KipuBank.sol\":4356:4412  require(accounts[user].exists, \"Account does not exist\") */\n      tag_115\n      jumpi\n      mload(0x40)\n      0x08c379a000000000000000000000000000000000000000000000000000000000\n      dup2\n      mstore\n      0x04\n      add\n      tag_116\n      swap1\n      tag_117\n      jump\t// in\n    tag_116:\n      mload(0x40)\n      dup1\n      swap2\n      sub\n      swap1\n      revert\n    tag_115:\n        /* \"contracts/KipuBank.sol\":4429:4437  accounts */\n      0x06\n        /* \"contracts/KipuBank.sol\":4429:4443  accounts[user] */\n      0x00\n        /* \"contracts/KipuBank.sol\":4438:4442  user */\n      dup4\n        /* \"contracts/KipuBank.sol\":4429:4443  accounts[user] */\n      0xffffffffffffffffffffffffffffffffffffffff\n      and\n      0xffffffffffffffffffffffffffffffffffffffff\n      and\n      dup2\n      mstore\n      0x20\n      add\n      swap1\n      dup2\n      mstore\n      0x20\n      add\n      0x00\n      keccak256\n        /* \"contracts/KipuBank.sol\":4429:4456  accounts[user].depositCount */\n      0x03\n      add\n      sload\n        /* \"contracts/KipuBank.sol\":4422:4456  return accounts[user].depositCount */\n      swap1\n      pop\n        /* \"contracts/KipuBank.sol\":4271:4463  function getUserDepositCount(address user) external view returns (uint256) {... */\n      swap2\n      swap1\n      pop\n      jump\t// out\n        /* \"contracts/KipuBank.sol\":5719:5959  function setTokenAddress(address _tokenAddress) external onlyOwner {... */\n    tag_43:\n        /* \"@openzeppelin/contracts/access/Ownable.sol\":1531:1544  _checkOwner() */\n      tag_119\n        /* \"@openzeppelin/contracts/access/Ownable.sol\":1531:1542  _checkOwner */\n      tag_120\n        /* \"@openzeppelin/contracts/access/Ownable.sol\":1531:1544  _checkOwner() */\n      jump\t// in\n    tag_119:\n        /* \"contracts/KipuBank.sol\":5829:5830  0 */\n      0x00\n        /* \"contracts/KipuBank.sol\":5804:5831  _tokenAddress != address(0) */\n      0xffffffffffffffffffffffffffffffffffffffff\n      and\n        /* \"contracts/KipuBank.sol\":5804:5817  _tokenAddress */\n      dup2\n        /* \"contracts/KipuBank.sol\":5804:5831  _tokenAddress != address(0) */\n      0xffffffffffffffffffffffffffffffffffffffff\n      and\n      sub\n        /* \"contracts/KipuBank.sol\":5796:5864  require(_tokenAddress != address(0), \"Token address cannot be zero\") */\n      tag_122\n      jumpi\n      mload(0x40)\n      0x08c379a000000000000000000000000000000000000000000000000000000000\n      dup2\n      mstore\n      0x04\n      add\n      tag_123\n      swap1\n      tag_124\n      jump\t// in\n    tag_123:\n      mload(0x40)\n      dup1\n      swap2\n      sub\n      swap1\n      revert\n    tag_122:\n        /* \"contracts/KipuBank.sol\":5889:5902  _tokenAddress */\n      dup1\n        /* \"contracts/KipuBank.sol\":5874:5879  token */\n      0x02\n      0x00\n        /* \"contracts/KipuBank.sol\":5874:5903  token = IERC20(_tokenAddress) */\n      0x0100\n      exp\n      dup2\n      sload\n      dup2\n      0xffffffffffffffffffffffffffffffffffffffff\n      mul\n      not\n      and\n      swap1\n      dup4\n      0xffffffffffffffffffffffffffffffffffffffff\n      and\n      mul\n      or\n      swap1\n      sstore\n      pop\n        /* \"contracts/KipuBank.sol\":5918:5952  TokenAddressUpdated(_tokenAddress) */\n      0x2f0c7f17be551d1f4566672cd67adbe50173e96632f56ff80d80acc4ac00f328\n        /* \"contracts/KipuBank.sol\":5938:5951  _tokenAddress */\n      dup2\n        /* \"contracts/KipuBank.sol\":5918:5952  TokenAddressUpdated(_tokenAddress) */\n      mload(0x40)\n      tag_125\n      swap2\n      swap1\n      tag_75\n      jump\t// in\n    tag_125:\n      mload(0x40)\n      dup1\n      swap2\n      sub\n      swap1\n      log1\n        /* \"contracts/KipuBank.sol\":5719:5959  function setTokenAddress(address _tokenAddress) external onlyOwner {... */\n      pop\n      jump\t// out\n        /* \"contracts/KipuBank.sol\":3320:4265  function withdraw(uint256 amount) external nonReentrant {... */\n    tag_47:\n        /* \"@openzeppelin/contracts/utils/ReentrancyGuard.sol\":2500:2521  _nonReentrantBefore() */\n      tag_127\n        /* \"@openzeppelin/contracts/utils/ReentrancyGuard.sol\":2500:2519  _nonReentrantBefore */\n      tag_128\n        /* \"@openzeppelin/contracts/utils/ReentrancyGuard.sol\":2500:2521  _nonReentrantBefore() */\n      jump\t// in\n    tag_127:\n        /* \"contracts/KipuBank.sol\":3386:3409  Account storage account */\n      0x00\n        /* \"contracts/KipuBank.sol\":3412:3420  accounts */\n      0x06\n        /* \"contracts/KipuBank.sol\":3412:3432  accounts[msg.sender] */\n      0x00\n        /* \"contracts/KipuBank.sol\":3421:3431  msg.sender */\n      caller\n        /* \"contracts/KipuBank.sol\":3412:3432  accounts[msg.sender] */\n      0xffffffffffffffffffffffffffffffffffffffff\n      and\n      0xffffffffffffffffffffffffffffffffffffffff\n      and\n      dup2\n      mstore\n      0x20\n      add\n      swap1\n      dup2\n      mstore\n      0x20\n      add\n      0x00\n      keccak256\n        /* \"contracts/KipuBank.sol\":3386:3432  Account storage account = accounts[msg.sender] */\n      swap1\n      pop\n        /* \"contracts/KipuBank.sol\":3450:3457  account */\n      dup1\n        /* \"contracts/KipuBank.sol\":3450:3464  account.exists */\n      0x02\n      add\n      0x00\n      swap1\n      sload\n      swap1\n      0x0100\n      exp\n      swap1\n      div\n      0xff\n      and\n        /* \"contracts/KipuBank.sol\":3442:3491  require(account.exists, \"Account does not exist\") */\n      tag_130\n      jumpi\n      mload(0x40)\n      0x08c379a000000000000000000000000000000000000000000000000000000000\n      dup2\n      mstore\n      0x04\n      add\n      tag_131\n      swap1\n      tag_117\n      jump\t// in\n    tag_131:\n      mload(0x40)\n      dup1\n      swap2\n      sub\n      swap1\n      revert\n    tag_130:\n        /* \"contracts/KipuBank.sol\":3528:3534  amount */\n      dup2\n        /* \"contracts/KipuBank.sol\":3509:3516  account */\n      dup2\n        /* \"contracts/KipuBank.sol\":3509:3524  account.balance */\n      0x00\n      add\n      sload\n        /* \"contracts/KipuBank.sol\":3509:3534  account.balance >= amount */\n      lt\n      iszero\n        /* \"contracts/KipuBank.sol\":3501:3559  require(account.balance >= amount, \"Insufficient balance\") */\n      tag_132\n      jumpi\n      mload(0x40)\n      0x08c379a000000000000000000000000000000000000000000000000000000000\n      dup2\n      mstore\n      0x04\n      add\n      tag_133\n      swap1\n      tag_134\n      jump\t// in\n    tag_133:\n      mload(0x40)\n      dup1\n      swap2\n      sub\n      swap1\n      revert\n    tag_132:\n        /* \"contracts/KipuBank.sol\":3587:3610  MAX_WITHDRAWL_PER_TRANS */\n      immutable(\"0x38985005b3886382adf349011d67a82b9ae02641442e41e1921bb637b1dc329d\")\n        /* \"contracts/KipuBank.sol\":3577:3583  amount */\n      dup3\n        /* \"contracts/KipuBank.sol\":3577:3610  amount <= MAX_WITHDRAWL_PER_TRANS */\n      gt\n      iszero\n        /* \"contracts/KipuBank.sol\":3569:3645  require(amount <= MAX_WITHDRAWL_PER_TRANS, \"Cannot exceed withdrawal limit\") */\n      tag_135\n      jumpi\n      mload(0x40)\n      0x08c379a000000000000000000000000000000000000000000000000000000000\n      dup2\n      mstore\n      0x04\n      add\n      tag_136\n      swap1\n      tag_137\n      jump\t// in\n    tag_136:\n      mload(0x40)\n      dup1\n      swap2\n      sub\n      swap1\n      revert\n    tag_135:\n        /* \"contracts/KipuBank.sol\":3726:3736  lockPeriod */\n      sload(0x09)\n        /* \"contracts/KipuBank.sol\":3695:3702  account */\n      dup2\n        /* \"contracts/KipuBank.sol\":3695:3723  account.lastDepositTimestamp */\n      0x01\n      add\n      sload\n        /* \"contracts/KipuBank.sol\":3695:3736  account.lastDepositTimestamp + lockPeriod */\n      tag_138\n      swap2\n      swap1\n      tag_139\n      jump\t// in\n    tag_138:\n        /* \"contracts/KipuBank.sol\":3676:3691  block.timestamp */\n      timestamp\n        /* \"contracts/KipuBank.sol\":3676:3736  block.timestamp >= account.lastDepositTimestamp + lockPeriod */\n      lt\n      iszero\n        /* \"contracts/KipuBank.sol\":3655:3778  require(... */\n      tag_140\n      jumpi\n      mload(0x40)\n      0x08c379a000000000000000000000000000000000000000000000000000000000\n      dup2\n      mstore\n      0x04\n      add\n      tag_141\n      swap1\n      tag_142\n      jump\t// in\n    tag_141:\n      mload(0x40)\n      dup1\n      swap2\n      sub\n      swap1\n      revert\n    tag_140:\n        /* \"contracts/KipuBank.sol\":3789:3806  uint256 feeAmount */\n      0x00\n        /* \"contracts/KipuBank.sol\":3836:3839  100 */\n      0x64\n        /* \"contracts/KipuBank.sol\":3819:3832  withdrawalFee */\n      sload(0x08)\n        /* \"contracts/KipuBank.sol\":3810:3816  amount */\n      dup5\n        /* \"contracts/KipuBank.sol\":3810:3832  amount * withdrawalFee */\n      tag_143\n      swap2\n      swap1\n      tag_144\n      jump\t// in\n    tag_143:\n        /* \"contracts/KipuBank.sol\":3809:3839  (amount * withdrawalFee) / 100 */\n      tag_145\n      swap2\n      swap1\n      tag_146\n      jump\t// in\n    tag_145:\n        /* \"contracts/KipuBank.sol\":3789:3839  uint256 feeAmount = (amount * withdrawalFee) / 100 */\n      swap1\n      pop\n        /* \"contracts/KipuBank.sol\":3849:3871  uint256 amountAfterFee */\n      0x00\n        /* \"contracts/KipuBank.sol\":3883:3892  feeAmount */\n      dup2\n        /* \"contracts/KipuBank.sol\":3874:3880  amount */\n      dup5\n        /* \"contracts/KipuBank.sol\":3874:3892  amount - feeAmount */\n      tag_147\n      swap2\n      swap1\n      tag_148\n      jump\t// in\n    tag_147:\n        /* \"contracts/KipuBank.sol\":3849:3892  uint256 amountAfterFee = amount - feeAmount */\n      swap1\n      pop\n        /* \"contracts/KipuBank.sol\":3922:3928  amount */\n      dup4\n        /* \"contracts/KipuBank.sol\":3903:3910  account */\n      dup4\n        /* \"contracts/KipuBank.sol\":3903:3918  account.balance */\n      0x00\n      add\n      0x00\n        /* \"contracts/KipuBank.sol\":3903:3928  account.balance -= amount */\n      dup3\n      dup3\n      sload\n      tag_149\n      swap2\n      swap1\n      tag_148\n      jump\t// in\n    tag_149:\n      swap3\n      pop\n      pop\n      dup2\n      swap1\n      sstore\n      pop\n        /* \"contracts/KipuBank.sol\":3965:3966  1 */\n      0x01\n        /* \"contracts/KipuBank.sol\":3938:3945  account */\n      dup4\n        /* \"contracts/KipuBank.sol\":3938:3961  account.withdrawalCount */\n      0x04\n      add\n      0x00\n        /* \"contracts/KipuBank.sol\":3938:3966  account.withdrawalCount += 1 */\n      dup3\n      dup3\n      sload\n      tag_150\n      swap2\n      swap1\n      tag_139\n      jump\t// in\n    tag_150:\n      swap3\n      pop\n      pop\n      dup2\n      swap1\n      sstore\n      pop\n        /* \"contracts/KipuBank.sol\":3993:3999  amount */\n      dup4\n        /* \"contracts/KipuBank.sol\":3976:3989  totalDeposits */\n      0x03\n      0x00\n        /* \"contracts/KipuBank.sol\":3976:3999  totalDeposits -= amount */\n      dup3\n      dup3\n      sload\n      tag_151\n      swap2\n      swap1\n      tag_148\n      jump\t// in\n    tag_151:\n      swap3\n      pop\n      pop\n      dup2\n      swap1\n      sstore\n      pop\n        /* \"contracts/KipuBank.sol\":4034:4035  1 */\n      0x01\n        /* \"contracts/KipuBank.sol\":4009:4030  totalWithdrawalsCount */\n      0x05\n      0x00\n        /* \"contracts/KipuBank.sol\":4009:4035  totalWithdrawalsCount += 1 */\n      dup3\n      dup3\n      sload\n      tag_152\n      swap2\n      swap1\n      tag_139\n      jump\t// in\n    tag_152:\n      swap3\n      pop\n      pop\n      dup2\n      swap1\n      sstore\n      pop\n        /* \"contracts/KipuBank.sol\":4046:4058  bool success */\n      0x00\n        /* \"contracts/KipuBank.sol\":4061:4066  token */\n      0x02\n      0x00\n      swap1\n      sload\n      swap1\n      0x0100\n      exp\n      swap1\n      div\n      0xffffffffffffffffffffffffffffffffffffffff\n      and\n        /* \"contracts/KipuBank.sol\":4061:4075  token.transfer */\n      0xffffffffffffffffffffffffffffffffffffffff\n      and\n      0xa9059cbb\n        /* \"contracts/KipuBank.sol\":4076:4086  msg.sender */\n      caller\n        /* \"contracts/KipuBank.sol\":4088:4102  amountAfterFee */\n      dup5\n        /* \"contracts/KipuBank.sol\":4061:4103  token.transfer(msg.sender, amountAfterFee) */\n      mload(0x40)\n      dup4\n      0xffffffff\n      and\n      0xe0\n      shl\n      dup2\n      mstore\n      0x04\n      add\n      tag_153\n      swap3\n      swap2\n      swap1\n      tag_154\n      jump\t// in\n    tag_153:\n      0x20\n      mload(0x40)\n      dup1\n      dup4\n      sub\n      dup2\n      0x00\n      dup8\n      gas\n      call\n      iszero\n      dup1\n      iszero\n      tag_156\n      jumpi\n      returndatacopy(0x00, 0x00, returndatasize)\n      revert(0x00, returndatasize)\n    tag_156:\n      pop\n      pop\n      pop\n      pop\n      mload(0x40)\n      returndatasize\n      not(0x1f)\n      0x1f\n      dup3\n      add\n      and\n      dup3\n      add\n      dup1\n      0x40\n      mstore\n      pop\n      dup2\n      add\n      swap1\n      tag_157\n      swap2\n      swap1\n      tag_158\n      jump\t// in\n    tag_157:\n        /* \"contracts/KipuBank.sol\":4046:4103  bool success = token.transfer(msg.sender, amountAfterFee) */\n      swap1\n      pop\n        /* \"contracts/KipuBank.sol\":4121:4128  success */\n      dup1\n        /* \"contracts/KipuBank.sol\":4113:4154  require(success, \"Token transfer failed\") */\n      tag_159\n      jumpi\n      mload(0x40)\n      0x08c379a000000000000000000000000000000000000000000000000000000000\n      dup2\n      mstore\n      0x04\n      add\n      tag_160\n      swap1\n      tag_161\n      jump\t// in\n    tag_160:\n      mload(0x40)\n      dup1\n      swap2\n      sub\n      swap1\n      revert\n    tag_159:\n        /* \"contracts/KipuBank.sol\":4180:4190  msg.sender */\n      caller\n        /* \"contracts/KipuBank.sol\":4170:4258  Withdrawn(msg.sender, amount, feeAmount, account.withdrawalCount, totalWithdrawalsCount) */\n      0xffffffffffffffffffffffffffffffffffffffff\n      and\n      0x94ffd6b85c71b847775c89ef6496b93cee961bdc6ff827fd117f174f06f745ae\n        /* \"contracts/KipuBank.sol\":4192:4198  amount */\n      dup7\n        /* \"contracts/KipuBank.sol\":4200:4209  feeAmount */\n      dup6\n        /* \"contracts/KipuBank.sol\":4211:4218  account */\n      dup8\n        /* \"contracts/KipuBank.sol\":4211:4234  account.withdrawalCount */\n      0x04\n      add\n      sload\n        /* \"contracts/KipuBank.sol\":4236:4257  totalWithdrawalsCount */\n      sload(0x05)\n        /* \"contracts/KipuBank.sol\":4170:4258  Withdrawn(msg.sender, amount, feeAmount, account.withdrawalCount, totalWithdrawalsCount) */\n      mload(0x40)\n      tag_162\n      swap5\n      swap4\n      swap3\n      swap2\n      swap1\n      tag_163\n      jump\t// in\n    tag_162:\n      mload(0x40)\n      dup1\n      swap2\n      sub\n      swap1\n      log2\n        /* \"contracts/KipuBank.sol\":3376:4265  {... */\n      pop\n      pop\n      pop\n      pop\n        /* \"@openzeppelin/contracts/utils/ReentrancyGuard.sol\":2542:2562  _nonReentrantAfter() */\n      tag_164\n        /* \"@openzeppelin/contracts/utils/ReentrancyGuard.sol\":2542:2560  _nonReentrantAfter */\n      tag_165\n        /* \"@openzeppelin/contracts/utils/ReentrancyGuard.sol\":2542:2562  _nonReentrantAfter() */\n      jump\t// in\n    tag_164:\n        /* \"contracts/KipuBank.sol\":3320:4265  function withdraw(uint256 amount) external nonReentrant {... */\n      pop\n      jump\t// out\n        /* \"contracts/KipuBank.sol\":1081:1115  uint256 public lockPeriod = 1 days */\n    tag_49:\n      sload(0x09)\n      dup2\n      jump\t// out\n        /* \"contracts/KipuBank.sol\":5965:6711  function withdrawFees() external onlyOwner {... */\n    tag_52:\n        /* \"@openzeppelin/contracts/access/Ownable.sol\":1531:1544  _checkOwner() */\n      tag_167\n        /* \"@openzeppelin/contracts/access/Ownable.sol\":1531:1542  _checkOwner */\n      tag_120\n        /* \"@openzeppelin/contracts/access/Ownable.sol\":1531:1544  _checkOwner() */\n      jump\t// in\n    tag_167:\n        /* \"contracts/KipuBank.sol\":6018:6041  uint256 contractBalance */\n      0x00\n        /* \"contracts/KipuBank.sol\":6044:6049  token */\n      0x02\n      0x00\n      swap1\n      sload\n      swap1\n      0x0100\n      exp\n      swap1\n      div\n      0xffffffffffffffffffffffffffffffffffffffff\n      and\n        /* \"contracts/KipuBank.sol\":6044:6059  token.balanceOf */\n      0xffffffffffffffffffffffffffffffffffffffff\n      and\n      0x70a08231\n        /* \"contracts/KipuBank.sol\":6068:6072  this */\n      address\n        /* \"contracts/KipuBank.sol\":6044:6074  token.balanceOf(address(this)) */\n      mload(0x40)\n      dup3\n      0xffffffff\n      and\n      0xe0\n      shl\n      dup2\n      mstore\n      0x04\n      add\n      tag_169\n      swap2\n      swap1\n      tag_75\n      jump\t// in\n    tag_169:\n      0x20\n      mload(0x40)\n      dup1\n      dup4\n      sub\n      dup2\n      dup7\n      gas\n      staticcall\n      iszero\n      dup1\n      iszero\n      tag_171\n      jumpi\n      returndatacopy(0x00, 0x00, returndatasize)\n      revert(0x00, returndatasize)\n    tag_171:\n      pop\n      pop\n      pop\n      pop\n      mload(0x40)\n      returndatasize\n      not(0x1f)\n      0x1f\n      dup3\n      add\n      and\n      dup3\n      add\n      dup1\n      0x40\n      mstore\n      pop\n      dup2\n      add\n      swap1\n      tag_172\n      swap2\n      swap1\n      tag_173\n      jump\t// in\n    tag_172:\n        /* \"contracts/KipuBank.sol\":6018:6074  uint256 contractBalance = token.balanceOf(address(this)) */\n      swap1\n      pop\n        /* \"contracts/KipuBank.sol\":6084:6109  uint256 totalUserBalances */\n      0x00\n        /* \"contracts/KipuBank.sol\":6112:6113  0 */\n      0x00\n        /* \"contracts/KipuBank.sol\":6084:6113  uint256 totalUserBalances = 0 */\n      swap1\n      pop\n        /* \"contracts/KipuBank.sol\":6282:6304  address[] memory users */\n      0x00\n        /* \"contracts/KipuBank.sol\":6321:6322  0 */\n      0x00\n        /* \"contracts/KipuBank.sol\":6307:6323  new address[](0) */\n      0xffffffffffffffff\n      dup2\n      gt\n      iszero\n      tag_174\n      jumpi\n      tag_175\n      tag_176\n      jump\t// in\n    tag_175:\n    tag_174:\n      mload(0x40)\n      swap1\n      dup1\n      dup3\n      mstore\n      dup1\n      0x20\n      mul\n      0x20\n      add\n      dup3\n      add\n      0x40\n      mstore\n      dup1\n      iszero\n      tag_177\n      jumpi\n      dup2\n      0x20\n      add\n      0x20\n      dup3\n      mul\n      dup1\n      calldatasize\n      dup4\n      calldatacopy\n      dup1\n      dup3\n      add\n      swap2\n      pop\n      pop\n      swap1\n      pop\n    tag_177:\n      pop\n        /* \"contracts/KipuBank.sol\":6282:6323  address[] memory users = new address[](0) */\n      swap1\n      pop\n        /* \"contracts/KipuBank.sol\":6378:6387  uint256 i */\n      0x00\n        /* \"contracts/KipuBank.sol\":6390:6391  0 */\n      0x00\n        /* \"contracts/KipuBank.sol\":6378:6391  uint256 i = 0 */\n      swap1\n      pop\n        /* \"contracts/KipuBank.sol\":6373:6488  for (uint256 i = 0; i < users.length; i++) {... */\n    tag_178:\n        /* \"contracts/KipuBank.sol\":6397:6402  users */\n      dup2\n        /* \"contracts/KipuBank.sol\":6397:6409  users.length */\n      mload\n        /* \"contracts/KipuBank.sol\":6393:6394  i */\n      dup2\n        /* \"contracts/KipuBank.sol\":6393:6409  i < users.length */\n      lt\n        /* \"contracts/KipuBank.sol\":6373:6488  for (uint256 i = 0; i < users.length; i++) {... */\n      iszero\n      tag_179\n      jumpi\n        /* \"contracts/KipuBank.sol\":6451:6459  accounts */\n      0x06\n        /* \"contracts/KipuBank.sol\":6451:6469  accounts[users[i]] */\n      0x00\n        /* \"contracts/KipuBank.sol\":6460:6465  users */\n      dup4\n        /* \"contracts/KipuBank.sol\":6466:6467  i */\n      dup4\n        /* \"contracts/KipuBank.sol\":6460:6468  users[i] */\n      dup2\n      mload\n      dup2\n      lt\n      tag_181\n      jumpi\n      tag_182\n      tag_183\n      jump\t// in\n    tag_182:\n    tag_181:\n      0x20\n      mul\n      0x20\n      add\n      add\n      mload\n        /* \"contracts/KipuBank.sol\":6451:6469  accounts[users[i]] */\n      0xffffffffffffffffffffffffffffffffffffffff\n      and\n      0xffffffffffffffffffffffffffffffffffffffff\n      and\n      dup2\n      mstore\n      0x20\n      add\n      swap1\n      dup2\n      mstore\n      0x20\n      add\n      0x00\n      keccak256\n        /* \"contracts/KipuBank.sol\":6451:6477  accounts[users[i]].balance */\n      0x00\n      add\n      sload\n        /* \"contracts/KipuBank.sol\":6430:6477  totalUserBalances += accounts[users[i]].balance */\n      dup4\n      tag_184\n      swap2\n      swap1\n      tag_139\n      jump\t// in\n    tag_184:\n      swap3\n      pop\n        /* \"contracts/KipuBank.sol\":6411:6414  i++ */\n      dup1\n      dup1\n      0x01\n      add\n      swap2\n      pop\n      pop\n        /* \"contracts/KipuBank.sol\":6373:6488  for (uint256 i = 0; i < users.length; i++) {... */\n      jump(tag_178)\n    tag_179:\n      pop\n        /* \"contracts/KipuBank.sol\":6498:6510  uint256 fees */\n      0x00\n        /* \"contracts/KipuBank.sol\":6531:6548  totalUserBalances */\n      dup3\n        /* \"contracts/KipuBank.sol\":6513:6528  contractBalance */\n      dup5\n        /* \"contracts/KipuBank.sol\":6513:6548  contractBalance - totalUserBalances */\n      tag_185\n      swap2\n      swap1\n      tag_148\n      jump\t// in\n    tag_185:\n        /* \"contracts/KipuBank.sol\":6498:6548  uint256 fees = contractBalance - totalUserBalances */\n      swap1\n      pop\n        /* \"contracts/KipuBank.sol\":6573:6574  0 */\n      0x00\n        /* \"contracts/KipuBank.sol\":6566:6570  fees */\n      dup2\n        /* \"contracts/KipuBank.sol\":6566:6574  fees > 0 */\n      gt\n        /* \"contracts/KipuBank.sol\":6558:6598  require(fees > 0, \"No fees to withdraw\") */\n      tag_186\n      jumpi\n      mload(0x40)\n      0x08c379a000000000000000000000000000000000000000000000000000000000\n      dup2\n      mstore\n      0x04\n      add\n      tag_187\n      swap1\n      tag_188\n      jump\t// in\n    tag_187:\n      mload(0x40)\n      dup1\n      swap2\n      sub\n      swap1\n      revert\n    tag_186:\n        /* \"contracts/KipuBank.sol\":6609:6621  bool success */\n      0x00\n        /* \"contracts/KipuBank.sol\":6624:6629  token */\n      0x02\n      0x00\n      swap1\n      sload\n      swap1\n      0x0100\n      exp\n      swap1\n      div\n      0xffffffffffffffffffffffffffffffffffffffff\n      and\n        /* \"contracts/KipuBank.sol\":6624:6638  token.transfer */\n      0xffffffffffffffffffffffffffffffffffffffff\n      and\n      0xa9059cbb\n        /* \"contracts/KipuBank.sol\":6639:6646  owner() */\n      tag_189\n        /* \"contracts/KipuBank.sol\":6639:6644  owner */\n      tag_73\n        /* \"contracts/KipuBank.sol\":6639:6646  owner() */\n      jump\t// in\n    tag_189:\n        /* \"contracts/KipuBank.sol\":6648:6652  fees */\n      dup5\n        /* \"contracts/KipuBank.sol\":6624:6653  token.transfer(owner(), fees) */\n      mload(0x40)\n      dup4\n      0xffffffff\n      and\n      0xe0\n      shl\n      dup2\n      mstore\n      0x04\n      add\n      tag_190\n      swap3\n      swap2\n      swap1\n      tag_154\n      jump\t// in\n    tag_190:\n      0x20\n      mload(0x40)\n      dup1\n      dup4\n      sub\n      dup2\n      0x00\n      dup8\n      gas\n      call\n      iszero\n      dup1\n      iszero\n      tag_192\n      jumpi\n      returndatacopy(0x00, 0x00, returndatasize)\n      revert(0x00, returndatasize)\n    tag_192:\n      pop\n      pop\n      pop\n      pop\n      mload(0x40)\n      returndatasize\n      not(0x1f)\n      0x1f\n      dup3\n      add\n      and\n      dup3\n      add\n      dup1\n      0x40\n      mstore\n      pop\n      dup2\n      add\n      swap1\n      tag_193\n      swap2\n      swap1\n      tag_158\n      jump\t// in\n    tag_193:\n        /* \"contracts/KipuBank.sol\":6609:6653  bool success = token.transfer(owner(), fees) */\n      swap1\n      pop\n        /* \"contracts/KipuBank.sol\":6671:6678  success */\n      dup1\n        /* \"contracts/KipuBank.sol\":6663:6704  require(success, \"Token transfer failed\") */\n      tag_194\n      jumpi\n      mload(0x40)\n      0x08c379a000000000000000000000000000000000000000000000000000000000\n      dup2\n      mstore\n      0x04\n      add\n      tag_195\n      swap1\n      tag_161\n      jump\t// in\n    tag_195:\n      mload(0x40)\n      dup1\n      swap2\n      sub\n      swap1\n      revert\n    tag_194:\n        /* \"contracts/KipuBank.sol\":6008:6711  {... */\n      pop\n      pop\n      pop\n      pop\n      pop\n        /* \"contracts/KipuBank.sol\":5965:6711  function withdrawFees() external onlyOwner {... */\n      jump\t// out\n        /* \"contracts/KipuBank.sol\":920:963  mapping(address => Account) public accounts */\n    tag_55:\n      mstore(0x20, 0x06)\n      dup1\n      0x00\n      mstore\n      keccak256(0x00, 0x40)\n      0x00\n      swap2\n      pop\n      swap1\n      pop\n      dup1\n      0x00\n      add\n      sload\n      swap1\n      dup1\n      0x01\n      add\n      sload\n      swap1\n      dup1\n      0x02\n      add\n      0x00\n      swap1\n      sload\n      swap1\n      0x0100\n      exp\n      swap1\n      div\n      0xff\n      and\n      swap1\n      dup1\n      0x03\n      add\n      sload\n      swap1\n      dup1\n      0x04\n      add\n      sload\n      swap1\n      pop\n      dup6\n      jump\t// out\n        /* \"contracts/KipuBank.sol\":969:1013  uint256 public minimumDeposit = 100 * 10**18 */\n    tag_59:\n      sload(0x07)\n      dup2\n      jump\t// out\n        /* \"@openzeppelin/contracts/access/Ownable.sol\":2293:2394  function renounceOwnership() public virtual onlyOwner {... */\n    tag_62:\n        /* \"@openzeppelin/contracts/access/Ownable.sol\":1531:1544  _checkOwner() */\n      tag_197\n        /* \"@openzeppelin/contracts/access/Ownable.sol\":1531:1542  _checkOwner */\n      tag_120\n        /* \"@openzeppelin/contracts/access/Ownable.sol\":1531:1544  _checkOwner() */\n      jump\t// in\n    tag_197:\n        /* \"@openzeppelin/contracts/access/Ownable.sol\":2357:2387  _transferOwnership(address(0)) */\n      tag_199\n        /* \"@openzeppelin/contracts/access/Ownable.sol\":2384:2385  0 */\n      0x00\n        /* \"@openzeppelin/contracts/access/Ownable.sol\":2357:2375  _transferOwnership */\n      tag_200\n        /* \"@openzeppelin/contracts/access/Ownable.sol\":2357:2387  _transferOwnership(address(0)) */\n      jump\t// in\n    tag_199:\n        /* \"@openzeppelin/contracts/access/Ownable.sol\":2293:2394  function renounceOwnership() public virtual onlyOwner {... */\n      jump\t// out\n        /* \"contracts/KipuBank.sol\":5564:5713  function setLockPeriod(uint256 _lockPeriod) external onlyOwner {... */\n    tag_65:\n        /* \"@openzeppelin/contracts/access/Ownable.sol\":1531:1544  _checkOwner() */\n      tag_202\n        /* \"@openzeppelin/contracts/access/Ownable.sol\":1531:1542  _checkOwner */\n      tag_120\n        /* \"@openzeppelin/contracts/access/Ownable.sol\":1531:1544  _checkOwner() */\n      jump\t// in\n    tag_202:\n        /* \"contracts/KipuBank.sol\":5650:5661  _lockPeriod */\n      dup1\n        /* \"contracts/KipuBank.sol\":5637:5647  lockPeriod */\n      0x09\n        /* \"contracts/KipuBank.sol\":5637:5661  lockPeriod = _lockPeriod */\n      dup2\n      swap1\n      sstore\n      pop\n        /* \"contracts/KipuBank.sol\":5676:5706  LockPeriodUpdated(_lockPeriod) */\n      0x8249ec545e68f6f1e1230133ca48c704d831a7f8e635ded80f3dd9e99b09bb2f\n        /* \"contracts/KipuBank.sol\":5694:5705  _lockPeriod */\n      dup2\n        /* \"contracts/KipuBank.sol\":5676:5706  LockPeriodUpdated(_lockPeriod) */\n      mload(0x40)\n      tag_204\n      swap2\n      swap1\n      tag_35\n      jump\t// in\n    tag_204:\n      mload(0x40)\n      dup1\n      swap2\n      sub\n      swap1\n      log1\n        /* \"contracts/KipuBank.sol\":5564:5713  function setLockPeriod(uint256 _lockPeriod) external onlyOwner {... */\n      pop\n      jump\t// out\n        /* \"contracts/KipuBank.sol\":392:420  uint256 public totalDeposits */\n    tag_67:\n      sload(0x03)\n      dup2\n      jump\t// out\n        /* \"contracts/KipuBank.sol\":1033:1065  uint256 public withdrawalFee = 5 */\n    tag_70:\n      sload(0x08)\n      dup2\n      jump\t// out\n        /* \"@openzeppelin/contracts/access/Ownable.sol\":1638:1723  function owner() public view virtual returns (address) {... */\n    tag_73:\n        /* \"@openzeppelin/contracts/access/Ownable.sol\":1684:1691  address */\n      0x00\n        /* \"@openzeppelin/contracts/access/Ownable.sol\":1710:1716  _owner */\n      0x00\n      0x00\n      swap1\n      sload\n      swap1\n      0x0100\n      exp\n      swap1\n      div\n      0xffffffffffffffffffffffffffffffffffffffff\n      and\n        /* \"@openzeppelin/contracts/access/Ownable.sol\":1703:1716  return _owner */\n      swap1\n      pop\n        /* \"@openzeppelin/contracts/access/Ownable.sol\":1638:1723  function owner() public view virtual returns (address) {... */\n      swap1\n      jump\t// out\n        /* \"contracts/KipuBank.sol\":4905:5142  function getAccountBalance(address accountOwner)... */\n    tag_78:\n        /* \"contracts/KipuBank.sol\":5001:5008  uint256 */\n      0x00\n        /* \"contracts/KipuBank.sol\":5032:5040  accounts */\n      0x06\n        /* \"contracts/KipuBank.sol\":5032:5054  accounts[accountOwner] */\n      0x00\n        /* \"contracts/KipuBank.sol\":5041:5053  accountOwner */\n      dup4\n        /* \"contracts/KipuBank.sol\":5032:5054  accounts[accountOwner] */\n      0xffffffffffffffffffffffffffffffffffffffff\n      and\n      0xffffffffffffffffffffffffffffffffffffffff\n      and\n      dup2\n      mstore\n      0x20\n      add\n      swap1\n      dup2\n      mstore\n      0x20\n      add\n      0x00\n      keccak256\n        /* \"contracts/KipuBank.sol\":5032:5061  accounts[accountOwner].exists */\n      0x02\n      add\n      0x00\n      swap1\n      sload\n      swap1\n      0x0100\n      exp\n      swap1\n      div\n      0xff\n      and\n        /* \"contracts/KipuBank.sol\":5024:5088  require(accounts[accountOwner].exists, \"Account does not exist\") */\n      tag_207\n      jumpi\n      mload(0x40)\n      0x08c379a000000000000000000000000000000000000000000000000000000000\n      dup2\n      mstore\n      0x04\n      add\n      tag_208\n      swap1\n      tag_117\n      jump\t// in\n    tag_208:\n      mload(0x40)\n      dup1\n      swap2\n      sub\n      swap1\n      revert\n    tag_207:\n        /* \"contracts/KipuBank.sol\":5105:5113  accounts */\n      0x06\n        /* \"contracts/KipuBank.sol\":5105:5127  accounts[accountOwner] */\n      0x00\n        /* \"contracts/KipuBank.sol\":5114:5126  accountOwner */\n      dup4\n        /* \"contracts/KipuBank.sol\":5105:5127  accounts[accountOwner] */\n      0xffffffffffffffffffffffffffffffffffffffff\n      and\n      0xffffffffffffffffffffffffffffffffffffffff\n      and\n      dup2\n      mstore\n      0x20\n      add\n      swap1\n      dup2\n      mstore\n      0x20\n      add\n      0x00\n      keccak256\n        /* \"contracts/KipuBank.sol\":5105:5135  accounts[accountOwner].balance */\n      0x00\n      add\n      sload\n        /* \"contracts/KipuBank.sol\":5098:5135  return accounts[accountOwner].balance */\n      swap1\n      pop\n        /* \"contracts/KipuBank.sol\":4905:5142  function getAccountBalance(address accountOwner)... */\n      swap2\n      swap1\n      pop\n      jump\t// out\n        /* \"contracts/KipuBank.sol\":2073:2513  function createAccount() external {... */\n    tag_81:\n        /* \"contracts/KipuBank.sol\":2126:2134  accounts */\n      0x06\n        /* \"contracts/KipuBank.sol\":2126:2146  accounts[msg.sender] */\n      0x00\n        /* \"contracts/KipuBank.sol\":2135:2145  msg.sender */\n      caller\n        /* \"contracts/KipuBank.sol\":2126:2146  accounts[msg.sender] */\n      0xffffffffffffffffffffffffffffffffffffffff\n      and\n      0xffffffffffffffffffffffffffffffffffffffff\n      and\n      dup2\n      mstore\n      0x20\n      add\n      swap1\n      dup2\n      mstore\n      0x20\n      add\n      0x00\n      keccak256\n        /* \"contracts/KipuBank.sol\":2126:2153  accounts[msg.sender].exists */\n      0x02\n      add\n      0x00\n      swap1\n      sload\n      swap1\n      0x0100\n      exp\n      swap1\n      div\n      0xff\n      and\n        /* \"contracts/KipuBank.sol\":2125:2153  !accounts[msg.sender].exists */\n      iszero\n        /* \"contracts/KipuBank.sol\":2117:2180  require(!accounts[msg.sender].exists, \"Account already exists\") */\n      tag_210\n      jumpi\n      mload(0x40)\n      0x08c379a000000000000000000000000000000000000000000000000000000000\n      dup2\n      mstore\n      0x04\n      add\n      tag_211\n      swap1\n      tag_212\n      jump\t// in\n    tag_211:\n      mload(0x40)\n      dup1\n      swap2\n      sub\n      swap1\n      revert\n    tag_210:\n        /* \"contracts/KipuBank.sol\":2214:2464  Account({... */\n      mload(0x40)\n      dup1\n      0xa0\n      add\n      0x40\n      mstore\n      dup1\n        /* \"contracts/KipuBank.sol\":2245:2246  0 */\n      0x00\n        /* \"contracts/KipuBank.sol\":2214:2464  Account({... */\n      dup2\n      mstore\n      0x20\n      add\n        /* \"contracts/KipuBank.sol\":2282:2283  0 */\n      0x00\n        /* \"contracts/KipuBank.sol\":2214:2464  Account({... */\n      dup2\n      mstore\n      0x20\n      add\n        /* \"contracts/KipuBank.sol\":2305:2309  true */\n      0x01\n        /* \"contracts/KipuBank.sol\":2214:2464  Account({... */\n      iszero\n      iszero\n      dup2\n      mstore\n      0x20\n      add\n        /* \"contracts/KipuBank.sol\":2337:2338  0 */\n      0x00\n        /* \"contracts/KipuBank.sol\":2214:2464  Account({... */\n      dup2\n      mstore\n      0x20\n      add\n        /* \"contracts/KipuBank.sol\":2413:2414  0 */\n      0x00\n        /* \"contracts/KipuBank.sol\":2214:2464  Account({... */\n      dup2\n      mstore\n      pop\n        /* \"contracts/KipuBank.sol\":2191:2199  accounts */\n      0x06\n        /* \"contracts/KipuBank.sol\":2191:2211  accounts[msg.sender] */\n      0x00\n        /* \"contracts/KipuBank.sol\":2200:2210  msg.sender */\n      caller\n        /* \"contracts/KipuBank.sol\":2191:2211  accounts[msg.sender] */\n      0xffffffffffffffffffffffffffffffffffffffff\n      and\n      0xffffffffffffffffffffffffffffffffffffffff\n      and\n      dup2\n      mstore\n      0x20\n      add\n      swap1\n      dup2\n      mstore\n      0x20\n      add\n      0x00\n      keccak256\n        /* \"contracts/KipuBank.sol\":2191:2464  accounts[msg.sender] = Account({... */\n      0x00\n      dup3\n      add\n      mload\n      dup2\n      0x00\n      add\n      sstore\n      0x20\n      dup3\n      add\n      mload\n      dup2\n      0x01\n      add\n      sstore\n      0x40\n      dup3\n      add\n      mload\n      dup2\n      0x02\n      add\n      exp(0x0100, 0x00)\n      dup2\n      sload\n      dup2\n      0xff\n      mul\n      not\n      and\n      swap1\n      dup4\n      iszero\n      iszero\n      mul\n      or\n      swap1\n      sstore\n      pop\n      0x60\n      dup3\n      add\n      mload\n      dup2\n      0x03\n      add\n      sstore\n      0x80\n      dup3\n      add\n      mload\n      dup2\n      0x04\n      add\n      sstore\n      swap1\n      pop\n      pop\n        /* \"contracts/KipuBank.sol\":2495:2505  msg.sender */\n      caller\n        /* \"contracts/KipuBank.sol\":2480:2506  AccountCreated(msg.sender) */\n      0xffffffffffffffffffffffffffffffffffffffff\n      and\n      0x805996f252884581e2f74cf3d2b03564d5ec26ccc90850ae12653dc1b72d1fa2\n      mload(0x40)\n      mload(0x40)\n      dup1\n      swap2\n      sub\n      swap1\n      log2\n        /* \"contracts/KipuBank.sol\":2073:2513  function createAccount() external {... */\n      jump\t// out\n        /* \"contracts/KipuBank.sol\":5327:5558  function setWithdrawalFee(uint256 _withdrawalFee) external onlyOwner {... */\n    tag_84:\n        /* \"@openzeppelin/contracts/access/Ownable.sol\":1531:1544  _checkOwner() */\n      tag_214\n        /* \"@openzeppelin/contracts/access/Ownable.sol\":1531:1542  _checkOwner */\n      tag_120\n        /* \"@openzeppelin/contracts/access/Ownable.sol\":1531:1544  _checkOwner() */\n      jump\t// in\n    tag_214:\n        /* \"contracts/KipuBank.sol\":5432:5434  10 */\n      0x0a\n        /* \"contracts/KipuBank.sol\":5414:5428  _withdrawalFee */\n      dup2\n        /* \"contracts/KipuBank.sol\":5414:5434  _withdrawalFee <= 10 */\n      gt\n      iszero\n        /* \"contracts/KipuBank.sol\":5406:5460  require(_withdrawalFee <= 10, \"Fee cannot exceed 10%\") */\n      tag_216\n      jumpi\n      mload(0x40)\n      0x08c379a000000000000000000000000000000000000000000000000000000000\n      dup2\n      mstore\n      0x04\n      add\n      tag_217\n      swap1\n      tag_218\n      jump\t// in\n    tag_217:\n      mload(0x40)\n      dup1\n      swap2\n      sub\n      swap1\n      revert\n    tag_216:\n        /* \"contracts/KipuBank.sol\":5486:5500  _withdrawalFee */\n      dup1\n        /* \"contracts/KipuBank.sol\":5470:5483  withdrawalFee */\n      0x08\n        /* \"contracts/KipuBank.sol\":5470:5500  withdrawalFee = _withdrawalFee */\n      dup2\n      swap1\n      sstore\n      pop\n        /* \"contracts/KipuBank.sol\":5515:5551  WithdrawalFeeUpdated(_withdrawalFee) */\n      0xe94edcc114da5287ecb30ee8aacf12e6c16b11b8583d7f9e477ab1616e33d53d\n        /* \"contracts/KipuBank.sol\":5536:5550  _withdrawalFee */\n      dup2\n        /* \"contracts/KipuBank.sol\":5515:5551  WithdrawalFeeUpdated(_withdrawalFee) */\n      mload(0x40)\n      tag_219\n      swap2\n      swap1\n      tag_35\n      jump\t// in\n    tag_219:\n      mload(0x40)\n      dup1\n      swap2\n      sub\n      swap1\n      log1\n        /* \"contracts/KipuBank.sol\":5327:5558  function setWithdrawalFee(uint256 _withdrawalFee) external onlyOwner {... */\n      pop\n      jump\t// out\n        /* \"contracts/KipuBank.sol\":4673:4780  function getTotalDepositsCount() external view returns (uint256) {... */\n    tag_86:\n        /* \"contracts/KipuBank.sol\":4729:4736  uint256 */\n      0x00\n        /* \"contracts/KipuBank.sol\":4755:4773  totalDepositsCount */\n      sload(0x04)\n        /* \"contracts/KipuBank.sol\":4748:4773  return totalDepositsCount */\n      swap1\n      pop\n        /* \"contracts/KipuBank.sol\":4673:4780  function getTotalDepositsCount() external view returns (uint256) {... */\n      swap1\n      jump\t// out\n        /* \"contracts/KipuBank.sol\":2519:3314  function deposit(uint256 amount) external nonReentrant {... */\n    tag_90:\n        /* \"@openzeppelin/contracts/utils/ReentrancyGuard.sol\":2500:2521  _nonReentrantBefore() */\n      tag_222\n        /* \"@openzeppelin/contracts/utils/ReentrancyGuard.sol\":2500:2519  _nonReentrantBefore */\n      tag_128\n        /* \"@openzeppelin/contracts/utils/ReentrancyGuard.sol\":2500:2521  _nonReentrantBefore() */\n      jump\t// in\n    tag_222:\n        /* \"contracts/KipuBank.sol\":2592:2600  accounts */\n      0x06\n        /* \"contracts/KipuBank.sol\":2592:2612  accounts[msg.sender] */\n      0x00\n        /* \"contracts/KipuBank.sol\":2601:2611  msg.sender */\n      caller\n        /* \"contracts/KipuBank.sol\":2592:2612  accounts[msg.sender] */\n      0xffffffffffffffffffffffffffffffffffffffff\n      and\n      0xffffffffffffffffffffffffffffffffffffffff\n      and\n      dup2\n      mstore\n      0x20\n      add\n      swap1\n      dup2\n      mstore\n      0x20\n      add\n      0x00\n      keccak256\n        /* \"contracts/KipuBank.sol\":2592:2619  accounts[msg.sender].exists */\n      0x02\n      add\n      0x00\n      swap1\n      sload\n      swap1\n      0x0100\n      exp\n      swap1\n      div\n      0xff\n      and\n        /* \"contracts/KipuBank.sol\":2584:2646  require(accounts[msg.sender].exists, \"Account does not exist\") */\n      tag_224\n      jumpi\n      mload(0x40)\n      0x08c379a000000000000000000000000000000000000000000000000000000000\n      dup2\n      mstore\n      0x04\n      add\n      tag_225\n      swap1\n      tag_117\n      jump\t// in\n    tag_225:\n      mload(0x40)\n      dup1\n      swap2\n      sub\n      swap1\n      revert\n    tag_224:\n        /* \"contracts/KipuBank.sol\":2674:2688  minimumDeposit */\n      sload(0x07)\n        /* \"contracts/KipuBank.sol\":2664:2670  amount */\n      dup2\n        /* \"contracts/KipuBank.sol\":2664:2688  amount >= minimumDeposit */\n      lt\n      iszero\n        /* \"contracts/KipuBank.sol\":2656:2721  require(amount >= minimumDeposit, \"Amount below minimum deposit\") */\n      tag_226\n      jumpi\n      mload(0x40)\n      0x08c379a000000000000000000000000000000000000000000000000000000000\n      dup2\n      mstore\n      0x04\n      add\n      tag_227\n      swap1\n      tag_228\n      jump\t// in\n    tag_227:\n      mload(0x40)\n      dup1\n      swap2\n      sub\n      swap1\n      revert\n    tag_226:\n        /* \"contracts/KipuBank.sol\":2778:2785  bankCap */\n      immutable(\"0xeaeba2e6d5db55ec0e36d29579da585b3cbc07168dc9c1795186a4d126c8f86b\")\n        /* \"contracts/KipuBank.sol\":2768:2774  amount */\n      dup2\n        /* \"contracts/KipuBank.sol\":2752:2765  totalDeposits */\n      sload(0x03)\n        /* \"contracts/KipuBank.sol\":2752:2774  totalDeposits + amount */\n      tag_229\n      swap2\n      swap1\n      tag_139\n      jump\t// in\n    tag_229:\n        /* \"contracts/KipuBank.sol\":2752:2785  totalDeposits + amount <= bankCap */\n      gt\n      iszero\n        /* \"contracts/KipuBank.sol\":2731:2845  require(... */\n      tag_230\n      jumpi\n      mload(0x40)\n      0x08c379a000000000000000000000000000000000000000000000000000000000\n      dup2\n      mstore\n      0x04\n      add\n      tag_231\n      swap1\n      tag_232\n      jump\t// in\n    tag_231:\n      mload(0x40)\n      dup1\n      swap2\n      sub\n      swap1\n      revert\n    tag_230:\n        /* \"contracts/KipuBank.sol\":2856:2868  bool success */\n      0x00\n        /* \"contracts/KipuBank.sol\":2871:2876  token */\n      0x02\n      0x00\n      swap1\n      sload\n      swap1\n      0x0100\n      exp\n      swap1\n      div\n      0xffffffffffffffffffffffffffffffffffffffff\n      and\n        /* \"contracts/KipuBank.sol\":2871:2889  token.transferFrom */\n      0xffffffffffffffffffffffffffffffffffffffff\n      and\n      0x23b872dd\n        /* \"contracts/KipuBank.sol\":2890:2900  msg.sender */\n      caller\n        /* \"contracts/KipuBank.sol\":2910:2914  this */\n      address\n        /* \"contracts/KipuBank.sol\":2917:2923  amount */\n      dup6\n        /* \"contracts/KipuBank.sol\":2871:2924  token.transferFrom(msg.sender, address(this), amount) */\n      mload(0x40)\n      dup5\n      0xffffffff\n      and\n      0xe0\n      shl\n      dup2\n      mstore\n      0x04\n      add\n      tag_233\n      swap4\n      swap3\n      swap2\n      swap1\n      tag_234\n      jump\t// in\n    tag_233:\n      0x20\n      mload(0x40)\n      dup1\n      dup4\n      sub\n      dup2\n      0x00\n      dup8\n      gas\n      call\n      iszero\n      dup1\n      iszero\n      tag_236\n      jumpi\n      returndatacopy(0x00, 0x00, returndatasize)\n      revert(0x00, returndatasize)\n    tag_236:\n      pop\n      pop\n      pop\n      pop\n      mload(0x40)\n      returndatasize\n      not(0x1f)\n      0x1f\n      dup3\n      add\n      and\n      dup3\n      add\n      dup1\n      0x40\n      mstore\n      pop\n      dup2\n      add\n      swap1\n      tag_237\n      swap2\n      swap1\n      tag_158\n      jump\t// in\n    tag_237:\n        /* \"contracts/KipuBank.sol\":2856:2924  bool success = token.transferFrom(msg.sender, address(this), amount) */\n      swap1\n      pop\n        /* \"contracts/KipuBank.sol\":2942:2949  success */\n      dup1\n        /* \"contracts/KipuBank.sol\":2934:2975  require(success, \"Token transfer failed\") */\n      tag_238\n      jumpi\n      mload(0x40)\n      0x08c379a000000000000000000000000000000000000000000000000000000000\n      dup2\n      mstore\n      0x04\n      add\n      tag_239\n      swap1\n      tag_161\n      jump\t// in\n    tag_239:\n      mload(0x40)\n      dup1\n      swap2\n      sub\n      swap1\n      revert\n    tag_238:\n        /* \"contracts/KipuBank.sol\":3018:3024  amount */\n      dup2\n        /* \"contracts/KipuBank.sol\":2986:2994  accounts */\n      0x06\n        /* \"contracts/KipuBank.sol\":2986:3006  accounts[msg.sender] */\n      0x00\n        /* \"contracts/KipuBank.sol\":2995:3005  msg.sender */\n      caller\n        /* \"contracts/KipuBank.sol\":2986:3006  accounts[msg.sender] */\n      0xffffffffffffffffffffffffffffffffffffffff\n      and\n      0xffffffffffffffffffffffffffffffffffffffff\n      and\n      dup2\n      mstore\n      0x20\n      add\n      swap1\n      dup2\n      mstore\n      0x20\n      add\n      0x00\n      keccak256\n        /* \"contracts/KipuBank.sol\":2986:3014  accounts[msg.sender].balance */\n      0x00\n      add\n      0x00\n        /* \"contracts/KipuBank.sol\":2986:3024  accounts[msg.sender].balance += amount */\n      dup3\n      dup3\n      sload\n      tag_240\n      swap2\n      swap1\n      tag_139\n      jump\t// in\n    tag_240:\n      swap3\n      pop\n      pop\n      dup2\n      swap1\n      sstore\n      pop\n        /* \"contracts/KipuBank.sol\":3078:3093  block.timestamp */\n      timestamp\n        /* \"contracts/KipuBank.sol\":3034:3042  accounts */\n      0x06\n        /* \"contracts/KipuBank.sol\":3034:3054  accounts[msg.sender] */\n      0x00\n        /* \"contracts/KipuBank.sol\":3043:3053  msg.sender */\n      caller\n        /* \"contracts/KipuBank.sol\":3034:3054  accounts[msg.sender] */\n      0xffffffffffffffffffffffffffffffffffffffff\n      and\n      0xffffffffffffffffffffffffffffffffffffffff\n      and\n      dup2\n      mstore\n      0x20\n      add\n      swap1\n      dup2\n      mstore\n      0x20\n      add\n      0x00\n      keccak256\n        /* \"contracts/KipuBank.sol\":3034:3075  accounts[msg.sender].lastDepositTimestamp */\n      0x01\n      add\n        /* \"contracts/KipuBank.sol\":3034:3093  accounts[msg.sender].lastDepositTimestamp = block.timestamp */\n      dup2\n      swap1\n      sstore\n      pop\n        /* \"contracts/KipuBank.sol\":3140:3141  1 */\n      0x01\n        /* \"contracts/KipuBank.sol\":3103:3111  accounts */\n      0x06\n        /* \"contracts/KipuBank.sol\":3103:3123  accounts[msg.sender] */\n      0x00\n        /* \"contracts/KipuBank.sol\":3112:3122  msg.sender */\n      caller\n        /* \"contracts/KipuBank.sol\":3103:3123  accounts[msg.sender] */\n      0xffffffffffffffffffffffffffffffffffffffff\n      and\n      0xffffffffffffffffffffffffffffffffffffffff\n      and\n      dup2\n      mstore\n      0x20\n      add\n      swap1\n      dup2\n      mstore\n      0x20\n      add\n      0x00\n      keccak256\n        /* \"contracts/KipuBank.sol\":3103:3136  accounts[msg.sender].depositCount */\n      0x03\n      add\n      0x00\n        /* \"contracts/KipuBank.sol\":3103:3141  accounts[msg.sender].depositCount += 1 */\n      dup3\n      dup3\n      sload\n      tag_241\n      swap2\n      swap1\n      tag_139\n      jump\t// in\n    tag_241:\n      swap3\n      pop\n      pop\n      dup2\n      swap1\n      sstore\n      pop\n        /* \"contracts/KipuBank.sol\":3168:3174  amount */\n      dup2\n        /* \"contracts/KipuBank.sol\":3151:3164  totalDeposits */\n      0x03\n      0x00\n        /* \"contracts/KipuBank.sol\":3151:3174  totalDeposits += amount */\n      dup3\n      dup3\n      sload\n      tag_242\n      swap2\n      swap1\n      tag_139\n      jump\t// in\n    tag_242:\n      swap3\n      pop\n      pop\n      dup2\n      swap1\n      sstore\n      pop\n        /* \"contracts/KipuBank.sol\":3206:3207  1 */\n      0x01\n        /* \"contracts/KipuBank.sol\":3184:3202  totalDepositsCount */\n      0x04\n      0x00\n        /* \"contracts/KipuBank.sol\":3184:3207  totalDepositsCount += 1 */\n      dup3\n      dup3\n      sload\n      tag_243\n      swap2\n      swap1\n      tag_139\n      jump\t// in\n    tag_243:\n      swap3\n      pop\n      pop\n      dup2\n      swap1\n      sstore\n      pop\n        /* \"contracts/KipuBank.sol\":3233:3243  msg.sender */\n      caller\n        /* \"contracts/KipuBank.sol\":3223:3307  Deposited(msg.sender, amount, accounts[msg.sender].depositCount, totalDepositsCount) */\n      0xffffffffffffffffffffffffffffffffffffffff\n      and\n      0x91ede45f04a37a7c170f5c1207df3b6bc748dc1e04ad5e917a241d0f52feada3\n        /* \"contracts/KipuBank.sol\":3245:3251  amount */\n      dup4\n        /* \"contracts/KipuBank.sol\":3253:3261  accounts */\n      0x06\n        /* \"contracts/KipuBank.sol\":3253:3273  accounts[msg.sender] */\n      0x00\n        /* \"contracts/KipuBank.sol\":3262:3272  msg.sender */\n      caller\n        /* \"contracts/KipuBank.sol\":3253:3273  accounts[msg.sender] */\n      0xffffffffffffffffffffffffffffffffffffffff\n      and\n      0xffffffffffffffffffffffffffffffffffffffff\n      and\n      dup2\n      mstore\n      0x20\n      add\n      swap1\n      dup2\n      mstore\n      0x20\n      add\n      0x00\n      keccak256\n        /* \"contracts/KipuBank.sol\":3253:3286  accounts[msg.sender].depositCount */\n      0x03\n      add\n      sload\n        /* \"contracts/KipuBank.sol\":3288:3306  totalDepositsCount */\n      sload(0x04)\n        /* \"contracts/KipuBank.sol\":3223:3307  Deposited(msg.sender, amount, accounts[msg.sender].depositCount, totalDepositsCount) */\n      mload(0x40)\n      tag_244\n      swap4\n      swap3\n      swap2\n      swap1\n      tag_245\n      jump\t// in\n    tag_244:\n      mload(0x40)\n      dup1\n      swap2\n      sub\n      swap1\n      log2\n        /* \"contracts/KipuBank.sol\":2574:3314  {... */\n      pop\n        /* \"@openzeppelin/contracts/utils/ReentrancyGuard.sol\":2542:2562  _nonReentrantAfter() */\n      tag_246\n        /* \"@openzeppelin/contracts/utils/ReentrancyGuard.sol\":2542:2560  _nonReentrantAfter */\n      tag_165\n        /* \"@openzeppelin/contracts/utils/ReentrancyGuard.sol\":2542:2562  _nonReentrantAfter() */\n      jump\t// in\n    tag_246:\n        /* \"contracts/KipuBank.sol\":2519:3314  function deposit(uint256 amount) external nonReentrant {... */\n      pop\n      jump\t// out\n        /* \"contracts/KipuBank.sol\":4786:4899  function getTotalWithdrawalsCount() external view returns (uint256) {... */\n    tag_92:\n        /* \"contracts/KipuBank.sol\":4845:4852  uint256 */\n      0x00\n        /* \"contracts/KipuBank.sol\":4871:4892  totalWithdrawalsCount */\n      sload(0x05)\n        /* \"contracts/KipuBank.sol\":4864:4892  return totalWithdrawalsCount */\n      swap1\n      pop\n        /* \"contracts/KipuBank.sol\":4786:4899  function getTotalWithdrawalsCount() external view returns (uint256) {... */\n      swap1\n      jump\t// out\n        /* \"contracts/KipuBank.sol\":515:548  uint256 public totalDepositsCount */\n    tag_95:\n      sload(0x04)\n      dup2\n      jump\t// out\n        /* \"contracts/KipuBank.sol\":4469:4667  function getUserWithdrawalCount(address user) external view returns (uint256) {... */\n    tag_99:\n        /* \"contracts/KipuBank.sol\":4538:4545  uint256 */\n      0x00\n        /* \"contracts/KipuBank.sol\":4565:4573  accounts */\n      0x06\n        /* \"contracts/KipuBank.sol\":4565:4579  accounts[user] */\n      0x00\n        /* \"contracts/KipuBank.sol\":4574:4578  user */\n      dup4\n        /* \"contracts/KipuBank.sol\":4565:4579  accounts[user] */\n      0xffffffffffffffffffffffffffffffffffffffff\n      and\n      0xffffffffffffffffffffffffffffffffffffffff\n      and\n      dup2\n      mstore\n      0x20\n      add\n      swap1\n      dup2\n      mstore\n      0x20\n      add\n      0x00\n      keccak256\n        /* \"contracts/KipuBank.sol\":4565:4586  accounts[user].exists */\n      0x02\n      add\n      0x00\n      swap1\n      sload\n      swap1\n      0x0100\n      exp\n      swap1\n      div\n      0xff\n      and\n        /* \"contracts/KipuBank.sol\":4557:4613  require(accounts[user].exists, \"Account does not exist\") */\n      tag_249\n      jumpi\n      mload(0x40)\n      0x08c379a000000000000000000000000000000000000000000000000000000000\n      dup2\n      mstore\n      0x04\n      add\n      tag_250\n      swap1\n      tag_117\n      jump\t// in\n    tag_250:\n      mload(0x40)\n      dup1\n      swap2\n      sub\n      swap1\n      revert\n    tag_249:\n        /* \"contracts/KipuBank.sol\":4630:4638  accounts */\n      0x06\n        /* \"contracts/KipuBank.sol\":4630:4644  accounts[user] */\n      0x00\n        /* \"contracts/KipuBank.sol\":4639:4643  user */\n      dup4\n        /* \"contracts/KipuBank.sol\":4630:4644  accounts[user] */\n      0xffffffffffffffffffffffffffffffffffffffff\n      and\n      0xffffffffffffffffffffffffffffffffffffffff\n      and\n      dup2\n      mstore\n      0x20\n      add\n      swap1\n      dup2\n      mstore\n      0x20\n      add\n      0x00\n      keccak256\n        /* \"contracts/KipuBank.sol\":4630:4660  accounts[user].withdrawalCount */\n      0x04\n      add\n      sload\n        /* \"contracts/KipuBank.sol\":4623:4660  return accounts[user].withdrawalCount */\n      swap1\n      pop\n        /* \"contracts/KipuBank.sol\":4469:4667  function getUserWithdrawalCount(address user) external view returns (uint256) {... */\n      swap2\n      swap1\n      pop\n      jump\t// out\n        /* \"contracts/KipuBank.sol\":5148:5321  function setMinimumDeposit(uint256 _minimumDeposit) external onlyOwner {... */\n    tag_103:\n        /* \"@openzeppelin/contracts/access/Ownable.sol\":1531:1544  _checkOwner() */\n      tag_252\n        /* \"@openzeppelin/contracts/access/Ownable.sol\":1531:1542  _checkOwner */\n      tag_120\n        /* \"@openzeppelin/contracts/access/Ownable.sol\":1531:1544  _checkOwner() */\n      jump\t// in\n    tag_252:\n        /* \"contracts/KipuBank.sol\":5246:5261  _minimumDeposit */\n      dup1\n        /* \"contracts/KipuBank.sol\":5229:5243  minimumDeposit */\n      0x07\n        /* \"contracts/KipuBank.sol\":5229:5261  minimumDeposit = _minimumDeposit */\n      dup2\n      swap1\n      sstore\n      pop\n        /* \"contracts/KipuBank.sol\":5276:5314  MinimumDepositUpdated(_minimumDeposit) */\n      0xd939191be6b640bc40ef7c6a17554ac82dfea02602fcacfad13dcd71d0abe6d0\n        /* \"contracts/KipuBank.sol\":5298:5313  _minimumDeposit */\n      dup2\n        /* \"contracts/KipuBank.sol\":5276:5314  MinimumDepositUpdated(_minimumDeposit) */\n      mload(0x40)\n      tag_254\n      swap2\n      swap1\n      tag_35\n      jump\t// in\n    tag_254:\n      mload(0x40)\n      dup1\n      swap2\n      sub\n      swap1\n      log1\n        /* \"contracts/KipuBank.sol\":5148:5321  function setMinimumDeposit(uint256 _minimumDeposit) external onlyOwner {... */\n      pop\n      jump\t// out\n        /* \"contracts/KipuBank.sol\":306:338  uint256 public immutable bankCap */\n    tag_105:\n      immutable(\"0xeaeba2e6d5db55ec0e36d29579da585b3cbc07168dc9c1795186a4d126c8f86b\")\n      dup2\n      jump\t// out\n        /* \"@openzeppelin/contracts/access/Ownable.sol\":2543:2758  function transferOwnership(address newOwner) public virtual onlyOwner {... */\n    tag_109:\n        /* \"@openzeppelin/contracts/access/Ownable.sol\":1531:1544  _checkOwner() */\n      tag_256\n        /* \"@openzeppelin/contracts/access/Ownable.sol\":1531:1542  _checkOwner */\n      tag_120\n        /* \"@openzeppelin/contracts/access/Ownable.sol\":1531:1544  _checkOwner() */\n      jump\t// in\n    tag_256:\n        /* \"@openzeppelin/contracts/access/Ownable.sol\":2647:2648  0 */\n      0x00\n        /* \"@openzeppelin/contracts/access/Ownable.sol\":2627:2649  newOwner == address(0) */\n      0xffffffffffffffffffffffffffffffffffffffff\n      and\n        /* \"@openzeppelin/contracts/access/Ownable.sol\":2627:2635  newOwner */\n      dup2\n        /* \"@openzeppelin/contracts/access/Ownable.sol\":2627:2649  newOwner == address(0) */\n      0xffffffffffffffffffffffffffffffffffffffff\n      and\n      sub\n        /* \"@openzeppelin/contracts/access/Ownable.sol\":2623:2714  if (newOwner == address(0)) {... */\n      tag_258\n      jumpi\n        /* \"@openzeppelin/contracts/access/Ownable.sol\":2700:2701  0 */\n      0x00\n        /* \"@openzeppelin/contracts/access/Ownable.sol\":2672:2703  OwnableInvalidOwner(address(0)) */\n      mload(0x40)\n      0x1e4fbdf700000000000000000000000000000000000000000000000000000000\n      dup2\n      mstore\n      0x04\n      add\n      tag_259\n      swap2\n      swap1\n      tag_75\n      jump\t// in\n    tag_259:\n      mload(0x40)\n      dup1\n      swap2\n      sub\n      swap1\n      revert\n        /* \"@openzeppelin/contracts/access/Ownable.sol\":2623:2714  if (newOwner == address(0)) {... */\n    tag_258:\n        /* \"@openzeppelin/contracts/access/Ownable.sol\":2723:2751  _transferOwnership(newOwner) */\n      tag_260\n        /* \"@openzeppelin/contracts/access/Ownable.sol\":2742:2750  newOwner */\n      dup2\n        /* \"@openzeppelin/contracts/access/Ownable.sol\":2723:2741  _transferOwnership */\n      tag_200\n        /* \"@openzeppelin/contracts/access/Ownable.sol\":2723:2751  _transferOwnership(newOwner) */\n      jump\t// in\n    tag_260:\n        /* \"@openzeppelin/contracts/access/Ownable.sol\":2543:2758  function transferOwnership(address newOwner) public virtual onlyOwner {... */\n      pop\n      jump\t// out\n        /* \"contracts/KipuBank.sol\":281:300  IERC20 public token */\n    tag_111:\n      0x02\n      0x00\n      swap1\n      sload\n      swap1\n      0x0100\n      exp\n      swap1\n      div\n      0xffffffffffffffffffffffffffffffffffffffff\n      and\n      dup2\n      jump\t// out\n        /* \"@openzeppelin/contracts/access/Ownable.sol\":1796:1958  function _checkOwner() internal view virtual {... */\n    tag_120:\n        /* \"@openzeppelin/contracts/access/Ownable.sol\":1866:1878  _msgSender() */\n      tag_262\n        /* \"@openzeppelin/contracts/access/Ownable.sol\":1866:1876  _msgSender */\n      tag_263\n        /* \"@openzeppelin/contracts/access/Ownable.sol\":1866:1878  _msgSender() */\n      jump\t// in\n    tag_262:\n        /* \"@openzeppelin/contracts/access/Ownable.sol\":1855:1878  owner() != _msgSender() */\n      0xffffffffffffffffffffffffffffffffffffffff\n      and\n        /* \"@openzeppelin/contracts/access/Ownable.sol\":1855:1862  owner() */\n      tag_264\n        /* \"@openzeppelin/contracts/access/Ownable.sol\":1855:1860  owner */\n      tag_73\n        /* \"@openzeppelin/contracts/access/Ownable.sol\":1855:1862  owner() */\n      jump\t// in\n    tag_264:\n        /* \"@openzeppelin/contracts/access/Ownable.sol\":1855:1878  owner() != _msgSender() */\n      0xffffffffffffffffffffffffffffffffffffffff\n      and\n      eq\n        /* \"@openzeppelin/contracts/access/Ownable.sol\":1851:1952  if (owner() != _msgSender()) {... */\n      tag_265\n      jumpi\n        /* \"@openzeppelin/contracts/access/Ownable.sol\":1928:1940  _msgSender() */\n      tag_266\n        /* \"@openzeppelin/contracts/access/Ownable.sol\":1928:1938  _msgSender */\n      tag_263\n        /* \"@openzeppelin/contracts/access/Ownable.sol\":1928:1940  _msgSender() */\n      jump\t// in\n    tag_266:\n        /* \"@openzeppelin/contracts/access/Ownable.sol\":1901:1941  OwnableUnauthorizedAccount(_msgSender()) */\n      mload(0x40)\n      0x118cdaa700000000000000000000000000000000000000000000000000000000\n      dup2\n      mstore\n      0x04\n      add\n      tag_267\n      swap2\n      swap1\n      tag_75\n      jump\t// in\n    tag_267:\n      mload(0x40)\n      dup1\n      swap2\n      sub\n      swap1\n      revert\n        /* \"@openzeppelin/contracts/access/Ownable.sol\":1851:1952  if (owner() != _msgSender()) {... */\n    tag_265:\n        /* \"@openzeppelin/contracts/access/Ownable.sol\":1796:1958  function _checkOwner() internal view virtual {... */\n      jump\t// out\n        /* \"@openzeppelin/contracts/utils/ReentrancyGuard.sol\":2575:2882  function _nonReentrantBefore() private {... */\n    tag_128:\n        /* \"@openzeppelin/contracts/utils/ReentrancyGuard.sol\":1899:1900  2 */\n      0x02\n        /* \"@openzeppelin/contracts/utils/ReentrancyGuard.sol\":2702:2709  _status */\n      sload(0x01)\n        /* \"@openzeppelin/contracts/utils/ReentrancyGuard.sol\":2702:2720  _status == ENTERED */\n      sub\n        /* \"@openzeppelin/contracts/utils/ReentrancyGuard.sol\":2698:2784  if (_status == ENTERED) {... */\n      tag_269\n      jumpi\n        /* \"@openzeppelin/contracts/utils/ReentrancyGuard.sol\":2743:2773  ReentrancyGuardReentrantCall() */\n      mload(0x40)\n      0x3ee5aeb500000000000000000000000000000000000000000000000000000000\n      dup2\n      mstore\n      0x04\n      add\n      mload(0x40)\n      dup1\n      swap2\n      sub\n      swap1\n      revert\n        /* \"@openzeppelin/contracts/utils/ReentrancyGuard.sol\":2698:2784  if (_status == ENTERED) {... */\n    tag_269:\n        /* \"@openzeppelin/contracts/utils/ReentrancyGuard.sol\":1899:1900  2 */\n      0x02\n        /* \"@openzeppelin/contracts/utils/ReentrancyGuard.sol\":2858:2865  _status */\n      0x01\n        /* \"@openzeppelin/contracts/utils/ReentrancyGuard.sol\":2858:2875  _status = ENTERED */\n      dup2\n      swap1\n      sstore\n      pop\n        /* \"@openzeppelin/contracts/utils/ReentrancyGuard.sol\":2575:2882  function _nonReentrantBefore() private {... */\n      jump\t// out\n        /* \"@openzeppelin/contracts/utils/ReentrancyGuard.sol\":2888:3096  function _nonReentrantAfter() private {... */\n    tag_165:\n        /* \"@openzeppelin/contracts/utils/ReentrancyGuard.sol\":1857:1858  1 */\n      0x01\n        /* \"@openzeppelin/contracts/utils/ReentrancyGuard.sol\":3068:3075  _status */\n      dup1\n        /* \"@openzeppelin/contracts/utils/ReentrancyGuard.sol\":3068:3089  _status = NOT_ENTERED */\n      dup2\n      swap1\n      sstore\n      pop\n        /* \"@openzeppelin/contracts/utils/ReentrancyGuard.sol\":2888:3096  function _nonReentrantAfter() private {... */\n      jump\t// out\n        /* \"@openzeppelin/contracts/access/Ownable.sol\":2912:3099  function _transferOwnership(address newOwner) internal virtual {... */\n    tag_200:\n        /* \"@openzeppelin/contracts/access/Ownable.sol\":2985:3001  address oldOwner */\n      0x00\n        /* \"@openzeppelin/contracts/access/Ownable.sol\":3004:3010  _owner */\n      0x00\n      0x00\n      swap1\n      sload\n      swap1\n      0x0100\n      exp\n      swap1\n      div\n      0xffffffffffffffffffffffffffffffffffffffff\n      and\n        /* \"@openzeppelin/contracts/access/Ownable.sol\":2985:3010  address oldOwner = _owner */\n      swap1\n      pop\n        /* \"@openzeppelin/contracts/access/Ownable.sol\":3029:3037  newOwner */\n      dup2\n        /* \"@openzeppelin/contracts/access/Ownable.sol\":3020:3026  _owner */\n      0x00\n      0x00\n        /* \"@openzeppelin/contracts/access/Ownable.sol\":3020:3037  _owner = newOwner */\n      0x0100\n      exp\n      dup2\n      sload\n      dup2\n      0xffffffffffffffffffffffffffffffffffffffff\n      mul\n      not\n      and\n      swap1\n      dup4\n      0xffffffffffffffffffffffffffffffffffffffff\n      and\n      mul\n      or\n      swap1\n      sstore\n      pop\n        /* \"@openzeppelin/contracts/access/Ownable.sol\":3083:3091  newOwner */\n      dup2\n        /* \"@openzeppelin/contracts/access/Ownable.sol\":3052:3092  OwnershipTransferred(oldOwner, newOwner) */\n      0xffffffffffffffffffffffffffffffffffffffff\n      and\n        /* \"@openzeppelin/contracts/access/Ownable.sol\":3073:3081  oldOwner */\n      dup2\n        /* \"@openzeppelin/contracts/access/Ownable.sol\":3052:3092  OwnershipTransferred(oldOwner, newOwner) */\n      0xffffffffffffffffffffffffffffffffffffffff\n      and\n      0x8be0079c531659141344cd1fd0a4f28419497f9722a3daafe3b4186f6b6457e0\n      mload(0x40)\n      mload(0x40)\n      dup1\n      swap2\n      sub\n      swap1\n      log3\n        /* \"@openzeppelin/contracts/access/Ownable.sol\":2975:3099  {... */\n      pop\n        /* \"@openzeppelin/contracts/access/Ownable.sol\":2912:3099  function _transferOwnership(address newOwner) internal virtual {... */\n      pop\n      jump\t// out\n        /* \"@openzeppelin/contracts/utils/Context.sol\":656:752  function _msgSender() internal view virtual returns (address) {... */\n    tag_263:\n        /* \"@openzeppelin/contracts/utils/Context.sol\":709:716  address */\n      0x00\n        /* \"@openzeppelin/contracts/utils/Context.sol\":735:745  msg.sender */\n      caller\n        /* \"@openzeppelin/contracts/utils/Context.sol\":728:745  return msg.sender */\n      swap1\n      pop\n        /* \"@openzeppelin/contracts/utils/Context.sol\":656:752  function _msgSender() internal view virtual returns (address) {... */\n      swap1\n      jump\t// out\n        /* \"#utility.yul\":7:84   */\n    tag_273:\n        /* \"#utility.yul\":44:51   */\n      0x00\n        /* \"#utility.yul\":73:78   */\n      dup2\n        /* \"#utility.yul\":62:78   */\n      swap1\n      pop\n        /* \"#utility.yul\":7:84   */\n      swap2\n      swap1\n      pop\n      jump\t// out\n        /* \"#utility.yul\":90:208   */\n    tag_274:\n        /* \"#utility.yul\":177:201   */\n      tag_323\n        /* \"#utility.yul\":195:200   */\n      dup2\n        /* \"#utility.yul\":177:201   */\n      tag_273\n      jump\t// in\n    tag_323:\n        /* \"#utility.yul\":172:175   */\n      dup3\n        /* \"#utility.yul\":165:202   */\n      mstore\n        /* \"#utility.yul\":90:208   */\n      pop\n      pop\n      jump\t// out\n        /* \"#utility.yul\":214:436   */\n    tag_35:\n        /* \"#utility.yul\":307:311   */\n      0x00\n        /* \"#utility.yul\":345:347   */\n      0x20\n        /* \"#utility.yul\":334:343   */\n      dup3\n        /* \"#utility.yul\":330:348   */\n      add\n        /* \"#utility.yul\":322:348   */\n      swap1\n      pop\n        /* \"#utility.yul\":358:429   */\n      tag_325\n        /* \"#utility.yul\":426:427   */\n      0x00\n        /* \"#utility.yul\":415:424   */\n      dup4\n        /* \"#utility.yul\":411:428   */\n      add\n        /* \"#utility.yul\":402:408   */\n      dup5\n        /* \"#utility.yul\":358:429   */\n      tag_274\n      jump\t// in\n    tag_325:\n        /* \"#utility.yul\":214:436   */\n      swap3\n      swap2\n      pop\n      pop\n      jump\t// out\n        /* \"#utility.yul\":523:640   */\n    tag_276:\n        /* \"#utility.yul\":632:633   */\n      0x00\n        /* \"#utility.yul\":629:630   */\n      0x00\n        /* \"#utility.yul\":622:634   */\n      revert\n        /* \"#utility.yul\":769:895   */\n    tag_278:\n        /* \"#utility.yul\":806:813   */\n      0x00\n        /* \"#utility.yul\":846:888   */\n      0xffffffffffffffffffffffffffffffffffffffff\n        /* \"#utility.yul\":839:844   */\n      dup3\n        /* \"#utility.yul\":835:889   */\n      and\n        /* \"#utility.yul\":824:889   */\n      swap1\n      pop\n        /* \"#utility.yul\":769:895   */\n      swap2\n      swap1\n      pop\n      jump\t// out\n        /* \"#utility.yul\":901:997   */\n    tag_279:\n        /* \"#utility.yul\":938:945   */\n      0x00\n        /* \"#utility.yul\":967:991   */\n      tag_331\n        /* \"#utility.yul\":985:990   */\n      dup3\n        /* \"#utility.yul\":967:991   */\n      tag_278\n      jump\t// in\n    tag_331:\n        /* \"#utility.yul\":956:991   */\n      swap1\n      pop\n        /* \"#utility.yul\":901:997   */\n      swap2\n      swap1\n      pop\n      jump\t// out\n        /* \"#utility.yul\":1003:1125   */\n    tag_280:\n        /* \"#utility.yul\":1076:1100   */\n      tag_333\n        /* \"#utility.yul\":1094:1099   */\n      dup2\n        /* \"#utility.yul\":1076:1100   */\n      tag_279\n      jump\t// in\n    tag_333:\n        /* \"#utility.yul\":1069:1074   */\n      dup2\n        /* \"#utility.yul\":1066:1101   */\n      eq\n        /* \"#utility.yul\":1056:1119   */\n      tag_334\n      jumpi\n        /* \"#utility.yul\":1115:1116   */\n      0x00\n        /* \"#utility.yul\":1112:1113   */\n      0x00\n        /* \"#utility.yul\":1105:1117   */\n      revert\n        /* \"#utility.yul\":1056:1119   */\n    tag_334:\n        /* \"#utility.yul\":1003:1125   */\n      pop\n      jump\t// out\n        /* \"#utility.yul\":1131:1270   */\n    tag_281:\n        /* \"#utility.yul\":1177:1182   */\n      0x00\n        /* \"#utility.yul\":1215:1221   */\n      dup2\n        /* \"#utility.yul\":1202:1222   */\n      calldataload\n        /* \"#utility.yul\":1193:1222   */\n      swap1\n      pop\n        /* \"#utility.yul\":1231:1264   */\n      tag_336\n        /* \"#utility.yul\":1258:1263   */\n      dup2\n        /* \"#utility.yul\":1231:1264   */\n      tag_280\n      jump\t// in\n    tag_336:\n        /* \"#utility.yul\":1131:1270   */\n      swap3\n      swap2\n      pop\n      pop\n      jump\t// out\n        /* \"#utility.yul\":1276:1605   */\n    tag_38:\n        /* \"#utility.yul\":1335:1341   */\n      0x00\n        /* \"#utility.yul\":1384:1386   */\n      0x20\n        /* \"#utility.yul\":1372:1381   */\n      dup3\n        /* \"#utility.yul\":1363:1370   */\n      dup5\n        /* \"#utility.yul\":1359:1382   */\n      sub\n        /* \"#utility.yul\":1355:1387   */\n      slt\n        /* \"#utility.yul\":1352:1471   */\n      iszero\n      tag_338\n      jumpi\n        /* \"#utility.yul\":1390:1469   */\n      tag_339\n      tag_276\n      jump\t// in\n    tag_339:\n        /* \"#utility.yul\":1352:1471   */\n    tag_338:\n        /* \"#utility.yul\":1510:1511   */\n      0x00\n        /* \"#utility.yul\":1535:1588   */\n      tag_340\n        /* \"#utility.yul\":1580:1587   */\n      dup5\n        /* \"#utility.yul\":1571:1577   */\n      dup3\n        /* \"#utility.yul\":1560:1569   */\n      dup6\n        /* \"#utility.yul\":1556:1578   */\n      add\n        /* \"#utility.yul\":1535:1588   */\n      tag_281\n      jump\t// in\n    tag_340:\n        /* \"#utility.yul\":1525:1588   */\n      swap2\n      pop\n        /* \"#utility.yul\":1481:1598   */\n      pop\n        /* \"#utility.yul\":1276:1605   */\n      swap3\n      swap2\n      pop\n      pop\n      jump\t// out\n        /* \"#utility.yul\":1611:1733   */\n    tag_282:\n        /* \"#utility.yul\":1684:1708   */\n      tag_342\n        /* \"#utility.yul\":1702:1707   */\n      dup2\n        /* \"#utility.yul\":1684:1708   */\n      tag_273\n      jump\t// in\n    tag_342:\n        /* \"#utility.yul\":1677:1682   */\n      dup2\n        /* \"#utility.yul\":1674:1709   */\n      eq\n        /* \"#utility.yul\":1664:1727   */\n      tag_343\n      jumpi\n        /* \"#utility.yul\":1723:1724   */\n      0x00\n        /* \"#utility.yul\":1720:1721   */\n      0x00\n        /* \"#utility.yul\":1713:1725   */\n      revert\n        /* \"#utility.yul\":1664:1727   */\n    tag_343:\n        /* \"#utility.yul\":1611:1733   */\n      pop\n      jump\t// out\n        /* \"#utility.yul\":1739:1878   */\n    tag_283:\n        /* \"#utility.yul\":1785:1790   */\n      0x00\n        /* \"#utility.yul\":1823:1829   */\n      dup2\n        /* \"#utility.yul\":1810:1830   */\n      calldataload\n        /* \"#utility.yul\":1801:1830   */\n      swap1\n      pop\n        /* \"#utility.yul\":1839:1872   */\n      tag_345\n        /* \"#utility.yul\":1866:1871   */\n      dup2\n        /* \"#utility.yul\":1839:1872   */\n      tag_282\n      jump\t// in\n    tag_345:\n        /* \"#utility.yul\":1739:1878   */\n      swap3\n      swap2\n      pop\n      pop\n      jump\t// out\n        /* \"#utility.yul\":1884:2213   */\n    tag_46:\n        /* \"#utility.yul\":1943:1949   */\n      0x00\n        /* \"#utility.yul\":1992:1994   */\n      0x20\n        /* \"#utility.yul\":1980:1989   */\n      dup3\n        /* \"#utility.yul\":1971:1978   */\n      dup5\n        /* \"#utility.yul\":1967:1990   */\n      sub\n        /* \"#utility.yul\":1963:1995   */\n      slt\n        /* \"#utility.yul\":1960:2079   */\n      iszero\n      tag_347\n      jumpi\n        /* \"#utility.yul\":1998:2077   */\n      tag_348\n      tag_276\n      jump\t// in\n    tag_348:\n        /* \"#utility.yul\":1960:2079   */\n    tag_347:\n        /* \"#utility.yul\":2118:2119   */\n      0x00\n        /* \"#utility.yul\":2143:2196   */\n      tag_349\n        /* \"#utility.yul\":2188:2195   */\n      dup5\n        /* \"#utility.yul\":2179:2185   */\n      dup3\n        /* \"#utility.yul\":2168:2177   */\n      dup6\n        /* \"#utility.yul\":2164:2186   */\n      add\n        /* \"#utility.yul\":2143:2196   */\n      tag_283\n      jump\t// in\n    tag_349:\n        /* \"#utility.yul\":2133:2196   */\n      swap2\n      pop\n        /* \"#utility.yul\":2089:2206   */\n      pop\n        /* \"#utility.yul\":1884:2213   */\n      swap3\n      swap2\n      pop\n      pop\n      jump\t// out\n        /* \"#utility.yul\":2219:2309   */\n    tag_284:\n        /* \"#utility.yul\":2253:2260   */\n      0x00\n        /* \"#utility.yul\":2296:2301   */\n      dup2\n        /* \"#utility.yul\":2289:2302   */\n      iszero\n        /* \"#utility.yul\":2282:2303   */\n      iszero\n        /* \"#utility.yul\":2271:2303   */\n      swap1\n      pop\n        /* \"#utility.yul\":2219:2309   */\n      swap2\n      swap1\n      pop\n      jump\t// out\n        /* \"#utility.yul\":2315:2424   */\n    tag_285:\n        /* \"#utility.yul\":2396:2417   */\n      tag_352\n        /* \"#utility.yul\":2411:2416   */\n      dup2\n        /* \"#utility.yul\":2396:2417   */\n      tag_284\n      jump\t// in\n    tag_352:\n        /* \"#utility.yul\":2391:2394   */\n      dup3\n        /* \"#utility.yul\":2384:2418   */\n      mstore\n        /* \"#utility.yul\":2315:2424   */\n      pop\n      pop\n      jump\t// out\n        /* \"#utility.yul\":2430:3082   */\n    tag_57:\n        /* \"#utility.yul\":2629:2633   */\n      0x00\n        /* \"#utility.yul\":2667:2670   */\n      0xa0\n        /* \"#utility.yul\":2656:2665   */\n      dup3\n        /* \"#utility.yul\":2652:2671   */\n      add\n        /* \"#utility.yul\":2644:2671   */\n      swap1\n      pop\n        /* \"#utility.yul\":2681:2752   */\n      tag_354\n        /* \"#utility.yul\":2749:2750   */\n      0x00\n        /* \"#utility.yul\":2738:2747   */\n      dup4\n        /* \"#utility.yul\":2734:2751   */\n      add\n        /* \"#utility.yul\":2725:2731   */\n      dup9\n        /* \"#utility.yul\":2681:2752   */\n      tag_274\n      jump\t// in\n    tag_354:\n        /* \"#utility.yul\":2762:2834   */\n      tag_355\n        /* \"#utility.yul\":2830:2832   */\n      0x20\n        /* \"#utility.yul\":2819:2828   */\n      dup4\n        /* \"#utility.yul\":2815:2833   */\n      add\n        /* \"#utility.yul\":2806:2812   */\n      dup8\n        /* \"#utility.yul\":2762:2834   */\n      tag_274\n      jump\t// in\n    tag_355:\n        /* \"#utility.yul\":2844:2910   */\n      tag_356\n        /* \"#utility.yul\":2906:2908   */\n      0x40\n        /* \"#utility.yul\":2895:2904   */\n      dup4\n        /* \"#utility.yul\":2891:2909   */\n      add\n        /* \"#utility.yul\":2882:2888   */\n      dup7\n        /* \"#utility.yul\":2844:2910   */\n      tag_285\n      jump\t// in\n    tag_356:\n        /* \"#utility.yul\":2920:2992   */\n      tag_357\n        /* \"#utility.yul\":2988:2990   */\n      0x60\n        /* \"#utility.yul\":2977:2986   */\n      dup4\n        /* \"#utility.yul\":2973:2991   */\n      add\n        /* \"#utility.yul\":2964:2970   */\n      dup6\n        /* \"#utility.yul\":2920:2992   */\n      tag_274\n      jump\t// in\n    tag_357:\n        /* \"#utility.yul\":3002:3075   */\n      tag_358\n        /* \"#utility.yul\":3070:3073   */\n      0x80\n        /* \"#utility.yul\":3059:3068   */\n      dup4\n        /* \"#utility.yul\":3055:3074   */\n      add\n        /* \"#utility.yul\":3046:3052   */\n      dup5\n        /* \"#utility.yul\":3002:3075   */\n      tag_274\n      jump\t// in\n    tag_358:\n        /* \"#utility.yul\":2430:3082   */\n      swap7\n      swap6\n      pop\n      pop\n      pop\n      pop\n      pop\n      pop\n      jump\t// out\n        /* \"#utility.yul\":3088:3206   */\n    tag_286:\n        /* \"#utility.yul\":3175:3199   */\n      tag_360\n        /* \"#utility.yul\":3193:3198   */\n      dup2\n        /* \"#utility.yul\":3175:3199   */\n      tag_279\n      jump\t// in\n    tag_360:\n        /* \"#utility.yul\":3170:3173   */\n      dup3\n        /* \"#utility.yul\":3163:3200   */\n      mstore\n        /* \"#utility.yul\":3088:3206   */\n      pop\n      pop\n      jump\t// out\n        /* \"#utility.yul\":3212:3434   */\n    tag_75:\n        /* \"#utility.yul\":3305:3309   */\n      0x00\n        /* \"#utility.yul\":3343:3345   */\n      0x20\n        /* \"#utility.yul\":3332:3341   */\n      dup3\n        /* \"#utility.yul\":3328:3346   */\n      add\n        /* \"#utility.yul\":3320:3346   */\n      swap1\n      pop\n        /* \"#utility.yul\":3356:3427   */\n      tag_362\n        /* \"#utility.yul\":3424:3425   */\n      0x00\n        /* \"#utility.yul\":3413:3422   */\n      dup4\n        /* \"#utility.yul\":3409:3426   */\n      add\n        /* \"#utility.yul\":3400:3406   */\n      dup5\n        /* \"#utility.yul\":3356:3427   */\n      tag_286\n      jump\t// in\n    tag_362:\n        /* \"#utility.yul\":3212:3434   */\n      swap3\n      swap2\n      pop\n      pop\n      jump\t// out\n        /* \"#utility.yul\":3440:3500   */\n    tag_287:\n        /* \"#utility.yul\":3468:3471   */\n      0x00\n        /* \"#utility.yul\":3489:3494   */\n      dup2\n        /* \"#utility.yul\":3482:3494   */\n      swap1\n      pop\n        /* \"#utility.yul\":3440:3500   */\n      swap2\n      swap1\n      pop\n      jump\t// out\n        /* \"#utility.yul\":3506:3648   */\n    tag_288:\n        /* \"#utility.yul\":3556:3565   */\n      0x00\n        /* \"#utility.yul\":3589:3642   */\n      tag_365\n        /* \"#utility.yul\":3607:3641   */\n      tag_366\n        /* \"#utility.yul\":3616:3640   */\n      tag_367\n        /* \"#utility.yul\":3634:3639   */\n      dup5\n        /* \"#utility.yul\":3616:3640   */\n      tag_278\n      jump\t// in\n    tag_367:\n        /* \"#utility.yul\":3607:3641   */\n      tag_287\n      jump\t// in\n    tag_366:\n        /* \"#utility.yul\":3589:3642   */\n      tag_278\n      jump\t// in\n    tag_365:\n        /* \"#utility.yul\":3576:3642   */\n      swap1\n      pop\n        /* \"#utility.yul\":3506:3648   */\n      swap2\n      swap1\n      pop\n      jump\t// out\n        /* \"#utility.yul\":3654:3780   */\n    tag_289:\n        /* \"#utility.yul\":3704:3713   */\n      0x00\n        /* \"#utility.yul\":3737:3774   */\n      tag_369\n        /* \"#utility.yul\":3768:3773   */\n      dup3\n        /* \"#utility.yul\":3737:3774   */\n      tag_288\n      jump\t// in\n    tag_369:\n        /* \"#utility.yul\":3724:3774   */\n      swap1\n      pop\n        /* \"#utility.yul\":3654:3780   */\n      swap2\n      swap1\n      pop\n      jump\t// out\n        /* \"#utility.yul\":3786:3926   */\n    tag_290:\n        /* \"#utility.yul\":3850:3859   */\n      0x00\n        /* \"#utility.yul\":3883:3920   */\n      tag_371\n        /* \"#utility.yul\":3914:3919   */\n      dup3\n        /* \"#utility.yul\":3883:3920   */\n      tag_289\n      jump\t// in\n    tag_371:\n        /* \"#utility.yul\":3870:3920   */\n      swap1\n      pop\n        /* \"#utility.yul\":3786:3926   */\n      swap2\n      swap1\n      pop\n      jump\t// out\n        /* \"#utility.yul\":3932:4091   */\n    tag_291:\n        /* \"#utility.yul\":4033:4084   */\n      tag_373\n        /* \"#utility.yul\":4078:4083   */\n      dup2\n        /* \"#utility.yul\":4033:4084   */\n      tag_290\n      jump\t// in\n    tag_373:\n        /* \"#utility.yul\":4028:4031   */\n      dup3\n        /* \"#utility.yul\":4021:4085   */\n      mstore\n        /* \"#utility.yul\":3932:4091   */\n      pop\n      pop\n      jump\t// out\n        /* \"#utility.yul\":4097:4347   */\n    tag_113:\n        /* \"#utility.yul\":4204:4208   */\n      0x00\n        /* \"#utility.yul\":4242:4244   */\n      0x20\n        /* \"#utility.yul\":4231:4240   */\n      dup3\n        /* \"#utility.yul\":4227:4245   */\n      add\n        /* \"#utility.yul\":4219:4245   */\n      swap1\n      pop\n        /* \"#utility.yul\":4255:4340   */\n      tag_375\n        /* \"#utility.yul\":4337:4338   */\n      0x00\n        /* \"#utility.yul\":4326:4335   */\n      dup4\n        /* \"#utility.yul\":4322:4339   */\n      add\n        /* \"#utility.yul\":4313:4319   */\n      dup5\n        /* \"#utility.yul\":4255:4340   */\n      tag_291\n      jump\t// in\n    tag_375:\n        /* \"#utility.yul\":4097:4347   */\n      swap3\n      swap2\n      pop\n      pop\n      jump\t// out\n        /* \"#utility.yul\":4353:4522   */\n    tag_292:\n        /* \"#utility.yul\":4437:4448   */\n      0x00\n        /* \"#utility.yul\":4471:4477   */\n      dup3\n        /* \"#utility.yul\":4466:4469   */\n      dup3\n        /* \"#utility.yul\":4459:4478   */\n      mstore\n        /* \"#utility.yul\":4511:4515   */\n      0x20\n        /* \"#utility.yul\":4506:4509   */\n      dup3\n        /* \"#utility.yul\":4502:4516   */\n      add\n        /* \"#utility.yul\":4487:4516   */\n      swap1\n      pop\n        /* \"#utility.yul\":4353:4522   */\n      swap3\n      swap2\n      pop\n      pop\n      jump\t// out\n        /* \"#utility.yul\":4528:4700   */\n    tag_293:\n        /* \"#utility.yul\":4668:4692   */\n      0x4163636f756e7420646f6573206e6f7420657869737400000000000000000000\n        /* \"#utility.yul\":4664:4665   */\n      0x00\n        /* \"#utility.yul\":4656:4662   */\n      dup3\n        /* \"#utility.yul\":4652:4666   */\n      add\n        /* \"#utility.yul\":4645:4693   */\n      mstore\n        /* \"#utility.yul\":4528:4700   */\n      pop\n      jump\t// out\n        /* \"#utility.yul\":4706:5072   */\n    tag_294:\n        /* \"#utility.yul\":4848:4851   */\n      0x00\n        /* \"#utility.yul\":4869:4936   */\n      tag_379\n        /* \"#utility.yul\":4933:4935   */\n      0x16\n        /* \"#utility.yul\":4928:4931   */\n      dup4\n        /* \"#utility.yul\":4869:4936   */\n      tag_292\n      jump\t// in\n    tag_379:\n        /* \"#utility.yul\":4862:4936   */\n      swap2\n      pop\n        /* \"#utility.yul\":4945:5038   */\n      tag_380\n        /* \"#utility.yul\":5034:5037   */\n      dup3\n        /* \"#utility.yul\":4945:5038   */\n      tag_293\n      jump\t// in\n    tag_380:\n        /* \"#utility.yul\":5063:5065   */\n      0x20\n        /* \"#utility.yul\":5058:5061   */\n      dup3\n        /* \"#utility.yul\":5054:5066   */\n      add\n        /* \"#utility.yul\":5047:5066   */\n      swap1\n      pop\n        /* \"#utility.yul\":4706:5072   */\n      swap2\n      swap1\n      pop\n      jump\t// out\n        /* \"#utility.yul\":5078:5497   */\n    tag_117:\n        /* \"#utility.yul\":5244:5248   */\n      0x00\n        /* \"#utility.yul\":5282:5284   */\n      0x20\n        /* \"#utility.yul\":5271:5280   */\n      dup3\n        /* \"#utility.yul\":5267:5285   */\n      add\n        /* \"#utility.yul\":5259:5285   */\n      swap1\n      pop\n        /* \"#utility.yul\":5331:5340   */\n      dup2\n        /* \"#utility.yul\":5325:5329   */\n      dup2\n        /* \"#utility.yul\":5321:5341   */\n      sub\n        /* \"#utility.yul\":5317:5318   */\n      0x00\n        /* \"#utility.yul\":5306:5315   */\n      dup4\n        /* \"#utility.yul\":5302:5319   */\n      add\n        /* \"#utility.yul\":5295:5342   */\n      mstore\n        /* \"#utility.yul\":5359:5490   */\n      tag_382\n        /* \"#utility.yul\":5485:5489   */\n      dup2\n        /* \"#utility.yul\":5359:5490   */\n      tag_294\n      jump\t// in\n    tag_382:\n        /* \"#utility.yul\":5351:5490   */\n      swap1\n      pop\n        /* \"#utility.yul\":5078:5497   */\n      swap2\n      swap1\n      pop\n      jump\t// out\n        /* \"#utility.yul\":5503:5681   */\n    tag_295:\n        /* \"#utility.yul\":5643:5673   */\n      0x546f6b656e20616464726573732063616e6e6f74206265207a65726f00000000\n        /* \"#utility.yul\":5639:5640   */\n      0x00\n        /* \"#utility.yul\":5631:5637   */\n      dup3\n        /* \"#utility.yul\":5627:5641   */\n      add\n        /* \"#utility.yul\":5620:5674   */\n      mstore\n        /* \"#utility.yul\":5503:5681   */\n      pop\n      jump\t// out\n        /* \"#utility.yul\":5687:6053   */\n    tag_296:\n        /* \"#utility.yul\":5829:5832   */\n      0x00\n        /* \"#utility.yul\":5850:5917   */\n      tag_385\n        /* \"#utility.yul\":5914:5916   */\n      0x1c\n        /* \"#utility.yul\":5909:5912   */\n      dup4\n        /* \"#utility.yul\":5850:5917   */\n      tag_292\n      jump\t// in\n    tag_385:\n        /* \"#utility.yul\":5843:5917   */\n      swap2\n      pop\n        /* \"#utility.yul\":5926:6019   */\n      tag_386\n        /* \"#utility.yul\":6015:6018   */\n      dup3\n        /* \"#utility.yul\":5926:6019   */\n      tag_295\n      jump\t// in\n    tag_386:\n        /* \"#utility.yul\":6044:6046   */\n      0x20\n        /* \"#utility.yul\":6039:6042   */\n      dup3\n        /* \"#utility.yul\":6035:6047   */\n      add\n        /* \"#utility.yul\":6028:6047   */\n      swap1\n      pop\n        /* \"#utility.yul\":5687:6053   */\n      swap2\n      swap1\n      pop\n      jump\t// out\n        /* \"#utility.yul\":6059:6478   */\n    tag_124:\n        /* \"#utility.yul\":6225:6229   */\n      0x00\n        /* \"#utility.yul\":6263:6265   */\n      0x20\n        /* \"#utility.yul\":6252:6261   */\n      dup3\n        /* \"#utility.yul\":6248:6266   */\n      add\n        /* \"#utility.yul\":6240:6266   */\n      swap1\n      pop\n        /* \"#utility.yul\":6312:6321   */\n      dup2\n        /* \"#utility.yul\":6306:6310   */\n      dup2\n        /* \"#utility.yul\":6302:6322   */\n      sub\n        /* \"#utility.yul\":6298:6299   */\n      0x00\n        /* \"#utility.yul\":6287:6296   */\n      dup4\n        /* \"#utility.yul\":6283:6300   */\n      add\n        /* \"#utility.yul\":6276:6323   */\n      mstore\n        /* \"#utility.yul\":6340:6471   */\n      tag_388\n        /* \"#utility.yul\":6466:6470   */\n      dup2\n        /* \"#utility.yul\":6340:6471   */\n      tag_296\n      jump\t// in\n    tag_388:\n        /* \"#utility.yul\":6332:6471   */\n      swap1\n      pop\n        /* \"#utility.yul\":6059:6478   */\n      swap2\n      swap1\n      pop\n      jump\t// out\n        /* \"#utility.yul\":6484:6654   */\n    tag_297:\n        /* \"#utility.yul\":6624:6646   */\n      0x496e73756666696369656e742062616c616e6365000000000000000000000000\n        /* \"#utility.yul\":6620:6621   */\n      0x00\n        /* \"#utility.yul\":6612:6618   */\n      dup3\n        /* \"#utility.yul\":6608:6622   */\n      add\n        /* \"#utility.yul\":6601:6647   */\n      mstore\n        /* \"#utility.yul\":6484:6654   */\n      pop\n      jump\t// out\n        /* \"#utility.yul\":6660:7026   */\n    tag_298:\n        /* \"#utility.yul\":6802:6805   */\n      0x00\n        /* \"#utility.yul\":6823:6890   */\n      tag_391\n        /* \"#utility.yul\":6887:6889   */\n      0x14\n        /* \"#utility.yul\":6882:6885   */\n      dup4\n        /* \"#utility.yul\":6823:6890   */\n      tag_292\n      jump\t// in\n    tag_391:\n        /* \"#utility.yul\":6816:6890   */\n      swap2\n      pop\n        /* \"#utility.yul\":6899:6992   */\n      tag_392\n        /* \"#utility.yul\":6988:6991   */\n      dup3\n        /* \"#utility.yul\":6899:6992   */\n      tag_297\n      jump\t// in\n    tag_392:\n        /* \"#utility.yul\":7017:7019   */\n      0x20\n        /* \"#utility.yul\":7012:7015   */\n      dup3\n        /* \"#utility.yul\":7008:7020   */\n      add\n        /* \"#utility.yul\":7001:7020   */\n      swap1\n      pop\n        /* \"#utility.yul\":6660:7026   */\n      swap2\n      swap1\n      pop\n      jump\t// out\n        /* \"#utility.yul\":7032:7451   */\n    tag_134:\n        /* \"#utility.yul\":7198:7202   */\n      0x00\n        /* \"#utility.yul\":7236:7238   */\n      0x20\n        /* \"#utility.yul\":7225:7234   */\n      dup3\n        /* \"#utility.yul\":7221:7239   */\n      add\n        /* \"#utility.yul\":7213:7239   */\n      swap1\n      pop\n        /* \"#utility.yul\":7285:7294   */\n      dup2\n        /* \"#utility.yul\":7279:7283   */\n      dup2\n        /* \"#utility.yul\":7275:7295   */\n      sub\n        /* \"#utility.yul\":7271:7272   */\n      0x00\n        /* \"#utility.yul\":7260:7269   */\n      dup4\n        /* \"#utility.yul\":7256:7273   */\n      add\n        /* \"#utility.yul\":7249:7296   */\n      mstore\n        /* \"#utility.yul\":7313:7444   */\n      tag_394\n        /* \"#utility.yul\":7439:7443   */\n      dup2\n        /* \"#utility.yul\":7313:7444   */\n      tag_298\n      jump\t// in\n    tag_394:\n        /* \"#utility.yul\":7305:7444   */\n      swap1\n      pop\n        /* \"#utility.yul\":7032:7451   */\n      swap2\n      swap1\n      pop\n      jump\t// out\n        /* \"#utility.yul\":7457:7637   */\n    tag_299:\n        /* \"#utility.yul\":7597:7629   */\n      0x43616e6e6f7420657863656564207769746864726177616c206c696d69740000\n        /* \"#utility.yul\":7593:7594   */\n      0x00\n        /* \"#utility.yul\":7585:7591   */\n      dup3\n        /* \"#utility.yul\":7581:7595   */\n      add\n        /* \"#utility.yul\":7574:7630   */\n      mstore\n        /* \"#utility.yul\":7457:7637   */\n      pop\n      jump\t// out\n        /* \"#utility.yul\":7643:8009   */\n    tag_300:\n        /* \"#utility.yul\":7785:7788   */\n      0x00\n        /* \"#utility.yul\":7806:7873   */\n      tag_397\n        /* \"#utility.yul\":7870:7872   */\n      0x1e\n        /* \"#utility.yul\":7865:7868   */\n      dup4\n        /* \"#utility.yul\":7806:7873   */\n      tag_292\n      jump\t// in\n    tag_397:\n        /* \"#utility.yul\":7799:7873   */\n      swap2\n      pop\n        /* \"#utility.yul\":7882:7975   */\n      tag_398\n        /* \"#utility.yul\":7971:7974   */\n      dup3\n        /* \"#utility.yul\":7882:7975   */\n      tag_299\n      jump\t// in\n    tag_398:\n        /* \"#utility.yul\":8000:8002   */\n      0x20\n        /* \"#utility.yul\":7995:7998   */\n      dup3\n        /* \"#utility.yul\":7991:8003   */\n      add\n        /* \"#utility.yul\":7984:8003   */\n      swap1\n      pop\n        /* \"#utility.yul\":7643:8009   */\n      swap2\n      swap1\n      pop\n      jump\t// out\n        /* \"#utility.yul\":8015:8434   */\n    tag_137:\n        /* \"#utility.yul\":8181:8185   */\n      0x00\n        /* \"#utility.yul\":8219:8221   */\n      0x20\n        /* \"#utility.yul\":8208:8217   */\n      dup3\n        /* \"#utility.yul\":8204:8222   */\n      add\n        /* \"#utility.yul\":8196:8222   */\n      swap1\n      pop\n        /* \"#utility.yul\":8268:8277   */\n      dup2\n        /* \"#utility.yul\":8262:8266   */\n      dup2\n        /* \"#utility.yul\":8258:8278   */\n      sub\n        /* \"#utility.yul\":8254:8255   */\n      0x00\n        /* \"#utility.yul\":8243:8252   */\n      dup4\n        /* \"#utility.yul\":8239:8256   */\n      add\n        /* \"#utility.yul\":8232:8279   */\n      mstore\n        /* \"#utility.yul\":8296:8427   */\n      tag_400\n        /* \"#utility.yul\":8422:8426   */\n      dup2\n        /* \"#utility.yul\":8296:8427   */\n      tag_300\n      jump\t// in\n    tag_400:\n        /* \"#utility.yul\":8288:8427   */\n      swap1\n      pop\n        /* \"#utility.yul\":8015:8434   */\n      swap2\n      swap1\n      pop\n      jump\t// out\n        /* \"#utility.yul\":8440:8620   */\n    tag_301:\n        /* \"#utility.yul\":8488:8565   */\n      0x4e487b7100000000000000000000000000000000000000000000000000000000\n        /* \"#utility.yul\":8485:8486   */\n      0x00\n        /* \"#utility.yul\":8478:8566   */\n      mstore\n        /* \"#utility.yul\":8585:8589   */\n      0x11\n        /* \"#utility.yul\":8582:8583   */\n      0x04\n        /* \"#utility.yul\":8575:8590   */\n      mstore\n        /* \"#utility.yul\":8609:8613   */\n      0x24\n        /* \"#utility.yul\":8606:8607   */\n      0x00\n        /* \"#utility.yul\":8599:8614   */\n      revert\n        /* \"#utility.yul\":8626:8817   */\n    tag_139:\n        /* \"#utility.yul\":8666:8669   */\n      0x00\n        /* \"#utility.yul\":8685:8705   */\n      tag_403\n        /* \"#utility.yul\":8703:8704   */\n      dup3\n        /* \"#utility.yul\":8685:8705   */\n      tag_273\n      jump\t// in\n    tag_403:\n        /* \"#utility.yul\":8680:8705   */\n      swap2\n      pop\n        /* \"#utility.yul\":8719:8739   */\n      tag_404\n        /* \"#utility.yul\":8737:8738   */\n      dup4\n        /* \"#utility.yul\":8719:8739   */\n      tag_273\n      jump\t// in\n    tag_404:\n        /* \"#utility.yul\":8714:8739   */\n      swap3\n      pop\n        /* \"#utility.yul\":8762:8763   */\n      dup3\n        /* \"#utility.yul\":8759:8760   */\n      dup3\n        /* \"#utility.yul\":8755:8764   */\n      add\n        /* \"#utility.yul\":8748:8764   */\n      swap1\n      pop\n        /* \"#utility.yul\":8783:8786   */\n      dup1\n        /* \"#utility.yul\":8780:8781   */\n      dup3\n        /* \"#utility.yul\":8777:8787   */\n      gt\n        /* \"#utility.yul\":8774:8810   */\n      iszero\n      tag_405\n      jumpi\n        /* \"#utility.yul\":8790:8808   */\n      tag_406\n      tag_301\n      jump\t// in\n    tag_406:\n        /* \"#utility.yul\":8774:8810   */\n    tag_405:\n        /* \"#utility.yul\":8626:8817   */\n      swap3\n      swap2\n      pop\n      pop\n      jump\t// out\n        /* \"#utility.yul\":8823:8989   */\n    tag_302:\n        /* \"#utility.yul\":8963:8981   */\n      0x46756e647320617265206c6f636b656400000000000000000000000000000000\n        /* \"#utility.yul\":8959:8960   */\n      0x00\n        /* \"#utility.yul\":8951:8957   */\n      dup3\n        /* \"#utility.yul\":8947:8961   */\n      add\n        /* \"#utility.yul\":8940:8982   */\n      mstore\n        /* \"#utility.yul\":8823:8989   */\n      pop\n      jump\t// out\n        /* \"#utility.yul\":8995:9361   */\n    tag_303:\n        /* \"#utility.yul\":9137:9140   */\n      0x00\n        /* \"#utility.yul\":9158:9225   */\n      tag_409\n        /* \"#utility.yul\":9222:9224   */\n      0x10\n        /* \"#utility.yul\":9217:9220   */\n      dup4\n        /* \"#utility.yul\":9158:9225   */\n      tag_292\n      jump\t// in\n    tag_409:\n        /* \"#utility.yul\":9151:9225   */\n      swap2\n      pop\n        /* \"#utility.yul\":9234:9327   */\n      tag_410\n        /* \"#utility.yul\":9323:9326   */\n      dup3\n        /* \"#utility.yul\":9234:9327   */\n      tag_302\n      jump\t// in\n    tag_410:\n        /* \"#utility.yul\":9352:9354   */\n      0x20\n        /* \"#utility.yul\":9347:9350   */\n      dup3\n        /* \"#utility.yul\":9343:9355   */\n      add\n        /* \"#utility.yul\":9336:9355   */\n      swap1\n      pop\n        /* \"#utility.yul\":8995:9361   */\n      swap2\n      swap1\n      pop\n      jump\t// out\n        /* \"#utility.yul\":9367:9786   */\n    tag_142:\n        /* \"#utility.yul\":9533:9537   */\n      0x00\n        /* \"#utility.yul\":9571:9573   */\n      0x20\n        /* \"#utility.yul\":9560:9569   */\n      dup3\n        /* \"#utility.yul\":9556:9574   */\n      add\n        /* \"#utility.yul\":9548:9574   */\n      swap1\n      pop\n        /* \"#utility.yul\":9620:9629   */\n      dup2\n        /* \"#utility.yul\":9614:9618   */\n      dup2\n        /* \"#utility.yul\":9610:9630   */\n      sub\n        /* \"#utility.yul\":9606:9607   */\n      0x00\n        /* \"#utility.yul\":9595:9604   */\n      dup4\n        /* \"#utility.yul\":9591:9608   */\n      add\n        /* \"#utility.yul\":9584:9631   */\n      mstore\n        /* \"#utility.yul\":9648:9779   */\n      tag_412\n        /* \"#utility.yul\":9774:9778   */\n      dup2\n        /* \"#utility.yul\":9648:9779   */\n      tag_303\n      jump\t// in\n    tag_412:\n        /* \"#utility.yul\":9640:9779   */\n      swap1\n      pop\n        /* \"#utility.yul\":9367:9786   */\n      swap2\n      swap1\n      pop\n      jump\t// out\n        /* \"#utility.yul\":9792:10202   */\n    tag_144:\n        /* \"#utility.yul\":9832:9839   */\n      0x00\n        /* \"#utility.yul\":9855:9875   */\n      tag_414\n        /* \"#utility.yul\":9873:9874   */\n      dup3\n        /* \"#utility.yul\":9855:9875   */\n      tag_273\n      jump\t// in\n    tag_414:\n        /* \"#utility.yul\":9850:9875   */\n      swap2\n      pop\n        /* \"#utility.yul\":9889:9909   */\n      tag_415\n        /* \"#utility.yul\":9907:9908   */\n      dup4\n        /* \"#utility.yul\":9889:9909   */\n      tag_273\n      jump\t// in\n    tag_415:\n        /* \"#utility.yul\":9884:9909   */\n      swap3\n      pop\n        /* \"#utility.yul\":9944:9945   */\n      dup3\n        /* \"#utility.yul\":9941:9942   */\n      dup3\n        /* \"#utility.yul\":9937:9946   */\n      mul\n        /* \"#utility.yul\":9966:9996   */\n      tag_416\n        /* \"#utility.yul\":9984:9995   */\n      dup2\n        /* \"#utility.yul\":9966:9996   */\n      tag_273\n      jump\t// in\n    tag_416:\n        /* \"#utility.yul\":9955:9996   */\n      swap2\n      pop\n        /* \"#utility.yul\":10145:10146   */\n      dup3\n        /* \"#utility.yul\":10136:10143   */\n      dup3\n        /* \"#utility.yul\":10132:10147   */\n      div\n        /* \"#utility.yul\":10129:10130   */\n      dup5\n        /* \"#utility.yul\":10126:10148   */\n      eq\n        /* \"#utility.yul\":10106:10107   */\n      dup4\n        /* \"#utility.yul\":10099:10108   */\n      iszero\n        /* \"#utility.yul\":10079:10162   */\n      or\n        /* \"#utility.yul\":10056:10195   */\n      tag_417\n      jumpi\n        /* \"#utility.yul\":10175:10193   */\n      tag_418\n      tag_301\n      jump\t// in\n    tag_418:\n        /* \"#utility.yul\":10056:10195   */\n    tag_417:\n        /* \"#utility.yul\":9840:10202   */\n      pop\n        /* \"#utility.yul\":9792:10202   */\n      swap3\n      swap2\n      pop\n      pop\n      jump\t// out\n        /* \"#utility.yul\":10208:10388   */\n    tag_304:\n        /* \"#utility.yul\":10256:10333   */\n      0x4e487b7100000000000000000000000000000000000000000000000000000000\n        /* \"#utility.yul\":10253:10254   */\n      0x00\n        /* \"#utility.yul\":10246:10334   */\n      mstore\n        /* \"#utility.yul\":10353:10357   */\n      0x12\n        /* \"#utility.yul\":10350:10351   */\n      0x04\n        /* \"#utility.yul\":10343:10358   */\n      mstore\n        /* \"#utility.yul\":10377:10381   */\n      0x24\n        /* \"#utility.yul\":10374:10375   */\n      0x00\n        /* \"#utility.yul\":10367:10382   */\n      revert\n        /* \"#utility.yul\":10394:10579   */\n    tag_146:\n        /* \"#utility.yul\":10434:10435   */\n      0x00\n        /* \"#utility.yul\":10451:10471   */\n      tag_421\n        /* \"#utility.yul\":10469:10470   */\n      dup3\n        /* \"#utility.yul\":10451:10471   */\n      tag_273\n      jump\t// in\n    tag_421:\n        /* \"#utility.yul\":10446:10471   */\n      swap2\n      pop\n        /* \"#utility.yul\":10485:10505   */\n      tag_422\n        /* \"#utility.yul\":10503:10504   */\n      dup4\n        /* \"#utility.yul\":10485:10505   */\n      tag_273\n      jump\t// in\n    tag_422:\n        /* \"#utility.yul\":10480:10505   */\n      swap3\n      pop\n        /* \"#utility.yul\":10524:10525   */\n      dup3\n        /* \"#utility.yul\":10514:10549   */\n      tag_423\n      jumpi\n        /* \"#utility.yul\":10529:10547   */\n      tag_424\n      tag_304\n      jump\t// in\n    tag_424:\n        /* \"#utility.yul\":10514:10549   */\n    tag_423:\n        /* \"#utility.yul\":10571:10572   */\n      dup3\n        /* \"#utility.yul\":10568:10569   */\n      dup3\n        /* \"#utility.yul\":10564:10573   */\n      div\n        /* \"#utility.yul\":10559:10573   */\n      swap1\n      pop\n        /* \"#utility.yul\":10394:10579   */\n      swap3\n      swap2\n      pop\n      pop\n      jump\t// out\n        /* \"#utility.yul\":10585:10779   */\n    tag_148:\n        /* \"#utility.yul\":10625:10629   */\n      0x00\n        /* \"#utility.yul\":10645:10665   */\n      tag_426\n        /* \"#utility.yul\":10663:10664   */\n      dup3\n        /* \"#utility.yul\":10645:10665   */\n      tag_273\n      jump\t// in\n    tag_426:\n        /* \"#utility.yul\":10640:10665   */\n      swap2\n      pop\n        /* \"#utility.yul\":10679:10699   */\n      tag_427\n        /* \"#utility.yul\":10697:10698   */\n      dup4\n        /* \"#utility.yul\":10679:10699   */\n      tag_273\n      jump\t// in\n    tag_427:\n        /* \"#utility.yul\":10674:10699   */\n      swap3\n      pop\n        /* \"#utility.yul\":10723:10724   */\n      dup3\n        /* \"#utility.yul\":10720:10721   */\n      dup3\n        /* \"#utility.yul\":10716:10725   */\n      sub\n        /* \"#utility.yul\":10708:10725   */\n      swap1\n      pop\n        /* \"#utility.yul\":10747:10748   */\n      dup2\n        /* \"#utility.yul\":10741:10745   */\n      dup2\n        /* \"#utility.yul\":10738:10749   */\n      gt\n        /* \"#utility.yul\":10735:10772   */\n      iszero\n      tag_428\n      jumpi\n        /* \"#utility.yul\":10752:10770   */\n      tag_429\n      tag_301\n      jump\t// in\n    tag_429:\n        /* \"#utility.yul\":10735:10772   */\n    tag_428:\n        /* \"#utility.yul\":10585:10779   */\n      swap3\n      swap2\n      pop\n      pop\n      jump\t// out\n        /* \"#utility.yul\":10785:11117   */\n    tag_154:\n        /* \"#utility.yul\":10906:10910   */\n      0x00\n        /* \"#utility.yul\":10944:10946   */\n      0x40\n        /* \"#utility.yul\":10933:10942   */\n      dup3\n        /* \"#utility.yul\":10929:10947   */\n      add\n        /* \"#utility.yul\":10921:10947   */\n      swap1\n      pop\n        /* \"#utility.yul\":10957:11028   */\n      tag_431\n        /* \"#utility.yul\":11025:11026   */\n      0x00\n        /* \"#utility.yul\":11014:11023   */\n      dup4\n        /* \"#utility.yul\":11010:11027   */\n      add\n        /* \"#utility.yul\":11001:11007   */\n      dup6\n        /* \"#utility.yul\":10957:11028   */\n      tag_286\n      jump\t// in\n    tag_431:\n        /* \"#utility.yul\":11038:11110   */\n      tag_432\n        /* \"#utility.yul\":11106:11108   */\n      0x20\n        /* \"#utility.yul\":11095:11104   */\n      dup4\n        /* \"#utility.yul\":11091:11109   */\n      add\n        /* \"#utility.yul\":11082:11088   */\n      dup5\n        /* \"#utility.yul\":11038:11110   */\n      tag_274\n      jump\t// in\n    tag_432:\n        /* \"#utility.yul\":10785:11117   */\n      swap4\n      swap3\n      pop\n      pop\n      pop\n      jump\t// out\n        /* \"#utility.yul\":11123:11239   */\n    tag_305:\n        /* \"#utility.yul\":11193:11214   */\n      tag_434\n        /* \"#utility.yul\":11208:11213   */\n      dup2\n        /* \"#utility.yul\":11193:11214   */\n      tag_284\n      jump\t// in\n    tag_434:\n        /* \"#utility.yul\":11186:11191   */\n      dup2\n        /* \"#utility.yul\":11183:11215   */\n      eq\n        /* \"#utility.yul\":11173:11233   */\n      tag_435\n      jumpi\n        /* \"#utility.yul\":11229:11230   */\n      0x00\n        /* \"#utility.yul\":11226:11227   */\n      0x00\n        /* \"#utility.yul\":11219:11231   */\n      revert\n        /* \"#utility.yul\":11173:11233   */\n    tag_435:\n        /* \"#utility.yul\":11123:11239   */\n      pop\n      jump\t// out\n        /* \"#utility.yul\":11245:11382   */\n    tag_306:\n        /* \"#utility.yul\":11299:11304   */\n      0x00\n        /* \"#utility.yul\":11330:11336   */\n      dup2\n        /* \"#utility.yul\":11324:11337   */\n      mload\n        /* \"#utility.yul\":11315:11337   */\n      swap1\n      pop\n        /* \"#utility.yul\":11346:11376   */\n      tag_437\n        /* \"#utility.yul\":11370:11375   */\n      dup2\n        /* \"#utility.yul\":11346:11376   */\n      tag_305\n      jump\t// in\n    tag_437:\n        /* \"#utility.yul\":11245:11382   */\n      swap3\n      swap2\n      pop\n      pop\n      jump\t// out\n        /* \"#utility.yul\":11388:11733   */\n    tag_158:\n        /* \"#utility.yul\":11455:11461   */\n      0x00\n        /* \"#utility.yul\":11504:11506   */\n      0x20\n        /* \"#utility.yul\":11492:11501   */\n      dup3\n        /* \"#utility.yul\":11483:11490   */\n      dup5\n        /* \"#utility.yul\":11479:11502   */\n      sub\n        /* \"#utility.yul\":11475:11507   */\n      slt\n        /* \"#utility.yul\":11472:11591   */\n      iszero\n      tag_439\n      jumpi\n        /* \"#utility.yul\":11510:11589   */\n      tag_440\n      tag_276\n      jump\t// in\n    tag_440:\n        /* \"#utility.yul\":11472:11591   */\n    tag_439:\n        /* \"#utility.yul\":11630:11631   */\n      0x00\n        /* \"#utility.yul\":11655:11716   */\n      tag_441\n        /* \"#utility.yul\":11708:11715   */\n      dup5\n        /* \"#utility.yul\":11699:11705   */\n      dup3\n        /* \"#utility.yul\":11688:11697   */\n      dup6\n        /* \"#utility.yul\":11684:11706   */\n      add\n        /* \"#utility.yul\":11655:11716   */\n      tag_306\n      jump\t// in\n    tag_441:\n        /* \"#utility.yul\":11645:11716   */\n      swap2\n      pop\n        /* \"#utility.yul\":11601:11726   */\n      pop\n        /* \"#utility.yul\":11388:11733   */\n      swap3\n      swap2\n      pop\n      pop\n      jump\t// out\n        /* \"#utility.yul\":11739:11910   */\n    tag_307:\n        /* \"#utility.yul\":11879:11902   */\n      0x546f6b656e207472616e73666572206661696c65640000000000000000000000\n        /* \"#utility.yul\":11875:11876   */\n      0x00\n        /* \"#utility.yul\":11867:11873   */\n      dup3\n        /* \"#utility.yul\":11863:11877   */\n      add\n        /* \"#utility.yul\":11856:11903   */\n      mstore\n        /* \"#utility.yul\":11739:11910   */\n      pop\n      jump\t// out\n        /* \"#utility.yul\":11916:12282   */\n    tag_308:\n        /* \"#utility.yul\":12058:12061   */\n      0x00\n        /* \"#utility.yul\":12079:12146   */\n      tag_444\n        /* \"#utility.yul\":12143:12145   */\n      0x15\n        /* \"#utility.yul\":12138:12141   */\n      dup4\n        /* \"#utility.yul\":12079:12146   */\n      tag_292\n      jump\t// in\n    tag_444:\n        /* \"#utility.yul\":12072:12146   */\n      swap2\n      pop\n        /* \"#utility.yul\":12155:12248   */\n      tag_445\n        /* \"#utility.yul\":12244:12247   */\n      dup3\n        /* \"#utility.yul\":12155:12248   */\n      tag_307\n      jump\t// in\n    tag_445:\n        /* \"#utility.yul\":12273:12275   */\n      0x20\n        /* \"#utility.yul\":12268:12271   */\n      dup3\n        /* \"#utility.yul\":12264:12276   */\n      add\n        /* \"#utility.yul\":12257:12276   */\n      swap1\n      pop\n        /* \"#utility.yul\":11916:12282   */\n      swap2\n      swap1\n      pop\n      jump\t// out\n        /* \"#utility.yul\":12288:12707   */\n    tag_161:\n        /* \"#utility.yul\":12454:12458   */\n      0x00\n        /* \"#utility.yul\":12492:12494   */\n      0x20\n        /* \"#utility.yul\":12481:12490   */\n      dup3\n        /* \"#utility.yul\":12477:12495   */\n      add\n        /* \"#utility.yul\":12469:12495   */\n      swap1\n      pop\n        /* \"#utility.yul\":12541:12550   */\n      dup2\n        /* \"#utility.yul\":12535:12539   */\n      dup2\n        /* \"#utility.yul\":12531:12551   */\n      sub\n        /* \"#utility.yul\":12527:12528   */\n      0x00\n        /* \"#utility.yul\":12516:12525   */\n      dup4\n        /* \"#utility.yul\":12512:12529   */\n      add\n        /* \"#utility.yul\":12505:12552   */\n      mstore\n        /* \"#utility.yul\":12569:12700   */\n      tag_447\n        /* \"#utility.yul\":12695:12699   */\n      dup2\n        /* \"#utility.yul\":12569:12700   */\n      tag_308\n      jump\t// in\n    tag_447:\n        /* \"#utility.yul\":12561:12700   */\n      swap1\n      pop\n        /* \"#utility.yul\":12288:12707   */\n      swap2\n      swap1\n      pop\n      jump\t// out\n        /* \"#utility.yul\":12713:13266   */\n    tag_163:\n        /* \"#utility.yul\":12890:12894   */\n      0x00\n        /* \"#utility.yul\":12928:12931   */\n      0x80\n        /* \"#utility.yul\":12917:12926   */\n      dup3\n        /* \"#utility.yul\":12913:12932   */\n      add\n        /* \"#utility.yul\":12905:12932   */\n      swap1\n      pop\n        /* \"#utility.yul\":12942:13013   */\n      tag_449\n        /* \"#utility.yul\":13010:13011   */\n      0x00\n        /* \"#utility.yul\":12999:13008   */\n      dup4\n        /* \"#utility.yul\":12995:13012   */\n      add\n        /* \"#utility.yul\":12986:12992   */\n      dup8\n        /* \"#utility.yul\":12942:13013   */\n      tag_274\n      jump\t// in\n    tag_449:\n        /* \"#utility.yul\":13023:13095   */\n      tag_450\n        /* \"#utility.yul\":13091:13093   */\n      0x20\n        /* \"#utility.yul\":13080:13089   */\n      dup4\n        /* \"#utility.yul\":13076:13094   */\n      add\n        /* \"#utility.yul\":13067:13073   */\n      dup7\n        /* \"#utility.yul\":13023:13095   */\n      tag_274\n      jump\t// in\n    tag_450:\n        /* \"#utility.yul\":13105:13177   */\n      tag_451\n        /* \"#utility.yul\":13173:13175   */\n      0x40\n        /* \"#utility.yul\":13162:13171   */\n      dup4\n        /* \"#utility.yul\":13158:13176   */\n      add\n        /* \"#utility.yul\":13149:13155   */\n      dup6\n        /* \"#utility.yul\":13105:13177   */\n      tag_274\n      jump\t// in\n    tag_451:\n        /* \"#utility.yul\":13187:13259   */\n      tag_452\n        /* \"#utility.yul\":13255:13257   */\n      0x60\n        /* \"#utility.yul\":13244:13253   */\n      dup4\n        /* \"#utility.yul\":13240:13258   */\n      add\n        /* \"#utility.yul\":13231:13237   */\n      dup5\n        /* \"#utility.yul\":13187:13259   */\n      tag_274\n      jump\t// in\n    tag_452:\n        /* \"#utility.yul\":12713:13266   */\n      swap6\n      swap5\n      pop\n      pop\n      pop\n      pop\n      pop\n      jump\t// out\n        /* \"#utility.yul\":13272:13415   */\n    tag_309:\n        /* \"#utility.yul\":13329:13334   */\n      0x00\n        /* \"#utility.yul\":13360:13366   */\n      dup2\n        /* \"#utility.yul\":13354:13367   */\n      mload\n        /* \"#utility.yul\":13345:13367   */\n      swap1\n      pop\n        /* \"#utility.yul\":13376:13409   */\n      tag_454\n        /* \"#utility.yul\":13403:13408   */\n      dup2\n        /* \"#utility.yul\":13376:13409   */\n      tag_282\n      jump\t// in\n    tag_454:\n        /* \"#utility.yul\":13272:13415   */\n      swap3\n      swap2\n      pop\n      pop\n      jump\t// out\n        /* \"#utility.yul\":13421:13772   */\n    tag_173:\n        /* \"#utility.yul\":13491:13497   */\n      0x00\n        /* \"#utility.yul\":13540:13542   */\n      0x20\n        /* \"#utility.yul\":13528:13537   */\n      dup3\n        /* \"#utility.yul\":13519:13526   */\n      dup5\n        /* \"#utility.yul\":13515:13538   */\n      sub\n        /* \"#utility.yul\":13511:13543   */\n      slt\n        /* \"#utility.yul\":13508:13627   */\n      iszero\n      tag_456\n      jumpi\n        /* \"#utility.yul\":13546:13625   */\n      tag_457\n      tag_276\n      jump\t// in\n    tag_457:\n        /* \"#utility.yul\":13508:13627   */\n    tag_456:\n        /* \"#utility.yul\":13666:13667   */\n      0x00\n        /* \"#utility.yul\":13691:13755   */\n      tag_458\n        /* \"#utility.yul\":13747:13754   */\n      dup5\n        /* \"#utility.yul\":13738:13744   */\n      dup3\n        /* \"#utility.yul\":13727:13736   */\n      dup6\n        /* \"#utility.yul\":13723:13745   */\n      add\n        /* \"#utility.yul\":13691:13755   */\n      tag_309\n      jump\t// in\n    tag_458:\n        /* \"#utility.yul\":13681:13755   */\n      swap2\n      pop\n        /* \"#utility.yul\":13637:13765   */\n      pop\n        /* \"#utility.yul\":13421:13772   */\n      swap3\n      swap2\n      pop\n      pop\n      jump\t// out\n        /* \"#utility.yul\":13778:13958   */\n    tag_176:\n        /* \"#utility.yul\":13826:13903   */\n      0x4e487b7100000000000000000000000000000000000000000000000000000000\n        /* \"#utility.yul\":13823:13824   */\n      0x00\n        /* \"#utility.yul\":13816:13904   */\n      mstore\n        /* \"#utility.yul\":13923:13927   */\n      0x41\n        /* \"#utility.yul\":13920:13921   */\n      0x04\n        /* \"#utility.yul\":13913:13928   */\n      mstore\n        /* \"#utility.yul\":13947:13951   */\n      0x24\n        /* \"#utility.yul\":13944:13945   */\n      0x00\n        /* \"#utility.yul\":13937:13952   */\n      revert\n        /* \"#utility.yul\":13964:14144   */\n    tag_183:\n        /* \"#utility.yul\":14012:14089   */\n      0x4e487b7100000000000000000000000000000000000000000000000000000000\n        /* \"#utility.yul\":14009:14010   */\n      0x00\n        /* \"#utility.yul\":14002:14090   */\n      mstore\n        /* \"#utility.yul\":14109:14113   */\n      0x32\n        /* \"#utility.yul\":14106:14107   */\n      0x04\n        /* \"#utility.yul\":14099:14114   */\n      mstore\n        /* \"#utility.yul\":14133:14137   */\n      0x24\n        /* \"#utility.yul\":14130:14131   */\n      0x00\n        /* \"#utility.yul\":14123:14138   */\n      revert\n        /* \"#utility.yul\":14150:14319   */\n    tag_310:\n        /* \"#utility.yul\":14290:14311   */\n      0x4e6f206665657320746f20776974686472617700000000000000000000000000\n        /* \"#utility.yul\":14286:14287   */\n      0x00\n        /* \"#utility.yul\":14278:14284   */\n      dup3\n        /* \"#utility.yul\":14274:14288   */\n      add\n        /* \"#utility.yul\":14267:14312   */\n      mstore\n        /* \"#utility.yul\":14150:14319   */\n      pop\n      jump\t// out\n        /* \"#utility.yul\":14325:14691   */\n    tag_311:\n        /* \"#utility.yul\":14467:14470   */\n      0x00\n        /* \"#utility.yul\":14488:14555   */\n      tag_463\n        /* \"#utility.yul\":14552:14554   */\n      0x13\n        /* \"#utility.yul\":14547:14550   */\n      dup4\n        /* \"#utility.yul\":14488:14555   */\n      tag_292\n      jump\t// in\n    tag_463:\n        /* \"#utility.yul\":14481:14555   */\n      swap2\n      pop\n        /* \"#utility.yul\":14564:14657   */\n      tag_464\n        /* \"#utility.yul\":14653:14656   */\n      dup3\n        /* \"#utility.yul\":14564:14657   */\n      tag_310\n      jump\t// in\n    tag_464:\n        /* \"#utility.yul\":14682:14684   */\n      0x20\n        /* \"#utility.yul\":14677:14680   */\n      dup3\n        /* \"#utility.yul\":14673:14685   */\n      add\n        /* \"#utility.yul\":14666:14685   */\n      swap1\n      pop\n        /* \"#utility.yul\":14325:14691   */\n      swap2\n      swap1\n      pop\n      jump\t// out\n        /* \"#utility.yul\":14697:15116   */\n    tag_188:\n        /* \"#utility.yul\":14863:14867   */\n      0x00\n        /* \"#utility.yul\":14901:14903   */\n      0x20\n        /* \"#utility.yul\":14890:14899   */\n      dup3\n        /* \"#utility.yul\":14886:14904   */\n      add\n        /* \"#utility.yul\":14878:14904   */\n      swap1\n      pop\n        /* \"#utility.yul\":14950:14959   */\n      dup2\n        /* \"#utility.yul\":14944:14948   */\n      dup2\n        /* \"#utility.yul\":14940:14960   */\n      sub\n        /* \"#utility.yul\":14936:14937   */\n      0x00\n        /* \"#utility.yul\":14925:14934   */\n      dup4\n        /* \"#utility.yul\":14921:14938   */\n      add\n        /* \"#utility.yul\":14914:14961   */\n      mstore\n        /* \"#utility.yul\":14978:15109   */\n      tag_466\n        /* \"#utility.yul\":15104:15108   */\n      dup2\n        /* \"#utility.yul\":14978:15109   */\n      tag_311\n      jump\t// in\n    tag_466:\n        /* \"#utility.yul\":14970:15109   */\n      swap1\n      pop\n        /* \"#utility.yul\":14697:15116   */\n      swap2\n      swap1\n      pop\n      jump\t// out\n        /* \"#utility.yul\":15122:15294   */\n    tag_312:\n        /* \"#utility.yul\":15262:15286   */\n      0x4163636f756e7420616c72656164792065786973747300000000000000000000\n        /* \"#utility.yul\":15258:15259   */\n      0x00\n        /* \"#utility.yul\":15250:15256   */\n      dup3\n        /* \"#utility.yul\":15246:15260   */\n      add\n        /* \"#utility.yul\":15239:15287   */\n      mstore\n        /* \"#utility.yul\":15122:15294   */\n      pop\n      jump\t// out\n        /* \"#utility.yul\":15300:15666   */\n    tag_313:\n        /* \"#utility.yul\":15442:15445   */\n      0x00\n        /* \"#utility.yul\":15463:15530   */\n      tag_469\n        /* \"#utility.yul\":15527:15529   */\n      0x16\n        /* \"#utility.yul\":15522:15525   */\n      dup4\n        /* \"#utility.yul\":15463:15530   */\n      tag_292\n      jump\t// in\n    tag_469:\n        /* \"#utility.yul\":15456:15530   */\n      swap2\n      pop\n        /* \"#utility.yul\":15539:15632   */\n      tag_470\n        /* \"#utility.yul\":15628:15631   */\n      dup3\n        /* \"#utility.yul\":15539:15632   */\n      tag_312\n      jump\t// in\n    tag_470:\n        /* \"#utility.yul\":15657:15659   */\n      0x20\n        /* \"#utility.yul\":15652:15655   */\n      dup3\n        /* \"#utility.yul\":15648:15660   */\n      add\n        /* \"#utility.yul\":15641:15660   */\n      swap1\n      pop\n        /* \"#utility.yul\":15300:15666   */\n      swap2\n      swap1\n      pop\n      jump\t// out\n        /* \"#utility.yul\":15672:16091   */\n    tag_212:\n        /* \"#utility.yul\":15838:15842   */\n      0x00\n        /* \"#utility.yul\":15876:15878   */\n      0x20\n        /* \"#utility.yul\":15865:15874   */\n      dup3\n        /* \"#utility.yul\":15861:15879   */\n      add\n        /* \"#utility.yul\":15853:15879   */\n      swap1\n      pop\n        /* \"#utility.yul\":15925:15934   */\n      dup2\n        /* \"#utility.yul\":15919:15923   */\n      dup2\n        /* \"#utility.yul\":15915:15935   */\n      sub\n        /* \"#utility.yul\":15911:15912   */\n      0x00\n        /* \"#utility.yul\":15900:15909   */\n      dup4\n        /* \"#utility.yul\":15896:15913   */\n      add\n        /* \"#utility.yul\":15889:15936   */\n      mstore\n        /* \"#utility.yul\":15953:16084   */\n      tag_472\n        /* \"#utility.yul\":16079:16083   */\n      dup2\n        /* \"#utility.yul\":15953:16084   */\n      tag_313\n      jump\t// in\n    tag_472:\n        /* \"#utility.yul\":15945:16084   */\n      swap1\n      pop\n        /* \"#utility.yul\":15672:16091   */\n      swap2\n      swap1\n      pop\n      jump\t// out\n        /* \"#utility.yul\":16097:16268   */\n    tag_314:\n        /* \"#utility.yul\":16237:16260   */\n      0x4665652063616e6e6f7420657863656564203130250000000000000000000000\n        /* \"#utility.yul\":16233:16234   */\n      0x00\n        /* \"#utility.yul\":16225:16231   */\n      dup3\n        /* \"#utility.yul\":16221:16235   */\n      add\n        /* \"#utility.yul\":16214:16261   */\n      mstore\n        /* \"#utility.yul\":16097:16268   */\n      pop\n      jump\t// out\n        /* \"#utility.yul\":16274:16640   */\n    tag_315:\n        /* \"#utility.yul\":16416:16419   */\n      0x00\n        /* \"#utility.yul\":16437:16504   */\n      tag_475\n        /* \"#utility.yul\":16501:16503   */\n      0x15\n        /* \"#utility.yul\":16496:16499   */\n      dup4\n        /* \"#utility.yul\":16437:16504   */\n      tag_292\n      jump\t// in\n    tag_475:\n        /* \"#utility.yul\":16430:16504   */\n      swap2\n      pop\n        /* \"#utility.yul\":16513:16606   */\n      tag_476\n        /* \"#utility.yul\":16602:16605   */\n      dup3\n        /* \"#utility.yul\":16513:16606   */\n      tag_314\n      jump\t// in\n    tag_476:\n        /* \"#utility.yul\":16631:16633   */\n      0x20\n        /* \"#utility.yul\":16626:16629   */\n      dup3\n        /* \"#utility.yul\":16622:16634   */\n      add\n        /* \"#utility.yul\":16615:16634   */\n      swap1\n      pop\n        /* \"#utility.yul\":16274:16640   */\n      swap2\n      swap1\n      pop\n      jump\t// out\n        /* \"#utility.yul\":16646:17065   */\n    tag_218:\n        /* \"#utility.yul\":16812:16816   */\n      0x00\n        /* \"#utility.yul\":16850:16852   */\n      0x20\n        /* \"#utility.yul\":16839:16848   */\n      dup3\n        /* \"#utility.yul\":16835:16853   */\n      add\n        /* \"#utility.yul\":16827:16853   */\n      swap1\n      pop\n        /* \"#utility.yul\":16899:16908   */\n      dup2\n        /* \"#utility.yul\":16893:16897   */\n      dup2\n        /* \"#utility.yul\":16889:16909   */\n      sub\n        /* \"#utility.yul\":16885:16886   */\n      0x00\n        /* \"#utility.yul\":16874:16883   */\n      dup4\n        /* \"#utility.yul\":16870:16887   */\n      add\n        /* \"#utility.yul\":16863:16910   */\n      mstore\n        /* \"#utility.yul\":16927:17058   */\n      tag_478\n        /* \"#utility.yul\":17053:17057   */\n      dup2\n        /* \"#utility.yul\":16927:17058   */\n      tag_315\n      jump\t// in\n    tag_478:\n        /* \"#utility.yul\":16919:17058   */\n      swap1\n      pop\n        /* \"#utility.yul\":16646:17065   */\n      swap2\n      swap1\n      pop\n      jump\t// out\n        /* \"#utility.yul\":17071:17249   */\n    tag_316:\n        /* \"#utility.yul\":17211:17241   */\n      0x416d6f756e742062656c6f77206d696e696d756d206465706f73697400000000\n        /* \"#utility.yul\":17207:17208   */\n      0x00\n        /* \"#utility.yul\":17199:17205   */\n      dup3\n        /* \"#utility.yul\":17195:17209   */\n      add\n        /* \"#utility.yul\":17188:17242   */\n      mstore\n        /* \"#utility.yul\":17071:17249   */\n      pop\n      jump\t// out\n        /* \"#utility.yul\":17255:17621   */\n    tag_317:\n        /* \"#utility.yul\":17397:17400   */\n      0x00\n        /* \"#utility.yul\":17418:17485   */\n      tag_481\n        /* \"#utility.yul\":17482:17484   */\n      0x1c\n        /* \"#utility.yul\":17477:17480   */\n      dup4\n        /* \"#utility.yul\":17418:17485   */\n      tag_292\n      jump\t// in\n    tag_481:\n        /* \"#utility.yul\":17411:17485   */\n      swap2\n      pop\n        /* \"#utility.yul\":17494:17587   */\n      tag_482\n        /* \"#utility.yul\":17583:17586   */\n      dup3\n        /* \"#utility.yul\":17494:17587   */\n      tag_316\n      jump\t// in\n    tag_482:\n        /* \"#utility.yul\":17612:17614   */\n      0x20\n        /* \"#utility.yul\":17607:17610   */\n      dup3\n        /* \"#utility.yul\":17603:17615   */\n      add\n        /* \"#utility.yul\":17596:17615   */\n      swap1\n      pop\n        /* \"#utility.yul\":17255:17621   */\n      swap2\n      swap1\n      pop\n      jump\t// out\n        /* \"#utility.yul\":17627:18046   */\n    tag_228:\n        /* \"#utility.yul\":17793:17797   */\n      0x00\n        /* \"#utility.yul\":17831:17833   */\n      0x20\n        /* \"#utility.yul\":17820:17829   */\n      dup3\n        /* \"#utility.yul\":17816:17834   */\n      add\n        /* \"#utility.yul\":17808:17834   */\n      swap1\n      pop\n        /* \"#utility.yul\":17880:17889   */\n      dup2\n        /* \"#utility.yul\":17874:17878   */\n      dup2\n        /* \"#utility.yul\":17870:17890   */\n      sub\n        /* \"#utility.yul\":17866:17867   */\n      0x00\n        /* \"#utility.yul\":17855:17864   */\n      dup4\n        /* \"#utility.yul\":17851:17868   */\n      add\n        /* \"#utility.yul\":17844:17891   */\n      mstore\n        /* \"#utility.yul\":17908:18039   */\n      tag_484\n        /* \"#utility.yul\":18034:18038   */\n      dup2\n        /* \"#utility.yul\":17908:18039   */\n      tag_317\n      jump\t// in\n    tag_484:\n        /* \"#utility.yul\":17900:18039   */\n      swap1\n      pop\n        /* \"#utility.yul\":17627:18046   */\n      swap2\n      swap1\n      pop\n      jump\t// out\n        /* \"#utility.yul\":18052:18273   */\n    tag_318:\n        /* \"#utility.yul\":18192:18226   */\n      0x4465706f73697420776f756c64206578636565642062616e6b20636170616369\n        /* \"#utility.yul\":18188:18189   */\n      0x00\n        /* \"#utility.yul\":18180:18186   */\n      dup3\n        /* \"#utility.yul\":18176:18190   */\n      add\n        /* \"#utility.yul\":18169:18227   */\n      mstore\n        /* \"#utility.yul\":18261:18265   */\n      0x7479000000000000000000000000000000000000000000000000000000000000\n        /* \"#utility.yul\":18256:18258   */\n      0x20\n        /* \"#utility.yul\":18248:18254   */\n      dup3\n        /* \"#utility.yul\":18244:18259   */\n      add\n        /* \"#utility.yul\":18237:18266   */\n      mstore\n        /* \"#utility.yul\":18052:18273   */\n      pop\n      jump\t// out\n        /* \"#utility.yul\":18279:18645   */\n    tag_319:\n        /* \"#utility.yul\":18421:18424   */\n      0x00\n        /* \"#utility.yul\":18442:18509   */\n      tag_487\n        /* \"#utility.yul\":18506:18508   */\n      0x22\n        /* \"#utility.yul\":18501:18504   */\n      dup4\n        /* \"#utility.yul\":18442:18509   */\n      tag_292\n      jump\t// in\n    tag_487:\n        /* \"#utility.yul\":18435:18509   */\n      swap2\n      pop\n        /* \"#utility.yul\":18518:18611   */\n      tag_488\n        /* \"#utility.yul\":18607:18610   */\n      dup3\n        /* \"#utility.yul\":18518:18611   */\n      tag_318\n      jump\t// in\n    tag_488:\n        /* \"#utility.yul\":18636:18638   */\n      0x40\n        /* \"#utility.yul\":18631:18634   */\n      dup3\n        /* \"#utility.yul\":18627:18639   */\n      add\n        /* \"#utility.yul\":18620:18639   */\n      swap1\n      pop\n        /* \"#utility.yul\":18279:18645   */\n      swap2\n      swap1\n      pop\n      jump\t// out\n        /* \"#utility.yul\":18651:19070   */\n    tag_232:\n        /* \"#utility.yul\":18817:18821   */\n      0x00\n        /* \"#utility.yul\":18855:18857   */\n      0x20\n        /* \"#utility.yul\":18844:18853   */\n      dup3\n        /* \"#utility.yul\":18840:18858   */\n      add\n        /* \"#utility.yul\":18832:18858   */\n      swap1\n      pop\n        /* \"#utility.yul\":18904:18913   */\n      dup2\n        /* \"#utility.yul\":18898:18902   */\n      dup2\n        /* \"#utility.yul\":18894:18914   */\n      sub\n        /* \"#utility.yul\":18890:18891   */\n      0x00\n        /* \"#utility.yul\":18879:18888   */\n      dup4\n        /* \"#utility.yul\":18875:18892   */\n      add\n        /* \"#utility.yul\":18868:18915   */\n      mstore\n        /* \"#utility.yul\":18932:19063   */\n      tag_490\n        /* \"#utility.yul\":19058:19062   */\n      dup2\n        /* \"#utility.yul\":18932:19063   */\n      tag_319\n      jump\t// in\n    tag_490:\n        /* \"#utility.yul\":18924:19063   */\n      swap1\n      pop\n        /* \"#utility.yul\":18651:19070   */\n      swap2\n      swap1\n      pop\n      jump\t// out\n        /* \"#utility.yul\":19076:19518   */\n    tag_234:\n        /* \"#utility.yul\":19225:19229   */\n      0x00\n        /* \"#utility.yul\":19263:19265   */\n      0x60\n        /* \"#utility.yul\":19252:19261   */\n      dup3\n        /* \"#utility.yul\":19248:19266   */\n      add\n        /* \"#utility.yul\":19240:19266   */\n      swap1\n      pop\n        /* \"#utility.yul\":19276:19347   */\n      tag_492\n        /* \"#utility.yul\":19344:19345   */\n      0x00\n        /* \"#utility.yul\":19333:19342   */\n      dup4\n        /* \"#utility.yul\":19329:19346   */\n      add\n        /* \"#utility.yul\":19320:19326   */\n      dup7\n        /* \"#utility.yul\":19276:19347   */\n      tag_286\n      jump\t// in\n    tag_492:\n        /* \"#utility.yul\":19357:19429   */\n      tag_493\n        /* \"#utility.yul\":19425:19427   */\n      0x20\n        /* \"#utility.yul\":19414:19423   */\n      dup4\n        /* \"#utility.yul\":19410:19428   */\n      add\n        /* \"#utility.yul\":19401:19407   */\n      dup6\n        /* \"#utility.yul\":19357:19429   */\n      tag_286\n      jump\t// in\n    tag_493:\n        /* \"#utility.yul\":19439:19511   */\n      tag_494\n        /* \"#utility.yul\":19507:19509   */\n      0x40\n        /* \"#utility.yul\":19496:19505   */\n      dup4\n        /* \"#utility.yul\":19492:19510   */\n      add\n        /* \"#utility.yul\":19483:19489   */\n      dup5\n        /* \"#utility.yul\":19439:19511   */\n      tag_274\n      jump\t// in\n    tag_494:\n        /* \"#utility.yul\":19076:19518   */\n      swap5\n      swap4\n      pop\n      pop\n      pop\n      pop\n      jump\t// out\n        /* \"#utility.yul\":19524:19966   */\n    tag_245:\n        /* \"#utility.yul\":19673:19677   */\n      0x00\n        /* \"#utility.yul\":19711:19713   */\n      0x60\n        /* \"#utility.yul\":19700:19709   */\n      dup3\n        /* \"#utility.yul\":19696:19714   */\n      add\n        /* \"#utility.yul\":19688:19714   */\n      swap1\n      pop\n        /* \"#utility.yul\":19724:19795   */\n      tag_496\n        /* \"#utility.yul\":19792:19793   */\n      0x00\n        /* \"#utility.yul\":19781:19790   */\n      dup4\n        /* \"#utility.yul\":19777:19794   */\n      add\n        /* \"#utility.yul\":19768:19774   */\n      dup7\n        /* \"#utility.yul\":19724:19795   */\n      tag_274\n      jump\t// in\n    tag_496:\n        /* \"#utility.yul\":19805:19877   */\n      tag_497\n        /* \"#utility.yul\":19873:19875   */\n      0x20\n        /* \"#utility.yul\":19862:19871   */\n      dup4\n        /* \"#utility.yul\":19858:19876   */\n      add\n        /* \"#utility.yul\":19849:19855   */\n      dup6\n        /* \"#utility.yul\":19805:19877   */\n      tag_274\n      jump\t// in\n    tag_497:\n        /* \"#utility.yul\":19887:19959   */\n      tag_498\n        /* \"#utility.yul\":19955:19957   */\n      0x40\n        /* \"#utility.yul\":19944:19953   */\n      dup4\n        /* \"#utility.yul\":19940:19958   */\n      add\n        /* \"#utility.yul\":19931:19937   */\n      dup5\n        /* \"#utility.yul\":19887:19959   */\n      tag_274\n      jump\t// in\n    tag_498:\n        /* \"#utility.yul\":19524:19966   */\n      swap5\n      swap4\n      pop\n      pop\n      pop\n      pop\n      jump\t// out\n\n    auxdata: 0xa2646970667358221220e331192ef0948a6658cd9c19adba4a5721846b7ec7b3fb31ed9eab03ce9cd1a564736f6c634300081e0033\n}\n",
				"bytecode": {
					"linkReferences": {},
					"object": "60c060405268056bc75e2d6310000060075560056008556201518060095560c860a090815250348015610030575f5ffd5b5060405161268038038061268083398181016040528101906100529190610362565b335f73ffffffffffffffffffffffffffffffffffffffff168173ffffffffffffffffffffffffffffffffffffffff16036100c3575f6040517f1e4fbdf70000000000000000000000000000000000000000000000000000000081526004016100ba91906103af565b60405180910390fd5b6100d28161021060201b60201c565b50600180819055505f73ffffffffffffffffffffffffffffffffffffffff168273ffffffffffffffffffffffffffffffffffffffff1603610148576040517f08c379a000000000000000000000000000000000000000000000000000000000815260040161013f90610422565b60405180910390fd5b5f811161018a576040517f08c379a00000000000000000000000000000000000000000000000000000000081526004016101819061048a565b60405180910390fd5b8160025f6101000a81548173ffffffffffffffffffffffffffffffffffffffff021916908373ffffffffffffffffffffffffffffffffffffffff16021790555080608081815250507fd8224a2376272b81083832b8284e6cd2d1c3fd0c1951cbe8a9c1d20c534e8b538160405161020191906104b7565b60405180910390a150506104d0565b5f5f5f9054906101000a900473ffffffffffffffffffffffffffffffffffffffff169050815f5f6101000a81548173ffffffffffffffffffffffffffffffffffffffff021916908373ffffffffffffffffffffffffffffffffffffffff1602179055508173ffffffffffffffffffffffffffffffffffffffff168173ffffffffffffffffffffffffffffffffffffffff167f8be0079c531659141344cd1fd0a4f28419497f9722a3daafe3b4186f6b6457e060405160405180910390a35050565b5f5ffd5b5f73ffffffffffffffffffffffffffffffffffffffff82169050919050565b5f6102fe826102d5565b9050919050565b61030e816102f4565b8114610318575f5ffd5b50565b5f8151905061032981610305565b92915050565b5f819050919050565b6103418161032f565b811461034b575f5ffd5b50565b5f8151905061035c81610338565b92915050565b5f5f60408385031215610378576103776102d1565b5b5f6103858582860161031b565b92505060206103968582860161034e565b9150509250929050565b6103a9816102f4565b82525050565b5f6020820190506103c25f8301846103a0565b92915050565b5f82825260208201905092915050565b7f546f6b656e20616464726573732063616e6e6f74206265207a65726f000000005f82015250565b5f61040c601c836103c8565b9150610417826103d8565b602082019050919050565b5f6020820190508181035f83015261043981610400565b9050919050565b7f42616e6b20636170206d7573742062652067726561746572207468616e2030005f82015250565b5f610474601f836103c8565b915061047f82610440565b602082019050919050565b5f6020820190508181035f8301526104a181610468565b9050919050565b6104b18161032f565b82525050565b5f6020820190506104ca5f8301846104a8565b92915050565b60805160a0516121886104f85f395f61071001525f81816110f2015261153201526121885ff3fe608060405234801561000f575f5ffd5b5060043610610171575f3560e01c80638da5cb5b116100dc578063b6e7d83011610095578063e78ec42e1161006f578063e78ec42e146103f1578063ecbea24d1461040d578063f2fde38b1461042b578063fc0c546a1461044757610171565b8063b6e7d83014610385578063c847119d146103a3578063d3b5f520146103c157610171565b80638da5cb5b146102d757806393423e9c146102f55780639dca362f14610325578063ac1e50251461032f578063b30d58151461034b578063b6b55f251461036957610171565b80635e5c06e21161012e5780635e5c06e214610223578063636bfbab14610257578063715018a614610275578063779972da1461027f5780637d8820971461029b5780638bc7e8c4146102b957610171565b80630770e571146101755780631bae91a41461019357806326a4e8d2146101c35780632e1a7d4d146101df5780633fd8b02f146101fb578063476343ee14610219575b5f5ffd5b61017d610465565b60405161018a91906117b3565b60405180910390f35b6101ad60048036038101906101a8919061182a565b61046b565b6040516101ba91906117b3565b60405180910390f35b6101dd60048036038101906101d8919061182a565b610540565b005b6101f960048036038101906101f4919061187f565b610630565b005b61020361099e565b60405161021091906117b3565b60405180910390f35b6102216109a4565b005b61023d6004803603810190610238919061182a565b610c59565b60405161024e9594939291906118c4565b60405180910390f35b61025f610c97565b60405161026c91906117b3565b60405180910390f35b61027d610c9d565b005b6102996004803603810190610294919061187f565b610cb0565b005b6102a3610cf9565b6040516102b091906117b3565b60405180910390f35b6102c1610cff565b6040516102ce91906117b3565b60405180910390f35b6102df610d05565b6040516102ec9190611924565b60405180910390f35b61030f600480360381019061030a919061182a565b610d2c565b60405161031c91906117b3565b60405180910390f35b61032d610e00565b005b6103496004803603810190610344919061187f565b610f81565b005b61035361100e565b60405161036091906117b3565b60405180910390f35b610383600480360381019061037e919061187f565b611017565b005b61038d611403565b60405161039a91906117b3565b60405180910390f35b6103ab61140c565b6040516103b891906117b3565b60405180910390f35b6103db60048036038101906103d6919061182a565b611412565b6040516103e891906117b3565b60405180910390f35b61040b6004803603810190610406919061187f565b6114e7565b005b610415611530565b60405161042291906117b3565b60405180910390f35b6104456004803603810190610440919061182a565b611554565b005b61044f6115d8565b60405161045c9190611998565b60405180910390f35b60055481565b5f60065f8373ffffffffffffffffffffffffffffffffffffffff1673ffffffffffffffffffffffffffffffffffffffff1681526020019081526020015f206002015f9054906101000a900460ff166104f8576040517f08c379a00000000000000000000000000000000000000000000000000000000081526004016104ef90611a0b565b60405180910390fd5b60065f8373ffffffffffffffffffffffffffffffffffffffff1673ffffffffffffffffffffffffffffffffffffffff1681526020019081526020015f20600301549050919050565b6105486115fd565b5f73ffffffffffffffffffffffffffffffffffffffff168173ffffffffffffffffffffffffffffffffffffffff16036105b6576040517f08c379a00000000000000000000000000000000000000000000000000000000081526004016105ad90611a73565b60405180910390fd5b8060025f6101000a81548173ffffffffffffffffffffffffffffffffffffffff021916908373ffffffffffffffffffffffffffffffffffffffff1602179055507f2f0c7f17be551d1f4566672cd67adbe50173e96632f56ff80d80acc4ac00f328816040516106259190611924565b60405180910390a150565b610638611684565b5f60065f3373ffffffffffffffffffffffffffffffffffffffff1673ffffffffffffffffffffffffffffffffffffffff1681526020019081526020015f209050806002015f9054906101000a900460ff166106c8576040517f08c379a00000000000000000000000000000000000000000000000000000000081526004016106bf90611a0b565b60405180910390fd5b81815f0154101561070e576040517f08c379a000000000000000000000000000000000000000000000000000000000815260040161070590611adb565b60405180910390fd5b7f0000000000000000000000000000000000000000000000000000000000000000821115610771576040517f08c379a000000000000000000000000000000000000000000000000000000000815260040161076890611b43565b60405180910390fd5b60095481600101546107839190611b8e565b4210156107c5576040517f08c379a00000000000000000000000000000000000000000000000000000000081526004016107bc90611c0b565b60405180910390fd5b5f6064600854846107d69190611c29565b6107e09190611c97565b90505f81846107ef9190611cc7565b905083835f015f8282546108039190611cc7565b925050819055506001836004015f82825461081e9190611b8e565b925050819055508360035f8282546108369190611cc7565b92505081905550600160055f82825461084f9190611b8e565b925050819055505f60025f9054906101000a900473ffffffffffffffffffffffffffffffffffffffff1673ffffffffffffffffffffffffffffffffffffffff1663a9059cbb33846040518363ffffffff1660e01b81526004016108b3929190611cfa565b6020604051808303815f875af11580156108cf573d5f5f3e3d5ffd5b505050506040513d601f19601f820116820180604052508101906108f39190611d4b565b905080610935576040517f08c379a000000000000000000000000000000000000000000000000000000000815260040161092c90611dc0565b60405180910390fd5b3373ffffffffffffffffffffffffffffffffffffffff167f94ffd6b85c71b847775c89ef6496b93cee961bdc6ff827fd117f174f06f745ae868587600401546005546040516109879493929190611dde565b60405180910390a25050505061099b6116ca565b50565b60095481565b6109ac6115fd565b5f60025f9054906101000a900473ffffffffffffffffffffffffffffffffffffffff1673ffffffffffffffffffffffffffffffffffffffff166370a08231306040518263ffffffff1660e01b8152600401610a079190611924565b602060405180830381865afa158015610a22573d5f5f3e3d5ffd5b505050506040513d601f19601f82011682018060405250810190610a469190611e35565b90505f5f90505f5f67ffffffffffffffff811115610a6757610a66611e60565b5b604051908082528060200260200182016040528015610a955781602001602082028036833780820191505090505b5090505f5f90505b8151811015610b1a5760065f838381518110610abc57610abb611e8d565b5b602002602001015173ffffffffffffffffffffffffffffffffffffffff1673ffffffffffffffffffffffffffffffffffffffff1681526020019081526020015f205f015483610b0b9190611b8e565b92508080600101915050610a9d565b505f8284610b289190611cc7565b90505f8111610b6c576040517f08c379a0000000000000000000000000000000000000000000000000000000008152600401610b6390611f04565b60405180910390fd5b5f60025f9054906101000a900473ffffffffffffffffffffffffffffffffffffffff1673ffffffffffffffffffffffffffffffffffffffff1663a9059cbb610bb2610d05565b846040518363ffffffff1660e01b8152600401610bd0929190611cfa565b6020604051808303815f875af1158015610bec573d5f5f3e3d5ffd5b505050506040513d601f19601f82011682018060405250810190610c109190611d4b565b905080610c52576040517f08c379a0000000000000000000000000000000000000000000000000000000008152600401610c4990611dc0565b60405180910390fd5b5050505050565b6006602052805f5260405f205f91509050805f015490806001015490806002015f9054906101000a900460ff16908060030154908060040154905085565b60075481565b610ca56115fd565b610cae5f6116d3565b565b610cb86115fd565b806009819055507f8249ec545e68f6f1e1230133ca48c704d831a7f8e635ded80f3dd9e99b09bb2f81604051610cee91906117b3565b60405180910390a150565b60035481565b60085481565b5f5f5f9054906101000a900473ffffffffffffffffffffffffffffffffffffffff16905090565b5f60065f8373ffffffffffffffffffffffffffffffffffffffff1673ffffffffffffffffffffffffffffffffffffffff1681526020019081526020015f206002015f9054906101000a900460ff16610db9576040517f08c379a0000000000000000000000000000000000000000000000000000000008152600401610db090611a0b565b60405180910390fd5b60065f8373ffffffffffffffffffffffffffffffffffffffff1673ffffffffffffffffffffffffffffffffffffffff1681526020019081526020015f205f01549050919050565b60065f3373ffffffffffffffffffffffffffffffffffffffff1673ffffffffffffffffffffffffffffffffffffffff1681526020019081526020015f206002015f9054906101000a900460ff1615610e8d576040517f08c379a0000000000000000000000000000000000000000000000000000000008152600401610e8490611f6c565b60405180910390fd5b6040518060a001604052805f81526020015f81526020016001151581526020015f81526020015f81525060065f3373ffffffffffffffffffffffffffffffffffffffff1673ffffffffffffffffffffffffffffffffffffffff1681526020019081526020015f205f820151815f0155602082015181600101556040820151816002015f6101000a81548160ff02191690831515021790555060608201518160030155608082015181600401559050503373ffffffffffffffffffffffffffffffffffffffff167f805996f252884581e2f74cf3d2b03564d5ec26ccc90850ae12653dc1b72d1fa260405160405180910390a2565b610f896115fd565b600a811115610fcd576040517f08c379a0000000000000000000000000000000000000000000000000000000008152600401610fc490611fd4565b60405180910390fd5b806008819055507fe94edcc114da5287ecb30ee8aacf12e6c16b11b8583d7f9e477ab1616e33d53d8160405161100391906117b3565b60405180910390a150565b5f600454905090565b61101f611684565b60065f3373ffffffffffffffffffffffffffffffffffffffff1673ffffffffffffffffffffffffffffffffffffffff1681526020019081526020015f206002015f9054906101000a900460ff166110ab576040517f08c379a00000000000000000000000000000000000000000000000000000000081526004016110a290611a0b565b60405180910390fd5b6007548110156110f0576040517f08c379a00000000000000000000000000000000000000000000000000000000081526004016110e79061203c565b60405180910390fd5b7f00000000000000000000000000000000000000000000000000000000000000008160035461111f9190611b8e565b1115611160576040517f08c379a0000000000000000000000000000000000000000000000000000000008152600401611157906120ca565b60405180910390fd5b5f60025f9054906101000a900473ffffffffffffffffffffffffffffffffffffffff1673ffffffffffffffffffffffffffffffffffffffff166323b872dd3330856040518463ffffffff1660e01b81526004016111bf939291906120e8565b6020604051808303815f875af11580156111db573d5f5f3e3d5ffd5b505050506040513d601f19601f820116820180604052508101906111ff9190611d4b565b905080611241576040517f08c379a000000000000000000000000000000000000000000000000000000000815260040161123890611dc0565b60405180910390fd5b8160065f3373ffffffffffffffffffffffffffffffffffffffff1673ffffffffffffffffffffffffffffffffffffffff1681526020019081526020015f205f015f82825461128f9190611b8e565b925050819055504260065f3373ffffffffffffffffffffffffffffffffffffffff1673ffffffffffffffffffffffffffffffffffffffff1681526020019081526020015f2060010181905550600160065f3373ffffffffffffffffffffffffffffffffffffffff1673ffffffffffffffffffffffffffffffffffffffff1681526020019081526020015f206003015f82825461132b9190611b8e565b925050819055508160035f8282546113439190611b8e565b92505081905550600160045f82825461135c9190611b8e565b925050819055503373ffffffffffffffffffffffffffffffffffffffff167f91ede45f04a37a7c170f5c1207df3b6bc748dc1e04ad5e917a241d0f52feada38360065f3373ffffffffffffffffffffffffffffffffffffffff1673ffffffffffffffffffffffffffffffffffffffff1681526020019081526020015f20600301546004546040516113ef9392919061211d565b60405180910390a2506114006116ca565b50565b5f600554905090565b60045481565b5f60065f8373ffffffffffffffffffffffffffffffffffffffff1673ffffffffffffffffffffffffffffffffffffffff1681526020019081526020015f206002015f9054906101000a900460ff1661149f576040517f08c379a000000000000000000000000000000000000000000000000000000000815260040161149690611a0b565b60405180910390fd5b60065f8373ffffffffffffffffffffffffffffffffffffffff1673ffffffffffffffffffffffffffffffffffffffff1681526020019081526020015f20600401549050919050565b6114ef6115fd565b806007819055507fd939191be6b640bc40ef7c6a17554ac82dfea02602fcacfad13dcd71d0abe6d08160405161152591906117b3565b60405180910390a150565b7f000000000000000000000000000000000000000000000000000000000000000081565b61155c6115fd565b5f73ffffffffffffffffffffffffffffffffffffffff168173ffffffffffffffffffffffffffffffffffffffff16036115cc575f6040517f1e4fbdf70000000000000000000000000000000000000000000000000000000081526004016115c39190611924565b60405180910390fd5b6115d5816116d3565b50565b60025f9054906101000a900473ffffffffffffffffffffffffffffffffffffffff1681565b611605611794565b73ffffffffffffffffffffffffffffffffffffffff16611623610d05565b73ffffffffffffffffffffffffffffffffffffffff161461168257611646611794565b6040517f118cdaa70000000000000000000000000000000000000000000000000000000081526004016116799190611924565b60405180910390fd5b565b6002600154036116c0576040517f3ee5aeb500000000000000000000000000000000000000000000000000000000815260040160405180910390fd5b6002600181905550565b60018081905550565b5f5f5f9054906101000a900473ffffffffffffffffffffffffffffffffffffffff169050815f5f6101000a81548173ffffffffffffffffffffffffffffffffffffffff021916908373ffffffffffffffffffffffffffffffffffffffff1602179055508173ffffffffffffffffffffffffffffffffffffffff168173ffffffffffffffffffffffffffffffffffffffff167f8be0079c531659141344cd1fd0a4f28419497f9722a3daafe3b4186f6b6457e060405160405180910390a35050565b5f33905090565b5f819050919050565b6117ad8161179b565b82525050565b5f6020820190506117c65f8301846117a4565b92915050565b5f5ffd5b5f73ffffffffffffffffffffffffffffffffffffffff82169050919050565b5f6117f9826117d0565b9050919050565b611809816117ef565b8114611813575f5ffd5b50565b5f8135905061182481611800565b92915050565b5f6020828403121561183f5761183e6117cc565b5b5f61184c84828501611816565b91505092915050565b61185e8161179b565b8114611868575f5ffd5b50565b5f8135905061187981611855565b92915050565b5f60208284031215611894576118936117cc565b5b5f6118a18482850161186b565b91505092915050565b5f8115159050919050565b6118be816118aa565b82525050565b5f60a0820190506118d75f8301886117a4565b6118e460208301876117a4565b6118f160408301866118b5565b6118fe60608301856117a4565b61190b60808301846117a4565b9695505050505050565b61191e816117ef565b82525050565b5f6020820190506119375f830184611915565b92915050565b5f819050919050565b5f61196061195b611956846117d0565b61193d565b6117d0565b9050919050565b5f61197182611946565b9050919050565b5f61198282611967565b9050919050565b61199281611978565b82525050565b5f6020820190506119ab5f830184611989565b92915050565b5f82825260208201905092915050565b7f4163636f756e7420646f6573206e6f74206578697374000000000000000000005f82015250565b5f6119f56016836119b1565b9150611a00826119c1565b602082019050919050565b5f6020820190508181035f830152611a22816119e9565b9050919050565b7f546f6b656e20616464726573732063616e6e6f74206265207a65726f000000005f82015250565b5f611a5d601c836119b1565b9150611a6882611a29565b602082019050919050565b5f6020820190508181035f830152611a8a81611a51565b9050919050565b7f496e73756666696369656e742062616c616e63650000000000000000000000005f82015250565b5f611ac56014836119b1565b9150611ad082611a91565b602082019050919050565b5f6020820190508181035f830152611af281611ab9565b9050919050565b7f43616e6e6f7420657863656564207769746864726177616c206c696d697400005f82015250565b5f611b2d601e836119b1565b9150611b3882611af9565b602082019050919050565b5f6020820190508181035f830152611b5a81611b21565b9050919050565b7f4e487b71000000000000000000000000000000000000000000000000000000005f52601160045260245ffd5b5f611b988261179b565b9150611ba38361179b565b9250828201905080821115611bbb57611bba611b61565b5b92915050565b7f46756e647320617265206c6f636b6564000000000000000000000000000000005f82015250565b5f611bf56010836119b1565b9150611c0082611bc1565b602082019050919050565b5f6020820190508181035f830152611c2281611be9565b9050919050565b5f611c338261179b565b9150611c3e8361179b565b9250828202611c4c8161179b565b91508282048414831517611c6357611c62611b61565b5b5092915050565b7f4e487b71000000000000000000000000000000000000000000000000000000005f52601260045260245ffd5b5f611ca18261179b565b9150611cac8361179b565b925082611cbc57611cbb611c6a565b5b828204905092915050565b5f611cd18261179b565b9150611cdc8361179b565b9250828203905081811115611cf457611cf3611b61565b5b92915050565b5f604082019050611d0d5f830185611915565b611d1a60208301846117a4565b9392505050565b611d2a816118aa565b8114611d34575f5ffd5b50565b5f81519050611d4581611d21565b92915050565b5f60208284031215611d6057611d5f6117cc565b5b5f611d6d84828501611d37565b91505092915050565b7f546f6b656e207472616e73666572206661696c656400000000000000000000005f82015250565b5f611daa6015836119b1565b9150611db582611d76565b602082019050919050565b5f6020820190508181035f830152611dd781611d9e565b9050919050565b5f608082019050611df15f8301876117a4565b611dfe60208301866117a4565b611e0b60408301856117a4565b611e1860608301846117a4565b95945050505050565b5f81519050611e2f81611855565b92915050565b5f60208284031215611e4a57611e496117cc565b5b5f611e5784828501611e21565b91505092915050565b7f4e487b71000000000000000000000000000000000000000000000000000000005f52604160045260245ffd5b7f4e487b71000000000000000000000000000000000000000000000000000000005f52603260045260245ffd5b7f4e6f206665657320746f207769746864726177000000000000000000000000005f82015250565b5f611eee6013836119b1565b9150611ef982611eba565b602082019050919050565b5f6020820190508181035f830152611f1b81611ee2565b9050919050565b7f4163636f756e7420616c726561647920657869737473000000000000000000005f82015250565b5f611f566016836119b1565b9150611f6182611f22565b602082019050919050565b5f6020820190508181035f830152611f8381611f4a565b9050919050565b7f4665652063616e6e6f74206578636565642031302500000000000000000000005f82015250565b5f611fbe6015836119b1565b9150611fc982611f8a565b602082019050919050565b5f6020820190508181035f830152611feb81611fb2565b9050919050565b7f416d6f756e742062656c6f77206d696e696d756d206465706f736974000000005f82015250565b5f612026601c836119b1565b915061203182611ff2565b602082019050919050565b5f6020820190508181035f8301526120538161201a565b9050919050565b7f4465706f73697420776f756c64206578636565642062616e6b206361706163695f8201527f7479000000000000000000000000000000000000000000000000000000000000602082015250565b5f6120b46022836119b1565b91506120bf8261205a565b604082019050919050565b5f6020820190508181035f8301526120e1816120a8565b9050919050565b5f6060820190506120fb5f830186611915565b6121086020830185611915565b61211560408301846117a4565b949350505050565b5f6060820190506121305f8301866117a4565b61213d60208301856117a4565b61214a60408301846117a4565b94935050505056fea2646970667358221220e331192ef0948a6658cd9c19adba4a5721846b7ec7b3fb31ed9eab03ce9cd1a564736f6c634300081e0033",
					"opcodes": "PUSH1 0xC0 PUSH1 0x40 MSTORE PUSH9 0x56BC75E2D63100000 PUSH1 0x7 SSTORE PUSH1 0x5 PUSH1 0x8 SSTORE PUSH3 0x15180 PUSH1 0x9 SSTORE PUSH1 0xC8 PUSH1 0xA0 SWAP1 DUP2 MSTORE POP CALLVALUE DUP1 ISZERO PUSH2 0x30 JUMPI PUSH0 PUSH0 REVERT JUMPDEST POP PUSH1 0x40 MLOAD PUSH2 0x2680 CODESIZE SUB DUP1 PUSH2 0x2680 DUP4 CODECOPY DUP2 DUP2 ADD PUSH1 0x40 MSTORE DUP2 ADD SWAP1 PUSH2 0x52 SWAP2 SWAP1 PUSH2 0x362 JUMP JUMPDEST CALLER PUSH0 PUSH20 0xFFFFFFFFFFFFFFFFFFFFFFFFFFFFFFFFFFFFFFFF AND DUP2 PUSH20 0xFFFFFFFFFFFFFFFFFFFFFFFFFFFFFFFFFFFFFFFF AND SUB PUSH2 0xC3 JUMPI PUSH0 PUSH1 0x40 MLOAD PUSH32 0x1E4FBDF700000000000000000000000000000000000000000000000000000000 DUP2 MSTORE PUSH1 0x4 ADD PUSH2 0xBA SWAP2 SWAP1 PUSH2 0x3AF JUMP JUMPDEST PUSH1 0x40 MLOAD DUP1 SWAP2 SUB SWAP1 REVERT JUMPDEST PUSH2 0xD2 DUP2 PUSH2 0x210 PUSH1 0x20 SHL PUSH1 0x20 SHR JUMP JUMPDEST POP PUSH1 0x1 DUP1 DUP2 SWAP1 SSTORE POP PUSH0 PUSH20 0xFFFFFFFFFFFFFFFFFFFFFFFFFFFFFFFFFFFFFFFF AND DUP3 PUSH20 0xFFFFFFFFFFFFFFFFFFFFFFFFFFFFFFFFFFFFFFFF AND SUB PUSH2 0x148 JUMPI PUSH1 0x40 MLOAD PUSH32 0x8C379A000000000000000000000000000000000000000000000000000000000 DUP2 MSTORE PUSH1 0x4 ADD PUSH2 0x13F SWAP1 PUSH2 0x422 JUMP JUMPDEST PUSH1 0x40 MLOAD DUP1 SWAP2 SUB SWAP1 REVERT JUMPDEST PUSH0 DUP2 GT PUSH2 0x18A JUMPI PUSH1 0x40 MLOAD PUSH32 0x8C379A000000000000000000000000000000000000000000000000000000000 DUP2 MSTORE PUSH1 0x4 ADD PUSH2 0x181 SWAP1 PUSH2 0x48A JUMP JUMPDEST PUSH1 0x40 MLOAD DUP1 SWAP2 SUB SWAP1 REVERT JUMPDEST DUP2 PUSH1 0x2 PUSH0 PUSH2 0x100 EXP DUP2 SLOAD DUP2 PUSH20 0xFFFFFFFFFFFFFFFFFFFFFFFFFFFFFFFFFFFFFFFF MUL NOT AND SWAP1 DUP4 PUSH20 0xFFFFFFFFFFFFFFFFFFFFFFFFFFFFFFFFFFFFFFFF AND MUL OR SWAP1 SSTORE POP DUP1 PUSH1 0x80 DUP2 DUP2 MSTORE POP POP PUSH32 0xD8224A2376272B81083832B8284E6CD2D1C3FD0C1951CBE8A9C1D20C534E8B53 DUP2 PUSH1 0x40 MLOAD PUSH2 0x201 SWAP2 SWAP1 PUSH2 0x4B7 JUMP JUMPDEST PUSH1 0x40 MLOAD DUP1 SWAP2 SUB SWAP1 LOG1 POP POP PUSH2 0x4D0 JUMP JUMPDEST PUSH0 PUSH0 PUSH0 SWAP1 SLOAD SWAP1 PUSH2 0x100 EXP SWAP1 DIV PUSH20 0xFFFFFFFFFFFFFFFFFFFFFFFFFFFFFFFFFFFFFFFF AND SWAP1 POP DUP2 PUSH0 PUSH0 PUSH2 0x100 EXP DUP2 SLOAD DUP2 PUSH20 0xFFFFFFFFFFFFFFFFFFFFFFFFFFFFFFFFFFFFFFFF MUL NOT AND SWAP1 DUP4 PUSH20 0xFFFFFFFFFFFFFFFFFFFFFFFFFFFFFFFFFFFFFFFF AND MUL OR SWAP1 SSTORE POP DUP2 PUSH20 0xFFFFFFFFFFFFFFFFFFFFFFFFFFFFFFFFFFFFFFFF AND DUP2 PUSH20 0xFFFFFFFFFFFFFFFFFFFFFFFFFFFFFFFFFFFFFFFF AND PUSH32 0x8BE0079C531659141344CD1FD0A4F28419497F9722A3DAAFE3B4186F6B6457E0 PUSH1 0x40 MLOAD PUSH1 0x40 MLOAD DUP1 SWAP2 SUB SWAP1 LOG3 POP POP JUMP JUMPDEST PUSH0 PUSH0 REVERT JUMPDEST PUSH0 PUSH20 0xFFFFFFFFFFFFFFFFFFFFFFFFFFFFFFFFFFFFFFFF DUP3 AND SWAP1 POP SWAP2 SWAP1 POP JUMP JUMPDEST PUSH0 PUSH2 0x2FE DUP3 PUSH2 0x2D5 JUMP JUMPDEST SWAP1 POP SWAP2 SWAP1 POP JUMP JUMPDEST PUSH2 0x30E DUP2 PUSH2 0x2F4 JUMP JUMPDEST DUP2 EQ PUSH2 0x318 JUMPI PUSH0 PUSH0 REVERT JUMPDEST POP JUMP JUMPDEST PUSH0 DUP2 MLOAD SWAP1 POP PUSH2 0x329 DUP2 PUSH2 0x305 JUMP JUMPDEST SWAP3 SWAP2 POP POP JUMP JUMPDEST PUSH0 DUP2 SWAP1 POP SWAP2 SWAP1 POP JUMP JUMPDEST PUSH2 0x341 DUP2 PUSH2 0x32F JUMP JUMPDEST DUP2 EQ PUSH2 0x34B JUMPI PUSH0 PUSH0 REVERT JUMPDEST POP JUMP JUMPDEST PUSH0 DUP2 MLOAD SWAP1 POP PUSH2 0x35C DUP2 PUSH2 0x338 JUMP JUMPDEST SWAP3 SWAP2 POP POP JUMP JUMPDEST PUSH0 PUSH0 PUSH1 0x40 DUP4 DUP6 SUB SLT ISZERO PUSH2 0x378 JUMPI PUSH2 0x377 PUSH2 0x2D1 JUMP JUMPDEST JUMPDEST PUSH0 PUSH2 0x385 DUP6 DUP3 DUP7 ADD PUSH2 0x31B JUMP JUMPDEST SWAP3 POP POP PUSH1 0x20 PUSH2 0x396 DUP6 DUP3 DUP7 ADD PUSH2 0x34E JUMP JUMPDEST SWAP2 POP POP SWAP3 POP SWAP3 SWAP1 POP JUMP JUMPDEST PUSH2 0x3A9 DUP2 PUSH2 0x2F4 JUMP JUMPDEST DUP3 MSTORE POP POP JUMP JUMPDEST PUSH0 PUSH1 0x20 DUP3 ADD SWAP1 POP PUSH2 0x3C2 PUSH0 DUP4 ADD DUP5 PUSH2 0x3A0 JUMP JUMPDEST SWAP3 SWAP2 POP POP JUMP JUMPDEST PUSH0 DUP3 DUP3 MSTORE PUSH1 0x20 DUP3 ADD SWAP1 POP SWAP3 SWAP2 POP POP JUMP JUMPDEST PUSH32 0x546F6B656E20616464726573732063616E6E6F74206265207A65726F00000000 PUSH0 DUP3 ADD MSTORE POP JUMP JUMPDEST PUSH0 PUSH2 0x40C PUSH1 0x1C DUP4 PUSH2 0x3C8 JUMP JUMPDEST SWAP2 POP PUSH2 0x417 DUP3 PUSH2 0x3D8 JUMP JUMPDEST PUSH1 0x20 DUP3 ADD SWAP1 POP SWAP2 SWAP1 POP JUMP JUMPDEST PUSH0 PUSH1 0x20 DUP3 ADD SWAP1 POP DUP2 DUP2 SUB PUSH0 DUP4 ADD MSTORE PUSH2 0x439 DUP2 PUSH2 0x400 JUMP JUMPDEST SWAP1 POP SWAP2 SWAP1 POP JUMP JUMPDEST PUSH32 0x42616E6B20636170206D7573742062652067726561746572207468616E203000 PUSH0 DUP3 ADD MSTORE POP JUMP JUMPDEST PUSH0 PUSH2 0x474 PUSH1 0x1F DUP4 PUSH2 0x3C8 JUMP JUMPDEST SWAP2 POP PUSH2 0x47F DUP3 PUSH2 0x440 JUMP JUMPDEST PUSH1 0x20 DUP3 ADD SWAP1 POP SWAP2 SWAP1 POP JUMP JUMPDEST PUSH0 PUSH1 0x20 DUP3 ADD SWAP1 POP DUP2 DUP2 SUB PUSH0 DUP4 ADD MSTORE PUSH2 0x4A1 DUP2 PUSH2 0x468 JUMP JUMPDEST SWAP1 POP SWAP2 SWAP1 POP JUMP JUMPDEST PUSH2 0x4B1 DUP2 PUSH2 0x32F JUMP JUMPDEST DUP3 MSTORE POP POP JUMP JUMPDEST PUSH0 PUSH1 0x20 DUP3 ADD SWAP1 POP PUSH2 0x4CA PUSH0 DUP4 ADD DUP5 PUSH2 0x4A8 JUMP JUMPDEST SWAP3 SWAP2 POP POP JUMP JUMPDEST PUSH1 0x80 MLOAD PUSH1 0xA0 MLOAD PUSH2 0x2188 PUSH2 0x4F8 PUSH0 CODECOPY PUSH0 PUSH2 0x710 ADD MSTORE PUSH0 DUP2 DUP2 PUSH2 0x10F2 ADD MSTORE PUSH2 0x1532 ADD MSTORE PUSH2 0x2188 PUSH0 RETURN INVALID PUSH1 0x80 PUSH1 0x40 MSTORE CALLVALUE DUP1 ISZERO PUSH2 0xF JUMPI PUSH0 PUSH0 REVERT JUMPDEST POP PUSH1 0x4 CALLDATASIZE LT PUSH2 0x171 JUMPI PUSH0 CALLDATALOAD PUSH1 0xE0 SHR DUP1 PUSH4 0x8DA5CB5B GT PUSH2 0xDC JUMPI DUP1 PUSH4 0xB6E7D830 GT PUSH2 0x95 JUMPI DUP1 PUSH4 0xE78EC42E GT PUSH2 0x6F JUMPI DUP1 PUSH4 0xE78EC42E EQ PUSH2 0x3F1 JUMPI DUP1 PUSH4 0xECBEA24D EQ PUSH2 0x40D JUMPI DUP1 PUSH4 0xF2FDE38B EQ PUSH2 0x42B JUMPI DUP1 PUSH4 0xFC0C546A EQ PUSH2 0x447 JUMPI PUSH2 0x171 JUMP JUMPDEST DUP1 PUSH4 0xB6E7D830 EQ PUSH2 0x385 JUMPI DUP1 PUSH4 0xC847119D EQ PUSH2 0x3A3 JUMPI DUP1 PUSH4 0xD3B5F520 EQ PUSH2 0x3C1 JUMPI PUSH2 0x171 JUMP JUMPDEST DUP1 PUSH4 0x8DA5CB5B EQ PUSH2 0x2D7 JUMPI DUP1 PUSH4 0x93423E9C EQ PUSH2 0x2F5 JUMPI DUP1 PUSH4 0x9DCA362F EQ PUSH2 0x325 JUMPI DUP1 PUSH4 0xAC1E5025 EQ PUSH2 0x32F JUMPI DUP1 PUSH4 0xB30D5815 EQ PUSH2 0x34B JUMPI DUP1 PUSH4 0xB6B55F25 EQ PUSH2 0x369 JUMPI PUSH2 0x171 JUMP JUMPDEST DUP1 PUSH4 0x5E5C06E2 GT PUSH2 0x12E JUMPI DUP1 PUSH4 0x5E5C06E2 EQ PUSH2 0x223 JUMPI DUP1 PUSH4 0x636BFBAB EQ PUSH2 0x257 JUMPI DUP1 PUSH4 0x715018A6 EQ PUSH2 0x275 JUMPI DUP1 PUSH4 0x779972DA EQ PUSH2 0x27F JUMPI DUP1 PUSH4 0x7D882097 EQ PUSH2 0x29B JUMPI DUP1 PUSH4 0x8BC7E8C4 EQ PUSH2 0x2B9 JUMPI PUSH2 0x171 JUMP JUMPDEST DUP1 PUSH4 0x770E571 EQ PUSH2 0x175 JUMPI DUP1 PUSH4 0x1BAE91A4 EQ PUSH2 0x193 JUMPI DUP1 PUSH4 0x26A4E8D2 EQ PUSH2 0x1C3 JUMPI DUP1 PUSH4 0x2E1A7D4D EQ PUSH2 0x1DF JUMPI DUP1 PUSH4 0x3FD8B02F EQ PUSH2 0x1FB JUMPI DUP1 PUSH4 0x476343EE EQ PUSH2 0x219 JUMPI JUMPDEST PUSH0 PUSH0 REVERT JUMPDEST PUSH2 0x17D PUSH2 0x465 JUMP JUMPDEST PUSH1 0x40 MLOAD PUSH2 0x18A SWAP2 SWAP1 PUSH2 0x17B3 JUMP JUMPDEST PUSH1 0x40 MLOAD DUP1 SWAP2 SUB SWAP1 RETURN JUMPDEST PUSH2 0x1AD PUSH1 0x4 DUP1 CALLDATASIZE SUB DUP2 ADD SWAP1 PUSH2 0x1A8 SWAP2 SWAP1 PUSH2 0x182A JUMP JUMPDEST PUSH2 0x46B JUMP JUMPDEST PUSH1 0x40 MLOAD PUSH2 0x1BA SWAP2 SWAP1 PUSH2 0x17B3 JUMP JUMPDEST PUSH1 0x40 MLOAD DUP1 SWAP2 SUB SWAP1 RETURN JUMPDEST PUSH2 0x1DD PUSH1 0x4 DUP1 CALLDATASIZE SUB DUP2 ADD SWAP1 PUSH2 0x1D8 SWAP2 SWAP1 PUSH2 0x182A JUMP JUMPDEST PUSH2 0x540 JUMP JUMPDEST STOP JUMPDEST PUSH2 0x1F9 PUSH1 0x4 DUP1 CALLDATASIZE SUB DUP2 ADD SWAP1 PUSH2 0x1F4 SWAP2 SWAP1 PUSH2 0x187F JUMP JUMPDEST PUSH2 0x630 JUMP JUMPDEST STOP JUMPDEST PUSH2 0x203 PUSH2 0x99E JUMP JUMPDEST PUSH1 0x40 MLOAD PUSH2 0x210 SWAP2 SWAP1 PUSH2 0x17B3 JUMP JUMPDEST PUSH1 0x40 MLOAD DUP1 SWAP2 SUB SWAP1 RETURN JUMPDEST PUSH2 0x221 PUSH2 0x9A4 JUMP JUMPDEST STOP JUMPDEST PUSH2 0x23D PUSH1 0x4 DUP1 CALLDATASIZE SUB DUP2 ADD SWAP1 PUSH2 0x238 SWAP2 SWAP1 PUSH2 0x182A JUMP JUMPDEST PUSH2 0xC59 JUMP JUMPDEST PUSH1 0x40 MLOAD PUSH2 0x24E SWAP6 SWAP5 SWAP4 SWAP3 SWAP2 SWAP1 PUSH2 0x18C4 JUMP JUMPDEST PUSH1 0x40 MLOAD DUP1 SWAP2 SUB SWAP1 RETURN JUMPDEST PUSH2 0x25F PUSH2 0xC97 JUMP JUMPDEST PUSH1 0x40 MLOAD PUSH2 0x26C SWAP2 SWAP1 PUSH2 0x17B3 JUMP JUMPDEST PUSH1 0x40 MLOAD DUP1 SWAP2 SUB SWAP1 RETURN JUMPDEST PUSH2 0x27D PUSH2 0xC9D JUMP JUMPDEST STOP JUMPDEST PUSH2 0x299 PUSH1 0x4 DUP1 CALLDATASIZE SUB DUP2 ADD SWAP1 PUSH2 0x294 SWAP2 SWAP1 PUSH2 0x187F JUMP JUMPDEST PUSH2 0xCB0 JUMP JUMPDEST STOP JUMPDEST PUSH2 0x2A3 PUSH2 0xCF9 JUMP JUMPDEST PUSH1 0x40 MLOAD PUSH2 0x2B0 SWAP2 SWAP1 PUSH2 0x17B3 JUMP JUMPDEST PUSH1 0x40 MLOAD DUP1 SWAP2 SUB SWAP1 RETURN JUMPDEST PUSH2 0x2C1 PUSH2 0xCFF JUMP JUMPDEST PUSH1 0x40 MLOAD PUSH2 0x2CE SWAP2 SWAP1 PUSH2 0x17B3 JUMP JUMPDEST PUSH1 0x40 MLOAD DUP1 SWAP2 SUB SWAP1 RETURN JUMPDEST PUSH2 0x2DF PUSH2 0xD05 JUMP JUMPDEST PUSH1 0x40 MLOAD PUSH2 0x2EC SWAP2 SWAP1 PUSH2 0x1924 JUMP JUMPDEST PUSH1 0x40 MLOAD DUP1 SWAP2 SUB SWAP1 RETURN JUMPDEST PUSH2 0x30F PUSH1 0x4 DUP1 CALLDATASIZE SUB DUP2 ADD SWAP1 PUSH2 0x30A SWAP2 SWAP1 PUSH2 0x182A JUMP JUMPDEST PUSH2 0xD2C JUMP JUMPDEST PUSH1 0x40 MLOAD PUSH2 0x31C SWAP2 SWAP1 PUSH2 0x17B3 JUMP JUMPDEST PUSH1 0x40 MLOAD DUP1 SWAP2 SUB SWAP1 RETURN JUMPDEST PUSH2 0x32D PUSH2 0xE00 JUMP JUMPDEST STOP JUMPDEST PUSH2 0x349 PUSH1 0x4 DUP1 CALLDATASIZE SUB DUP2 ADD SWAP1 PUSH2 0x344 SWAP2 SWAP1 PUSH2 0x187F JUMP JUMPDEST PUSH2 0xF81 JUMP JUMPDEST STOP JUMPDEST PUSH2 0x353 PUSH2 0x100E JUMP JUMPDEST PUSH1 0x40 MLOAD PUSH2 0x360 SWAP2 SWAP1 PUSH2 0x17B3 JUMP JUMPDEST PUSH1 0x40 MLOAD DUP1 SWAP2 SUB SWAP1 RETURN JUMPDEST PUSH2 0x383 PUSH1 0x4 DUP1 CALLDATASIZE SUB DUP2 ADD SWAP1 PUSH2 0x37E SWAP2 SWAP1 PUSH2 0x187F JUMP JUMPDEST PUSH2 0x1017 JUMP JUMPDEST STOP JUMPDEST PUSH2 0x38D PUSH2 0x1403 JUMP JUMPDEST PUSH1 0x40 MLOAD PUSH2 0x39A SWAP2 SWAP1 PUSH2 0x17B3 JUMP JUMPDEST PUSH1 0x40 MLOAD DUP1 SWAP2 SUB SWAP1 RETURN JUMPDEST PUSH2 0x3AB PUSH2 0x140C JUMP JUMPDEST PUSH1 0x40 MLOAD PUSH2 0x3B8 SWAP2 SWAP1 PUSH2 0x17B3 JUMP JUMPDEST PUSH1 0x40 MLOAD DUP1 SWAP2 SUB SWAP1 RETURN JUMPDEST PUSH2 0x3DB PUSH1 0x4 DUP1 CALLDATASIZE SUB DUP2 ADD SWAP1 PUSH2 0x3D6 SWAP2 SWAP1 PUSH2 0x182A JUMP JUMPDEST PUSH2 0x1412 JUMP JUMPDEST PUSH1 0x40 MLOAD PUSH2 0x3E8 SWAP2 SWAP1 PUSH2 0x17B3 JUMP JUMPDEST PUSH1 0x40 MLOAD DUP1 SWAP2 SUB SWAP1 RETURN JUMPDEST PUSH2 0x40B PUSH1 0x4 DUP1 CALLDATASIZE SUB DUP2 ADD SWAP1 PUSH2 0x406 SWAP2 SWAP1 PUSH2 0x187F JUMP JUMPDEST PUSH2 0x14E7 JUMP JUMPDEST STOP JUMPDEST PUSH2 0x415 PUSH2 0x1530 JUMP JUMPDEST PUSH1 0x40 MLOAD PUSH2 0x422 SWAP2 SWAP1 PUSH2 0x17B3 JUMP JUMPDEST PUSH1 0x40 MLOAD DUP1 SWAP2 SUB SWAP1 RETURN JUMPDEST PUSH2 0x445 PUSH1 0x4 DUP1 CALLDATASIZE SUB DUP2 ADD SWAP1 PUSH2 0x440 SWAP2 SWAP1 PUSH2 0x182A JUMP JUMPDEST PUSH2 0x1554 JUMP JUMPDEST STOP JUMPDEST PUSH2 0x44F PUSH2 0x15D8 JUMP JUMPDEST PUSH1 0x40 MLOAD PUSH2 0x45C SWAP2 SWAP1 PUSH2 0x1998 JUMP JUMPDEST PUSH1 0x40 MLOAD DUP1 SWAP2 SUB SWAP1 RETURN JUMPDEST PUSH1 0x5 SLOAD DUP2 JUMP JUMPDEST PUSH0 PUSH1 0x6 PUSH0 DUP4 PUSH20 0xFFFFFFFFFFFFFFFFFFFFFFFFFFFFFFFFFFFFFFFF AND PUSH20 0xFFFFFFFFFFFFFFFFFFFFFFFFFFFFFFFFFFFFFFFF AND DUP2 MSTORE PUSH1 0x20 ADD SWAP1 DUP2 MSTORE PUSH1 0x20 ADD PUSH0 KECCAK256 PUSH1 0x2 ADD PUSH0 SWAP1 SLOAD SWAP1 PUSH2 0x100 EXP SWAP1 DIV PUSH1 0xFF AND PUSH2 0x4F8 JUMPI PUSH1 0x40 MLOAD PUSH32 0x8C379A000000000000000000000000000000000000000000000000000000000 DUP2 MSTORE PUSH1 0x4 ADD PUSH2 0x4EF SWAP1 PUSH2 0x1A0B JUMP JUMPDEST PUSH1 0x40 MLOAD DUP1 SWAP2 SUB SWAP1 REVERT JUMPDEST PUSH1 0x6 PUSH0 DUP4 PUSH20 0xFFFFFFFFFFFFFFFFFFFFFFFFFFFFFFFFFFFFFFFF AND PUSH20 0xFFFFFFFFFFFFFFFFFFFFFFFFFFFFFFFFFFFFFFFF AND DUP2 MSTORE PUSH1 0x20 ADD SWAP1 DUP2 MSTORE PUSH1 0x20 ADD PUSH0 KECCAK256 PUSH1 0x3 ADD SLOAD SWAP1 POP SWAP2 SWAP1 POP JUMP JUMPDEST PUSH2 0x548 PUSH2 0x15FD JUMP JUMPDEST PUSH0 PUSH20 0xFFFFFFFFFFFFFFFFFFFFFFFFFFFFFFFFFFFFFFFF AND DUP2 PUSH20 0xFFFFFFFFFFFFFFFFFFFFFFFFFFFFFFFFFFFFFFFF AND SUB PUSH2 0x5B6 JUMPI PUSH1 0x40 MLOAD PUSH32 0x8C379A000000000000000000000000000000000000000000000000000000000 DUP2 MSTORE PUSH1 0x4 ADD PUSH2 0x5AD SWAP1 PUSH2 0x1A73 JUMP JUMPDEST PUSH1 0x40 MLOAD DUP1 SWAP2 SUB SWAP1 REVERT JUMPDEST DUP1 PUSH1 0x2 PUSH0 PUSH2 0x100 EXP DUP2 SLOAD DUP2 PUSH20 0xFFFFFFFFFFFFFFFFFFFFFFFFFFFFFFFFFFFFFFFF MUL NOT AND SWAP1 DUP4 PUSH20 0xFFFFFFFFFFFFFFFFFFFFFFFFFFFFFFFFFFFFFFFF AND MUL OR SWAP1 SSTORE POP PUSH32 0x2F0C7F17BE551D1F4566672CD67ADBE50173E96632F56FF80D80ACC4AC00F328 DUP2 PUSH1 0x40 MLOAD PUSH2 0x625 SWAP2 SWAP1 PUSH2 0x1924 JUMP JUMPDEST PUSH1 0x40 MLOAD DUP1 SWAP2 SUB SWAP1 LOG1 POP JUMP JUMPDEST PUSH2 0x638 PUSH2 0x1684 JUMP JUMPDEST PUSH0 PUSH1 0x6 PUSH0 CALLER PUSH20 0xFFFFFFFFFFFFFFFFFFFFFFFFFFFFFFFFFFFFFFFF AND PUSH20 0xFFFFFFFFFFFFFFFFFFFFFFFFFFFFFFFFFFFFFFFF AND DUP2 MSTORE PUSH1 0x20 ADD SWAP1 DUP2 MSTORE PUSH1 0x20 ADD PUSH0 KECCAK256 SWAP1 POP DUP1 PUSH1 0x2 ADD PUSH0 SWAP1 SLOAD SWAP1 PUSH2 0x100 EXP SWAP1 DIV PUSH1 0xFF AND PUSH2 0x6C8 JUMPI PUSH1 0x40 MLOAD PUSH32 0x8C379A000000000000000000000000000000000000000000000000000000000 DUP2 MSTORE PUSH1 0x4 ADD PUSH2 0x6BF SWAP1 PUSH2 0x1A0B JUMP JUMPDEST PUSH1 0x40 MLOAD DUP1 SWAP2 SUB SWAP1 REVERT JUMPDEST DUP2 DUP2 PUSH0 ADD SLOAD LT ISZERO PUSH2 0x70E JUMPI PUSH1 0x40 MLOAD PUSH32 0x8C379A000000000000000000000000000000000000000000000000000000000 DUP2 MSTORE PUSH1 0x4 ADD PUSH2 0x705 SWAP1 PUSH2 0x1ADB JUMP JUMPDEST PUSH1 0x40 MLOAD DUP1 SWAP2 SUB SWAP1 REVERT JUMPDEST PUSH32 0x0 DUP3 GT ISZERO PUSH2 0x771 JUMPI PUSH1 0x40 MLOAD PUSH32 0x8C379A000000000000000000000000000000000000000000000000000000000 DUP2 MSTORE PUSH1 0x4 ADD PUSH2 0x768 SWAP1 PUSH2 0x1B43 JUMP JUMPDEST PUSH1 0x40 MLOAD DUP1 SWAP2 SUB SWAP1 REVERT JUMPDEST PUSH1 0x9 SLOAD DUP2 PUSH1 0x1 ADD SLOAD PUSH2 0x783 SWAP2 SWAP1 PUSH2 0x1B8E JUMP JUMPDEST TIMESTAMP LT ISZERO PUSH2 0x7C5 JUMPI PUSH1 0x40 MLOAD PUSH32 0x8C379A000000000000000000000000000000000000000000000000000000000 DUP2 MSTORE PUSH1 0x4 ADD PUSH2 0x7BC SWAP1 PUSH2 0x1C0B JUMP JUMPDEST PUSH1 0x40 MLOAD DUP1 SWAP2 SUB SWAP1 REVERT JUMPDEST PUSH0 PUSH1 0x64 PUSH1 0x8 SLOAD DUP5 PUSH2 0x7D6 SWAP2 SWAP1 PUSH2 0x1C29 JUMP JUMPDEST PUSH2 0x7E0 SWAP2 SWAP1 PUSH2 0x1C97 JUMP JUMPDEST SWAP1 POP PUSH0 DUP2 DUP5 PUSH2 0x7EF SWAP2 SWAP1 PUSH2 0x1CC7 JUMP JUMPDEST SWAP1 POP DUP4 DUP4 PUSH0 ADD PUSH0 DUP3 DUP3 SLOAD PUSH2 0x803 SWAP2 SWAP1 PUSH2 0x1CC7 JUMP JUMPDEST SWAP3 POP POP DUP2 SWAP1 SSTORE POP PUSH1 0x1 DUP4 PUSH1 0x4 ADD PUSH0 DUP3 DUP3 SLOAD PUSH2 0x81E SWAP2 SWAP1 PUSH2 0x1B8E JUMP JUMPDEST SWAP3 POP POP DUP2 SWAP1 SSTORE POP DUP4 PUSH1 0x3 PUSH0 DUP3 DUP3 SLOAD PUSH2 0x836 SWAP2 SWAP1 PUSH2 0x1CC7 JUMP JUMPDEST SWAP3 POP POP DUP2 SWAP1 SSTORE POP PUSH1 0x1 PUSH1 0x5 PUSH0 DUP3 DUP3 SLOAD PUSH2 0x84F SWAP2 SWAP1 PUSH2 0x1B8E JUMP JUMPDEST SWAP3 POP POP DUP2 SWAP1 SSTORE POP PUSH0 PUSH1 0x2 PUSH0 SWAP1 SLOAD SWAP1 PUSH2 0x100 EXP SWAP1 DIV PUSH20 0xFFFFFFFFFFFFFFFFFFFFFFFFFFFFFFFFFFFFFFFF AND PUSH20 0xFFFFFFFFFFFFFFFFFFFFFFFFFFFFFFFFFFFFFFFF AND PUSH4 0xA9059CBB CALLER DUP5 PUSH1 0x40 MLOAD DUP4 PUSH4 0xFFFFFFFF AND PUSH1 0xE0 SHL DUP2 MSTORE PUSH1 0x4 ADD PUSH2 0x8B3 SWAP3 SWAP2 SWAP1 PUSH2 0x1CFA JUMP JUMPDEST PUSH1 0x20 PUSH1 0x40 MLOAD DUP1 DUP4 SUB DUP2 PUSH0 DUP8 GAS CALL ISZERO DUP1 ISZERO PUSH2 0x8CF JUMPI RETURNDATASIZE PUSH0 PUSH0 RETURNDATACOPY RETURNDATASIZE PUSH0 REVERT JUMPDEST POP POP POP POP PUSH1 0x40 MLOAD RETURNDATASIZE PUSH1 0x1F NOT PUSH1 0x1F DUP3 ADD AND DUP3 ADD DUP1 PUSH1 0x40 MSTORE POP DUP2 ADD SWAP1 PUSH2 0x8F3 SWAP2 SWAP1 PUSH2 0x1D4B JUMP JUMPDEST SWAP1 POP DUP1 PUSH2 0x935 JUMPI PUSH1 0x40 MLOAD PUSH32 0x8C379A000000000000000000000000000000000000000000000000000000000 DUP2 MSTORE PUSH1 0x4 ADD PUSH2 0x92C SWAP1 PUSH2 0x1DC0 JUMP JUMPDEST PUSH1 0x40 MLOAD DUP1 SWAP2 SUB SWAP1 REVERT JUMPDEST CALLER PUSH20 0xFFFFFFFFFFFFFFFFFFFFFFFFFFFFFFFFFFFFFFFF AND PUSH32 0x94FFD6B85C71B847775C89EF6496B93CEE961BDC6FF827FD117F174F06F745AE DUP7 DUP6 DUP8 PUSH1 0x4 ADD SLOAD PUSH1 0x5 SLOAD PUSH1 0x40 MLOAD PUSH2 0x987 SWAP5 SWAP4 SWAP3 SWAP2 SWAP1 PUSH2 0x1DDE JUMP JUMPDEST PUSH1 0x40 MLOAD DUP1 SWAP2 SUB SWAP1 LOG2 POP POP POP POP PUSH2 0x99B PUSH2 0x16CA JUMP JUMPDEST POP JUMP JUMPDEST PUSH1 0x9 SLOAD DUP2 JUMP JUMPDEST PUSH2 0x9AC PUSH2 0x15FD JUMP JUMPDEST PUSH0 PUSH1 0x2 PUSH0 SWAP1 SLOAD SWAP1 PUSH2 0x100 EXP SWAP1 DIV PUSH20 0xFFFFFFFFFFFFFFFFFFFFFFFFFFFFFFFFFFFFFFFF AND PUSH20 0xFFFFFFFFFFFFFFFFFFFFFFFFFFFFFFFFFFFFFFFF AND PUSH4 0x70A08231 ADDRESS PUSH1 0x40 MLOAD DUP3 PUSH4 0xFFFFFFFF AND PUSH1 0xE0 SHL DUP2 MSTORE PUSH1 0x4 ADD PUSH2 0xA07 SWAP2 SWAP1 PUSH2 0x1924 JUMP JUMPDEST PUSH1 0x20 PUSH1 0x40 MLOAD DUP1 DUP4 SUB DUP2 DUP7 GAS STATICCALL ISZERO DUP1 ISZERO PUSH2 0xA22 JUMPI RETURNDATASIZE PUSH0 PUSH0 RETURNDATACOPY RETURNDATASIZE PUSH0 REVERT JUMPDEST POP POP POP POP PUSH1 0x40 MLOAD RETURNDATASIZE PUSH1 0x1F NOT PUSH1 0x1F DUP3 ADD AND DUP3 ADD DUP1 PUSH1 0x40 MSTORE POP DUP2 ADD SWAP1 PUSH2 0xA46 SWAP2 SWAP1 PUSH2 0x1E35 JUMP JUMPDEST SWAP1 POP PUSH0 PUSH0 SWAP1 POP PUSH0 PUSH0 PUSH8 0xFFFFFFFFFFFFFFFF DUP2 GT ISZERO PUSH2 0xA67 JUMPI PUSH2 0xA66 PUSH2 0x1E60 JUMP JUMPDEST JUMPDEST PUSH1 0x40 MLOAD SWAP1 DUP1 DUP3 MSTORE DUP1 PUSH1 0x20 MUL PUSH1 0x20 ADD DUP3 ADD PUSH1 0x40 MSTORE DUP1 ISZERO PUSH2 0xA95 JUMPI DUP2 PUSH1 0x20 ADD PUSH1 0x20 DUP3 MUL DUP1 CALLDATASIZE DUP4 CALLDATACOPY DUP1 DUP3 ADD SWAP2 POP POP SWAP1 POP JUMPDEST POP SWAP1 POP PUSH0 PUSH0 SWAP1 POP JUMPDEST DUP2 MLOAD DUP2 LT ISZERO PUSH2 0xB1A JUMPI PUSH1 0x6 PUSH0 DUP4 DUP4 DUP2 MLOAD DUP2 LT PUSH2 0xABC JUMPI PUSH2 0xABB PUSH2 0x1E8D JUMP JUMPDEST JUMPDEST PUSH1 0x20 MUL PUSH1 0x20 ADD ADD MLOAD PUSH20 0xFFFFFFFFFFFFFFFFFFFFFFFFFFFFFFFFFFFFFFFF AND PUSH20 0xFFFFFFFFFFFFFFFFFFFFFFFFFFFFFFFFFFFFFFFF AND DUP2 MSTORE PUSH1 0x20 ADD SWAP1 DUP2 MSTORE PUSH1 0x20 ADD PUSH0 KECCAK256 PUSH0 ADD SLOAD DUP4 PUSH2 0xB0B SWAP2 SWAP1 PUSH2 0x1B8E JUMP JUMPDEST SWAP3 POP DUP1 DUP1 PUSH1 0x1 ADD SWAP2 POP POP PUSH2 0xA9D JUMP JUMPDEST POP PUSH0 DUP3 DUP5 PUSH2 0xB28 SWAP2 SWAP1 PUSH2 0x1CC7 JUMP JUMPDEST SWAP1 POP PUSH0 DUP2 GT PUSH2 0xB6C JUMPI PUSH1 0x40 MLOAD PUSH32 0x8C379A000000000000000000000000000000000000000000000000000000000 DUP2 MSTORE PUSH1 0x4 ADD PUSH2 0xB63 SWAP1 PUSH2 0x1F04 JUMP JUMPDEST PUSH1 0x40 MLOAD DUP1 SWAP2 SUB SWAP1 REVERT JUMPDEST PUSH0 PUSH1 0x2 PUSH0 SWAP1 SLOAD SWAP1 PUSH2 0x100 EXP SWAP1 DIV PUSH20 0xFFFFFFFFFFFFFFFFFFFFFFFFFFFFFFFFFFFFFFFF AND PUSH20 0xFFFFFFFFFFFFFFFFFFFFFFFFFFFFFFFFFFFFFFFF AND PUSH4 0xA9059CBB PUSH2 0xBB2 PUSH2 0xD05 JUMP JUMPDEST DUP5 PUSH1 0x40 MLOAD DUP4 PUSH4 0xFFFFFFFF AND PUSH1 0xE0 SHL DUP2 MSTORE PUSH1 0x4 ADD PUSH2 0xBD0 SWAP3 SWAP2 SWAP1 PUSH2 0x1CFA JUMP JUMPDEST PUSH1 0x20 PUSH1 0x40 MLOAD DUP1 DUP4 SUB DUP2 PUSH0 DUP8 GAS CALL ISZERO DUP1 ISZERO PUSH2 0xBEC JUMPI RETURNDATASIZE PUSH0 PUSH0 RETURNDATACOPY RETURNDATASIZE PUSH0 REVERT JUMPDEST POP POP POP POP PUSH1 0x40 MLOAD RETURNDATASIZE PUSH1 0x1F NOT PUSH1 0x1F DUP3 ADD AND DUP3 ADD DUP1 PUSH1 0x40 MSTORE POP DUP2 ADD SWAP1 PUSH2 0xC10 SWAP2 SWAP1 PUSH2 0x1D4B JUMP JUMPDEST SWAP1 POP DUP1 PUSH2 0xC52 JUMPI PUSH1 0x40 MLOAD PUSH32 0x8C379A000000000000000000000000000000000000000000000000000000000 DUP2 MSTORE PUSH1 0x4 ADD PUSH2 0xC49 SWAP1 PUSH2 0x1DC0 JUMP JUMPDEST PUSH1 0x40 MLOAD DUP1 SWAP2 SUB SWAP1 REVERT JUMPDEST POP POP POP POP POP JUMP JUMPDEST PUSH1 0x6 PUSH1 0x20 MSTORE DUP1 PUSH0 MSTORE PUSH1 0x40 PUSH0 KECCAK256 PUSH0 SWAP2 POP SWAP1 POP DUP1 PUSH0 ADD SLOAD SWAP1 DUP1 PUSH1 0x1 ADD SLOAD SWAP1 DUP1 PUSH1 0x2 ADD PUSH0 SWAP1 SLOAD SWAP1 PUSH2 0x100 EXP SWAP1 DIV PUSH1 0xFF AND SWAP1 DUP1 PUSH1 0x3 ADD SLOAD SWAP1 DUP1 PUSH1 0x4 ADD SLOAD SWAP1 POP DUP6 JUMP JUMPDEST PUSH1 0x7 SLOAD DUP2 JUMP JUMPDEST PUSH2 0xCA5 PUSH2 0x15FD JUMP JUMPDEST PUSH2 0xCAE PUSH0 PUSH2 0x16D3 JUMP JUMPDEST JUMP JUMPDEST PUSH2 0xCB8 PUSH2 0x15FD JUMP JUMPDEST DUP1 PUSH1 0x9 DUP2 SWAP1 SSTORE POP PUSH32 0x8249EC545E68F6F1E1230133CA48C704D831A7F8E635DED80F3DD9E99B09BB2F DUP2 PUSH1 0x40 MLOAD PUSH2 0xCEE SWAP2 SWAP1 PUSH2 0x17B3 JUMP JUMPDEST PUSH1 0x40 MLOAD DUP1 SWAP2 SUB SWAP1 LOG1 POP JUMP JUMPDEST PUSH1 0x3 SLOAD DUP2 JUMP JUMPDEST PUSH1 0x8 SLOAD DUP2 JUMP JUMPDEST PUSH0 PUSH0 PUSH0 SWAP1 SLOAD SWAP1 PUSH2 0x100 EXP SWAP1 DIV PUSH20 0xFFFFFFFFFFFFFFFFFFFFFFFFFFFFFFFFFFFFFFFF AND SWAP1 POP SWAP1 JUMP JUMPDEST PUSH0 PUSH1 0x6 PUSH0 DUP4 PUSH20 0xFFFFFFFFFFFFFFFFFFFFFFFFFFFFFFFFFFFFFFFF AND PUSH20 0xFFFFFFFFFFFFFFFFFFFFFFFFFFFFFFFFFFFFFFFF AND DUP2 MSTORE PUSH1 0x20 ADD SWAP1 DUP2 MSTORE PUSH1 0x20 ADD PUSH0 KECCAK256 PUSH1 0x2 ADD PUSH0 SWAP1 SLOAD SWAP1 PUSH2 0x100 EXP SWAP1 DIV PUSH1 0xFF AND PUSH2 0xDB9 JUMPI PUSH1 0x40 MLOAD PUSH32 0x8C379A000000000000000000000000000000000000000000000000000000000 DUP2 MSTORE PUSH1 0x4 ADD PUSH2 0xDB0 SWAP1 PUSH2 0x1A0B JUMP JUMPDEST PUSH1 0x40 MLOAD DUP1 SWAP2 SUB SWAP1 REVERT JUMPDEST PUSH1 0x6 PUSH0 DUP4 PUSH20 0xFFFFFFFFFFFFFFFFFFFFFFFFFFFFFFFFFFFFFFFF AND PUSH20 0xFFFFFFFFFFFFFFFFFFFFFFFFFFFFFFFFFFFFFFFF AND DUP2 MSTORE PUSH1 0x20 ADD SWAP1 DUP2 MSTORE PUSH1 0x20 ADD PUSH0 KECCAK256 PUSH0 ADD SLOAD SWAP1 POP SWAP2 SWAP1 POP JUMP JUMPDEST PUSH1 0x6 PUSH0 CALLER PUSH20 0xFFFFFFFFFFFFFFFFFFFFFFFFFFFFFFFFFFFFFFFF AND PUSH20 0xFFFFFFFFFFFFFFFFFFFFFFFFFFFFFFFFFFFFFFFF AND DUP2 MSTORE PUSH1 0x20 ADD SWAP1 DUP2 MSTORE PUSH1 0x20 ADD PUSH0 KECCAK256 PUSH1 0x2 ADD PUSH0 SWAP1 SLOAD SWAP1 PUSH2 0x100 EXP SWAP1 DIV PUSH1 0xFF AND ISZERO PUSH2 0xE8D JUMPI PUSH1 0x40 MLOAD PUSH32 0x8C379A000000000000000000000000000000000000000000000000000000000 DUP2 MSTORE PUSH1 0x4 ADD PUSH2 0xE84 SWAP1 PUSH2 0x1F6C JUMP JUMPDEST PUSH1 0x40 MLOAD DUP1 SWAP2 SUB SWAP1 REVERT JUMPDEST PUSH1 0x40 MLOAD DUP1 PUSH1 0xA0 ADD PUSH1 0x40 MSTORE DUP1 PUSH0 DUP2 MSTORE PUSH1 0x20 ADD PUSH0 DUP2 MSTORE PUSH1 0x20 ADD PUSH1 0x1 ISZERO ISZERO DUP2 MSTORE PUSH1 0x20 ADD PUSH0 DUP2 MSTORE PUSH1 0x20 ADD PUSH0 DUP2 MSTORE POP PUSH1 0x6 PUSH0 CALLER PUSH20 0xFFFFFFFFFFFFFFFFFFFFFFFFFFFFFFFFFFFFFFFF AND PUSH20 0xFFFFFFFFFFFFFFFFFFFFFFFFFFFFFFFFFFFFFFFF AND DUP2 MSTORE PUSH1 0x20 ADD SWAP1 DUP2 MSTORE PUSH1 0x20 ADD PUSH0 KECCAK256 PUSH0 DUP3 ADD MLOAD DUP2 PUSH0 ADD SSTORE PUSH1 0x20 DUP3 ADD MLOAD DUP2 PUSH1 0x1 ADD SSTORE PUSH1 0x40 DUP3 ADD MLOAD DUP2 PUSH1 0x2 ADD PUSH0 PUSH2 0x100 EXP DUP2 SLOAD DUP2 PUSH1 0xFF MUL NOT AND SWAP1 DUP4 ISZERO ISZERO MUL OR SWAP1 SSTORE POP PUSH1 0x60 DUP3 ADD MLOAD DUP2 PUSH1 0x3 ADD SSTORE PUSH1 0x80 DUP3 ADD MLOAD DUP2 PUSH1 0x4 ADD SSTORE SWAP1 POP POP CALLER PUSH20 0xFFFFFFFFFFFFFFFFFFFFFFFFFFFFFFFFFFFFFFFF AND PUSH32 0x805996F252884581E2F74CF3D2B03564D5EC26CCC90850AE12653DC1B72D1FA2 PUSH1 0x40 MLOAD PUSH1 0x40 MLOAD DUP1 SWAP2 SUB SWAP1 LOG2 JUMP JUMPDEST PUSH2 0xF89 PUSH2 0x15FD JUMP JUMPDEST PUSH1 0xA DUP2 GT ISZERO PUSH2 0xFCD JUMPI PUSH1 0x40 MLOAD PUSH32 0x8C379A000000000000000000000000000000000000000000000000000000000 DUP2 MSTORE PUSH1 0x4 ADD PUSH2 0xFC4 SWAP1 PUSH2 0x1FD4 JUMP JUMPDEST PUSH1 0x40 MLOAD DUP1 SWAP2 SUB SWAP1 REVERT JUMPDEST DUP1 PUSH1 0x8 DUP2 SWAP1 SSTORE POP PUSH32 0xE94EDCC114DA5287ECB30EE8AACF12E6C16B11B8583D7F9E477AB1616E33D53D DUP2 PUSH1 0x40 MLOAD PUSH2 0x1003 SWAP2 SWAP1 PUSH2 0x17B3 JUMP JUMPDEST PUSH1 0x40 MLOAD DUP1 SWAP2 SUB SWAP1 LOG1 POP JUMP JUMPDEST PUSH0 PUSH1 0x4 SLOAD SWAP1 POP SWAP1 JUMP JUMPDEST PUSH2 0x101F PUSH2 0x1684 JUMP JUMPDEST PUSH1 0x6 PUSH0 CALLER PUSH20 0xFFFFFFFFFFFFFFFFFFFFFFFFFFFFFFFFFFFFFFFF AND PUSH20 0xFFFFFFFFFFFFFFFFFFFFFFFFFFFFFFFFFFFFFFFF AND DUP2 MSTORE PUSH1 0x20 ADD SWAP1 DUP2 MSTORE PUSH1 0x20 ADD PUSH0 KECCAK256 PUSH1 0x2 ADD PUSH0 SWAP1 SLOAD SWAP1 PUSH2 0x100 EXP SWAP1 DIV PUSH1 0xFF AND PUSH2 0x10AB JUMPI PUSH1 0x40 MLOAD PUSH32 0x8C379A000000000000000000000000000000000000000000000000000000000 DUP2 MSTORE PUSH1 0x4 ADD PUSH2 0x10A2 SWAP1 PUSH2 0x1A0B JUMP JUMPDEST PUSH1 0x40 MLOAD DUP1 SWAP2 SUB SWAP1 REVERT JUMPDEST PUSH1 0x7 SLOAD DUP2 LT ISZERO PUSH2 0x10F0 JUMPI PUSH1 0x40 MLOAD PUSH32 0x8C379A000000000000000000000000000000000000000000000000000000000 DUP2 MSTORE PUSH1 0x4 ADD PUSH2 0x10E7 SWAP1 PUSH2 0x203C JUMP JUMPDEST PUSH1 0x40 MLOAD DUP1 SWAP2 SUB SWAP1 REVERT JUMPDEST PUSH32 0x0 DUP2 PUSH1 0x3 SLOAD PUSH2 0x111F SWAP2 SWAP1 PUSH2 0x1B8E JUMP JUMPDEST GT ISZERO PUSH2 0x1160 JUMPI PUSH1 0x40 MLOAD PUSH32 0x8C379A000000000000000000000000000000000000000000000000000000000 DUP2 MSTORE PUSH1 0x4 ADD PUSH2 0x1157 SWAP1 PUSH2 0x20CA JUMP JUMPDEST PUSH1 0x40 MLOAD DUP1 SWAP2 SUB SWAP1 REVERT JUMPDEST PUSH0 PUSH1 0x2 PUSH0 SWAP1 SLOAD SWAP1 PUSH2 0x100 EXP SWAP1 DIV PUSH20 0xFFFFFFFFFFFFFFFFFFFFFFFFFFFFFFFFFFFFFFFF AND PUSH20 0xFFFFFFFFFFFFFFFFFFFFFFFFFFFFFFFFFFFFFFFF AND PUSH4 0x23B872DD CALLER ADDRESS DUP6 PUSH1 0x40 MLOAD DUP5 PUSH4 0xFFFFFFFF AND PUSH1 0xE0 SHL DUP2 MSTORE PUSH1 0x4 ADD PUSH2 0x11BF SWAP4 SWAP3 SWAP2 SWAP1 PUSH2 0x20E8 JUMP JUMPDEST PUSH1 0x20 PUSH1 0x40 MLOAD DUP1 DUP4 SUB DUP2 PUSH0 DUP8 GAS CALL ISZERO DUP1 ISZERO PUSH2 0x11DB JUMPI RETURNDATASIZE PUSH0 PUSH0 RETURNDATACOPY RETURNDATASIZE PUSH0 REVERT JUMPDEST POP POP POP POP PUSH1 0x40 MLOAD RETURNDATASIZE PUSH1 0x1F NOT PUSH1 0x1F DUP3 ADD AND DUP3 ADD DUP1 PUSH1 0x40 MSTORE POP DUP2 ADD SWAP1 PUSH2 0x11FF SWAP2 SWAP1 PUSH2 0x1D4B JUMP JUMPDEST SWAP1 POP DUP1 PUSH2 0x1241 JUMPI PUSH1 0x40 MLOAD PUSH32 0x8C379A000000000000000000000000000000000000000000000000000000000 DUP2 MSTORE PUSH1 0x4 ADD PUSH2 0x1238 SWAP1 PUSH2 0x1DC0 JUMP JUMPDEST PUSH1 0x40 MLOAD DUP1 SWAP2 SUB SWAP1 REVERT JUMPDEST DUP2 PUSH1 0x6 PUSH0 CALLER PUSH20 0xFFFFFFFFFFFFFFFFFFFFFFFFFFFFFFFFFFFFFFFF AND PUSH20 0xFFFFFFFFFFFFFFFFFFFFFFFFFFFFFFFFFFFFFFFF AND DUP2 MSTORE PUSH1 0x20 ADD SWAP1 DUP2 MSTORE PUSH1 0x20 ADD PUSH0 KECCAK256 PUSH0 ADD PUSH0 DUP3 DUP3 SLOAD PUSH2 0x128F SWAP2 SWAP1 PUSH2 0x1B8E JUMP JUMPDEST SWAP3 POP POP DUP2 SWAP1 SSTORE POP TIMESTAMP PUSH1 0x6 PUSH0 CALLER PUSH20 0xFFFFFFFFFFFFFFFFFFFFFFFFFFFFFFFFFFFFFFFF AND PUSH20 0xFFFFFFFFFFFFFFFFFFFFFFFFFFFFFFFFFFFFFFFF AND DUP2 MSTORE PUSH1 0x20 ADD SWAP1 DUP2 MSTORE PUSH1 0x20 ADD PUSH0 KECCAK256 PUSH1 0x1 ADD DUP2 SWAP1 SSTORE POP PUSH1 0x1 PUSH1 0x6 PUSH0 CALLER PUSH20 0xFFFFFFFFFFFFFFFFFFFFFFFFFFFFFFFFFFFFFFFF AND PUSH20 0xFFFFFFFFFFFFFFFFFFFFFFFFFFFFFFFFFFFFFFFF AND DUP2 MSTORE PUSH1 0x20 ADD SWAP1 DUP2 MSTORE PUSH1 0x20 ADD PUSH0 KECCAK256 PUSH1 0x3 ADD PUSH0 DUP3 DUP3 SLOAD PUSH2 0x132B SWAP2 SWAP1 PUSH2 0x1B8E JUMP JUMPDEST SWAP3 POP POP DUP2 SWAP1 SSTORE POP DUP2 PUSH1 0x3 PUSH0 DUP3 DUP3 SLOAD PUSH2 0x1343 SWAP2 SWAP1 PUSH2 0x1B8E JUMP JUMPDEST SWAP3 POP POP DUP2 SWAP1 SSTORE POP PUSH1 0x1 PUSH1 0x4 PUSH0 DUP3 DUP3 SLOAD PUSH2 0x135C SWAP2 SWAP1 PUSH2 0x1B8E JUMP JUMPDEST SWAP3 POP POP DUP2 SWAP1 SSTORE POP CALLER PUSH20 0xFFFFFFFFFFFFFFFFFFFFFFFFFFFFFFFFFFFFFFFF AND PUSH32 0x91EDE45F04A37A7C170F5C1207DF3B6BC748DC1E04AD5E917A241D0F52FEADA3 DUP4 PUSH1 0x6 PUSH0 CALLER PUSH20 0xFFFFFFFFFFFFFFFFFFFFFFFFFFFFFFFFFFFFFFFF AND PUSH20 0xFFFFFFFFFFFFFFFFFFFFFFFFFFFFFFFFFFFFFFFF AND DUP2 MSTORE PUSH1 0x20 ADD SWAP1 DUP2 MSTORE PUSH1 0x20 ADD PUSH0 KECCAK256 PUSH1 0x3 ADD SLOAD PUSH1 0x4 SLOAD PUSH1 0x40 MLOAD PUSH2 0x13EF SWAP4 SWAP3 SWAP2 SWAP1 PUSH2 0x211D JUMP JUMPDEST PUSH1 0x40 MLOAD DUP1 SWAP2 SUB SWAP1 LOG2 POP PUSH2 0x1400 PUSH2 0x16CA JUMP JUMPDEST POP JUMP JUMPDEST PUSH0 PUSH1 0x5 SLOAD SWAP1 POP SWAP1 JUMP JUMPDEST PUSH1 0x4 SLOAD DUP2 JUMP JUMPDEST PUSH0 PUSH1 0x6 PUSH0 DUP4 PUSH20 0xFFFFFFFFFFFFFFFFFFFFFFFFFFFFFFFFFFFFFFFF AND PUSH20 0xFFFFFFFFFFFFFFFFFFFFFFFFFFFFFFFFFFFFFFFF AND DUP2 MSTORE PUSH1 0x20 ADD SWAP1 DUP2 MSTORE PUSH1 0x20 ADD PUSH0 KECCAK256 PUSH1 0x2 ADD PUSH0 SWAP1 SLOAD SWAP1 PUSH2 0x100 EXP SWAP1 DIV PUSH1 0xFF AND PUSH2 0x149F JUMPI PUSH1 0x40 MLOAD PUSH32 0x8C379A000000000000000000000000000000000000000000000000000000000 DUP2 MSTORE PUSH1 0x4 ADD PUSH2 0x1496 SWAP1 PUSH2 0x1A0B JUMP JUMPDEST PUSH1 0x40 MLOAD DUP1 SWAP2 SUB SWAP1 REVERT JUMPDEST PUSH1 0x6 PUSH0 DUP4 PUSH20 0xFFFFFFFFFFFFFFFFFFFFFFFFFFFFFFFFFFFFFFFF AND PUSH20 0xFFFFFFFFFFFFFFFFFFFFFFFFFFFFFFFFFFFFFFFF AND DUP2 MSTORE PUSH1 0x20 ADD SWAP1 DUP2 MSTORE PUSH1 0x20 ADD PUSH0 KECCAK256 PUSH1 0x4 ADD SLOAD SWAP1 POP SWAP2 SWAP1 POP JUMP JUMPDEST PUSH2 0x14EF PUSH2 0x15FD JUMP JUMPDEST DUP1 PUSH1 0x7 DUP2 SWAP1 SSTORE POP PUSH32 0xD939191BE6B640BC40EF7C6A17554AC82DFEA02602FCACFAD13DCD71D0ABE6D0 DUP2 PUSH1 0x40 MLOAD PUSH2 0x1525 SWAP2 SWAP1 PUSH2 0x17B3 JUMP JUMPDEST PUSH1 0x40 MLOAD DUP1 SWAP2 SUB SWAP1 LOG1 POP JUMP JUMPDEST PUSH32 0x0 DUP2 JUMP JUMPDEST PUSH2 0x155C PUSH2 0x15FD JUMP JUMPDEST PUSH0 PUSH20 0xFFFFFFFFFFFFFFFFFFFFFFFFFFFFFFFFFFFFFFFF AND DUP2 PUSH20 0xFFFFFFFFFFFFFFFFFFFFFFFFFFFFFFFFFFFFFFFF AND SUB PUSH2 0x15CC JUMPI PUSH0 PUSH1 0x40 MLOAD PUSH32 0x1E4FBDF700000000000000000000000000000000000000000000000000000000 DUP2 MSTORE PUSH1 0x4 ADD PUSH2 0x15C3 SWAP2 SWAP1 PUSH2 0x1924 JUMP JUMPDEST PUSH1 0x40 MLOAD DUP1 SWAP2 SUB SWAP1 REVERT JUMPDEST PUSH2 0x15D5 DUP2 PUSH2 0x16D3 JUMP JUMPDEST POP JUMP JUMPDEST PUSH1 0x2 PUSH0 SWAP1 SLOAD SWAP1 PUSH2 0x100 EXP SWAP1 DIV PUSH20 0xFFFFFFFFFFFFFFFFFFFFFFFFFFFFFFFFFFFFFFFF AND DUP2 JUMP JUMPDEST PUSH2 0x1605 PUSH2 0x1794 JUMP JUMPDEST PUSH20 0xFFFFFFFFFFFFFFFFFFFFFFFFFFFFFFFFFFFFFFFF AND PUSH2 0x1623 PUSH2 0xD05 JUMP JUMPDEST PUSH20 0xFFFFFFFFFFFFFFFFFFFFFFFFFFFFFFFFFFFFFFFF AND EQ PUSH2 0x1682 JUMPI PUSH2 0x1646 PUSH2 0x1794 JUMP JUMPDEST PUSH1 0x40 MLOAD PUSH32 0x118CDAA700000000000000000000000000000000000000000000000000000000 DUP2 MSTORE PUSH1 0x4 ADD PUSH2 0x1679 SWAP2 SWAP1 PUSH2 0x1924 JUMP JUMPDEST PUSH1 0x40 MLOAD DUP1 SWAP2 SUB SWAP1 REVERT JUMPDEST JUMP JUMPDEST PUSH1 0x2 PUSH1 0x1 SLOAD SUB PUSH2 0x16C0 JUMPI PUSH1 0x40 MLOAD PUSH32 0x3EE5AEB500000000000000000000000000000000000000000000000000000000 DUP2 MSTORE PUSH1 0x4 ADD PUSH1 0x40 MLOAD DUP1 SWAP2 SUB SWAP1 REVERT JUMPDEST PUSH1 0x2 PUSH1 0x1 DUP2 SWAP1 SSTORE POP JUMP JUMPDEST PUSH1 0x1 DUP1 DUP2 SWAP1 SSTORE POP JUMP JUMPDEST PUSH0 PUSH0 PUSH0 SWAP1 SLOAD SWAP1 PUSH2 0x100 EXP SWAP1 DIV PUSH20 0xFFFFFFFFFFFFFFFFFFFFFFFFFFFFFFFFFFFFFFFF AND SWAP1 POP DUP2 PUSH0 PUSH0 PUSH2 0x100 EXP DUP2 SLOAD DUP2 PUSH20 0xFFFFFFFFFFFFFFFFFFFFFFFFFFFFFFFFFFFFFFFF MUL NOT AND SWAP1 DUP4 PUSH20 0xFFFFFFFFFFFFFFFFFFFFFFFFFFFFFFFFFFFFFFFF AND MUL OR SWAP1 SSTORE POP DUP2 PUSH20 0xFFFFFFFFFFFFFFFFFFFFFFFFFFFFFFFFFFFFFFFF AND DUP2 PUSH20 0xFFFFFFFFFFFFFFFFFFFFFFFFFFFFFFFFFFFFFFFF AND PUSH32 0x8BE0079C531659141344CD1FD0A4F28419497F9722A3DAAFE3B4186F6B6457E0 PUSH1 0x40 MLOAD PUSH1 0x40 MLOAD DUP1 SWAP2 SUB SWAP1 LOG3 POP POP JUMP JUMPDEST PUSH0 CALLER SWAP1 POP SWAP1 JUMP JUMPDEST PUSH0 DUP2 SWAP1 POP SWAP2 SWAP1 POP JUMP JUMPDEST PUSH2 0x17AD DUP2 PUSH2 0x179B JUMP JUMPDEST DUP3 MSTORE POP POP JUMP JUMPDEST PUSH0 PUSH1 0x20 DUP3 ADD SWAP1 POP PUSH2 0x17C6 PUSH0 DUP4 ADD DUP5 PUSH2 0x17A4 JUMP JUMPDEST SWAP3 SWAP2 POP POP JUMP JUMPDEST PUSH0 PUSH0 REVERT JUMPDEST PUSH0 PUSH20 0xFFFFFFFFFFFFFFFFFFFFFFFFFFFFFFFFFFFFFFFF DUP3 AND SWAP1 POP SWAP2 SWAP1 POP JUMP JUMPDEST PUSH0 PUSH2 0x17F9 DUP3 PUSH2 0x17D0 JUMP JUMPDEST SWAP1 POP SWAP2 SWAP1 POP JUMP JUMPDEST PUSH2 0x1809 DUP2 PUSH2 0x17EF JUMP JUMPDEST DUP2 EQ PUSH2 0x1813 JUMPI PUSH0 PUSH0 REVERT JUMPDEST POP JUMP JUMPDEST PUSH0 DUP2 CALLDATALOAD SWAP1 POP PUSH2 0x1824 DUP2 PUSH2 0x1800 JUMP JUMPDEST SWAP3 SWAP2 POP POP JUMP JUMPDEST PUSH0 PUSH1 0x20 DUP3 DUP5 SUB SLT ISZERO PUSH2 0x183F JUMPI PUSH2 0x183E PUSH2 0x17CC JUMP JUMPDEST JUMPDEST PUSH0 PUSH2 0x184C DUP5 DUP3 DUP6 ADD PUSH2 0x1816 JUMP JUMPDEST SWAP2 POP POP SWAP3 SWAP2 POP POP JUMP JUMPDEST PUSH2 0x185E DUP2 PUSH2 0x179B JUMP JUMPDEST DUP2 EQ PUSH2 0x1868 JUMPI PUSH0 PUSH0 REVERT JUMPDEST POP JUMP JUMPDEST PUSH0 DUP2 CALLDATALOAD SWAP1 POP PUSH2 0x1879 DUP2 PUSH2 0x1855 JUMP JUMPDEST SWAP3 SWAP2 POP POP JUMP JUMPDEST PUSH0 PUSH1 0x20 DUP3 DUP5 SUB SLT ISZERO PUSH2 0x1894 JUMPI PUSH2 0x1893 PUSH2 0x17CC JUMP JUMPDEST JUMPDEST PUSH0 PUSH2 0x18A1 DUP5 DUP3 DUP6 ADD PUSH2 0x186B JUMP JUMPDEST SWAP2 POP POP SWAP3 SWAP2 POP POP JUMP JUMPDEST PUSH0 DUP2 ISZERO ISZERO SWAP1 POP SWAP2 SWAP1 POP JUMP JUMPDEST PUSH2 0x18BE DUP2 PUSH2 0x18AA JUMP JUMPDEST DUP3 MSTORE POP POP JUMP JUMPDEST PUSH0 PUSH1 0xA0 DUP3 ADD SWAP1 POP PUSH2 0x18D7 PUSH0 DUP4 ADD DUP9 PUSH2 0x17A4 JUMP JUMPDEST PUSH2 0x18E4 PUSH1 0x20 DUP4 ADD DUP8 PUSH2 0x17A4 JUMP JUMPDEST PUSH2 0x18F1 PUSH1 0x40 DUP4 ADD DUP7 PUSH2 0x18B5 JUMP JUMPDEST PUSH2 0x18FE PUSH1 0x60 DUP4 ADD DUP6 PUSH2 0x17A4 JUMP JUMPDEST PUSH2 0x190B PUSH1 0x80 DUP4 ADD DUP5 PUSH2 0x17A4 JUMP JUMPDEST SWAP7 SWAP6 POP POP POP POP POP POP JUMP JUMPDEST PUSH2 0x191E DUP2 PUSH2 0x17EF JUMP JUMPDEST DUP3 MSTORE POP POP JUMP JUMPDEST PUSH0 PUSH1 0x20 DUP3 ADD SWAP1 POP PUSH2 0x1937 PUSH0 DUP4 ADD DUP5 PUSH2 0x1915 JUMP JUMPDEST SWAP3 SWAP2 POP POP JUMP JUMPDEST PUSH0 DUP2 SWAP1 POP SWAP2 SWAP1 POP JUMP JUMPDEST PUSH0 PUSH2 0x1960 PUSH2 0x195B PUSH2 0x1956 DUP5 PUSH2 0x17D0 JUMP JUMPDEST PUSH2 0x193D JUMP JUMPDEST PUSH2 0x17D0 JUMP JUMPDEST SWAP1 POP SWAP2 SWAP1 POP JUMP JUMPDEST PUSH0 PUSH2 0x1971 DUP3 PUSH2 0x1946 JUMP JUMPDEST SWAP1 POP SWAP2 SWAP1 POP JUMP JUMPDEST PUSH0 PUSH2 0x1982 DUP3 PUSH2 0x1967 JUMP JUMPDEST SWAP1 POP SWAP2 SWAP1 POP JUMP JUMPDEST PUSH2 0x1992 DUP2 PUSH2 0x1978 JUMP JUMPDEST DUP3 MSTORE POP POP JUMP JUMPDEST PUSH0 PUSH1 0x20 DUP3 ADD SWAP1 POP PUSH2 0x19AB PUSH0 DUP4 ADD DUP5 PUSH2 0x1989 JUMP JUMPDEST SWAP3 SWAP2 POP POP JUMP JUMPDEST PUSH0 DUP3 DUP3 MSTORE PUSH1 0x20 DUP3 ADD SWAP1 POP SWAP3 SWAP2 POP POP JUMP JUMPDEST PUSH32 0x4163636F756E7420646F6573206E6F7420657869737400000000000000000000 PUSH0 DUP3 ADD MSTORE POP JUMP JUMPDEST PUSH0 PUSH2 0x19F5 PUSH1 0x16 DUP4 PUSH2 0x19B1 JUMP JUMPDEST SWAP2 POP PUSH2 0x1A00 DUP3 PUSH2 0x19C1 JUMP JUMPDEST PUSH1 0x20 DUP3 ADD SWAP1 POP SWAP2 SWAP1 POP JUMP JUMPDEST PUSH0 PUSH1 0x20 DUP3 ADD SWAP1 POP DUP2 DUP2 SUB PUSH0 DUP4 ADD MSTORE PUSH2 0x1A22 DUP2 PUSH2 0x19E9 JUMP JUMPDEST SWAP1 POP SWAP2 SWAP1 POP JUMP JUMPDEST PUSH32 0x546F6B656E20616464726573732063616E6E6F74206265207A65726F00000000 PUSH0 DUP3 ADD MSTORE POP JUMP JUMPDEST PUSH0 PUSH2 0x1A5D PUSH1 0x1C DUP4 PUSH2 0x19B1 JUMP JUMPDEST SWAP2 POP PUSH2 0x1A68 DUP3 PUSH2 0x1A29 JUMP JUMPDEST PUSH1 0x20 DUP3 ADD SWAP1 POP SWAP2 SWAP1 POP JUMP JUMPDEST PUSH0 PUSH1 0x20 DUP3 ADD SWAP1 POP DUP2 DUP2 SUB PUSH0 DUP4 ADD MSTORE PUSH2 0x1A8A DUP2 PUSH2 0x1A51 JUMP JUMPDEST SWAP1 POP SWAP2 SWAP1 POP JUMP JUMPDEST PUSH32 0x496E73756666696369656E742062616C616E6365000000000000000000000000 PUSH0 DUP3 ADD MSTORE POP JUMP JUMPDEST PUSH0 PUSH2 0x1AC5 PUSH1 0x14 DUP4 PUSH2 0x19B1 JUMP JUMPDEST SWAP2 POP PUSH2 0x1AD0 DUP3 PUSH2 0x1A91 JUMP JUMPDEST PUSH1 0x20 DUP3 ADD SWAP1 POP SWAP2 SWAP1 POP JUMP JUMPDEST PUSH0 PUSH1 0x20 DUP3 ADD SWAP1 POP DUP2 DUP2 SUB PUSH0 DUP4 ADD MSTORE PUSH2 0x1AF2 DUP2 PUSH2 0x1AB9 JUMP JUMPDEST SWAP1 POP SWAP2 SWAP1 POP JUMP JUMPDEST PUSH32 0x43616E6E6F7420657863656564207769746864726177616C206C696D69740000 PUSH0 DUP3 ADD MSTORE POP JUMP JUMPDEST PUSH0 PUSH2 0x1B2D PUSH1 0x1E DUP4 PUSH2 0x19B1 JUMP JUMPDEST SWAP2 POP PUSH2 0x1B38 DUP3 PUSH2 0x1AF9 JUMP JUMPDEST PUSH1 0x20 DUP3 ADD SWAP1 POP SWAP2 SWAP1 POP JUMP JUMPDEST PUSH0 PUSH1 0x20 DUP3 ADD SWAP1 POP DUP2 DUP2 SUB PUSH0 DUP4 ADD MSTORE PUSH2 0x1B5A DUP2 PUSH2 0x1B21 JUMP JUMPDEST SWAP1 POP SWAP2 SWAP1 POP JUMP JUMPDEST PUSH32 0x4E487B7100000000000000000000000000000000000000000000000000000000 PUSH0 MSTORE PUSH1 0x11 PUSH1 0x4 MSTORE PUSH1 0x24 PUSH0 REVERT JUMPDEST PUSH0 PUSH2 0x1B98 DUP3 PUSH2 0x179B JUMP JUMPDEST SWAP2 POP PUSH2 0x1BA3 DUP4 PUSH2 0x179B JUMP JUMPDEST SWAP3 POP DUP3 DUP3 ADD SWAP1 POP DUP1 DUP3 GT ISZERO PUSH2 0x1BBB JUMPI PUSH2 0x1BBA PUSH2 0x1B61 JUMP JUMPDEST JUMPDEST SWAP3 SWAP2 POP POP JUMP JUMPDEST PUSH32 0x46756E647320617265206C6F636B656400000000000000000000000000000000 PUSH0 DUP3 ADD MSTORE POP JUMP JUMPDEST PUSH0 PUSH2 0x1BF5 PUSH1 0x10 DUP4 PUSH2 0x19B1 JUMP JUMPDEST SWAP2 POP PUSH2 0x1C00 DUP3 PUSH2 0x1BC1 JUMP JUMPDEST PUSH1 0x20 DUP3 ADD SWAP1 POP SWAP2 SWAP1 POP JUMP JUMPDEST PUSH0 PUSH1 0x20 DUP3 ADD SWAP1 POP DUP2 DUP2 SUB PUSH0 DUP4 ADD MSTORE PUSH2 0x1C22 DUP2 PUSH2 0x1BE9 JUMP JUMPDEST SWAP1 POP SWAP2 SWAP1 POP JUMP JUMPDEST PUSH0 PUSH2 0x1C33 DUP3 PUSH2 0x179B JUMP JUMPDEST SWAP2 POP PUSH2 0x1C3E DUP4 PUSH2 0x179B JUMP JUMPDEST SWAP3 POP DUP3 DUP3 MUL PUSH2 0x1C4C DUP2 PUSH2 0x179B JUMP JUMPDEST SWAP2 POP DUP3 DUP3 DIV DUP5 EQ DUP4 ISZERO OR PUSH2 0x1C63 JUMPI PUSH2 0x1C62 PUSH2 0x1B61 JUMP JUMPDEST JUMPDEST POP SWAP3 SWAP2 POP POP JUMP JUMPDEST PUSH32 0x4E487B7100000000000000000000000000000000000000000000000000000000 PUSH0 MSTORE PUSH1 0x12 PUSH1 0x4 MSTORE PUSH1 0x24 PUSH0 REVERT JUMPDEST PUSH0 PUSH2 0x1CA1 DUP3 PUSH2 0x179B JUMP JUMPDEST SWAP2 POP PUSH2 0x1CAC DUP4 PUSH2 0x179B JUMP JUMPDEST SWAP3 POP DUP3 PUSH2 0x1CBC JUMPI PUSH2 0x1CBB PUSH2 0x1C6A JUMP JUMPDEST JUMPDEST DUP3 DUP3 DIV SWAP1 POP SWAP3 SWAP2 POP POP JUMP JUMPDEST PUSH0 PUSH2 0x1CD1 DUP3 PUSH2 0x179B JUMP JUMPDEST SWAP2 POP PUSH2 0x1CDC DUP4 PUSH2 0x179B JUMP JUMPDEST SWAP3 POP DUP3 DUP3 SUB SWAP1 POP DUP2 DUP2 GT ISZERO PUSH2 0x1CF4 JUMPI PUSH2 0x1CF3 PUSH2 0x1B61 JUMP JUMPDEST JUMPDEST SWAP3 SWAP2 POP POP JUMP JUMPDEST PUSH0 PUSH1 0x40 DUP3 ADD SWAP1 POP PUSH2 0x1D0D PUSH0 DUP4 ADD DUP6 PUSH2 0x1915 JUMP JUMPDEST PUSH2 0x1D1A PUSH1 0x20 DUP4 ADD DUP5 PUSH2 0x17A4 JUMP JUMPDEST SWAP4 SWAP3 POP POP POP JUMP JUMPDEST PUSH2 0x1D2A DUP2 PUSH2 0x18AA JUMP JUMPDEST DUP2 EQ PUSH2 0x1D34 JUMPI PUSH0 PUSH0 REVERT JUMPDEST POP JUMP JUMPDEST PUSH0 DUP2 MLOAD SWAP1 POP PUSH2 0x1D45 DUP2 PUSH2 0x1D21 JUMP JUMPDEST SWAP3 SWAP2 POP POP JUMP JUMPDEST PUSH0 PUSH1 0x20 DUP3 DUP5 SUB SLT ISZERO PUSH2 0x1D60 JUMPI PUSH2 0x1D5F PUSH2 0x17CC JUMP JUMPDEST JUMPDEST PUSH0 PUSH2 0x1D6D DUP5 DUP3 DUP6 ADD PUSH2 0x1D37 JUMP JUMPDEST SWAP2 POP POP SWAP3 SWAP2 POP POP JUMP JUMPDEST PUSH32 0x546F6B656E207472616E73666572206661696C65640000000000000000000000 PUSH0 DUP3 ADD MSTORE POP JUMP JUMPDEST PUSH0 PUSH2 0x1DAA PUSH1 0x15 DUP4 PUSH2 0x19B1 JUMP JUMPDEST SWAP2 POP PUSH2 0x1DB5 DUP3 PUSH2 0x1D76 JUMP JUMPDEST PUSH1 0x20 DUP3 ADD SWAP1 POP SWAP2 SWAP1 POP JUMP JUMPDEST PUSH0 PUSH1 0x20 DUP3 ADD SWAP1 POP DUP2 DUP2 SUB PUSH0 DUP4 ADD MSTORE PUSH2 0x1DD7 DUP2 PUSH2 0x1D9E JUMP JUMPDEST SWAP1 POP SWAP2 SWAP1 POP JUMP JUMPDEST PUSH0 PUSH1 0x80 DUP3 ADD SWAP1 POP PUSH2 0x1DF1 PUSH0 DUP4 ADD DUP8 PUSH2 0x17A4 JUMP JUMPDEST PUSH2 0x1DFE PUSH1 0x20 DUP4 ADD DUP7 PUSH2 0x17A4 JUMP JUMPDEST PUSH2 0x1E0B PUSH1 0x40 DUP4 ADD DUP6 PUSH2 0x17A4 JUMP JUMPDEST PUSH2 0x1E18 PUSH1 0x60 DUP4 ADD DUP5 PUSH2 0x17A4 JUMP JUMPDEST SWAP6 SWAP5 POP POP POP POP POP JUMP JUMPDEST PUSH0 DUP2 MLOAD SWAP1 POP PUSH2 0x1E2F DUP2 PUSH2 0x1855 JUMP JUMPDEST SWAP3 SWAP2 POP POP JUMP JUMPDEST PUSH0 PUSH1 0x20 DUP3 DUP5 SUB SLT ISZERO PUSH2 0x1E4A JUMPI PUSH2 0x1E49 PUSH2 0x17CC JUMP JUMPDEST JUMPDEST PUSH0 PUSH2 0x1E57 DUP5 DUP3 DUP6 ADD PUSH2 0x1E21 JUMP JUMPDEST SWAP2 POP POP SWAP3 SWAP2 POP POP JUMP JUMPDEST PUSH32 0x4E487B7100000000000000000000000000000000000000000000000000000000 PUSH0 MSTORE PUSH1 0x41 PUSH1 0x4 MSTORE PUSH1 0x24 PUSH0 REVERT JUMPDEST PUSH32 0x4E487B7100000000000000000000000000000000000000000000000000000000 PUSH0 MSTORE PUSH1 0x32 PUSH1 0x4 MSTORE PUSH1 0x24 PUSH0 REVERT JUMPDEST PUSH32 0x4E6F206665657320746F20776974686472617700000000000000000000000000 PUSH0 DUP3 ADD MSTORE POP JUMP JUMPDEST PUSH0 PUSH2 0x1EEE PUSH1 0x13 DUP4 PUSH2 0x19B1 JUMP JUMPDEST SWAP2 POP PUSH2 0x1EF9 DUP3 PUSH2 0x1EBA JUMP JUMPDEST PUSH1 0x20 DUP3 ADD SWAP1 POP SWAP2 SWAP1 POP JUMP JUMPDEST PUSH0 PUSH1 0x20 DUP3 ADD SWAP1 POP DUP2 DUP2 SUB PUSH0 DUP4 ADD MSTORE PUSH2 0x1F1B DUP2 PUSH2 0x1EE2 JUMP JUMPDEST SWAP1 POP SWAP2 SWAP1 POP JUMP JUMPDEST PUSH32 0x4163636F756E7420616C72656164792065786973747300000000000000000000 PUSH0 DUP3 ADD MSTORE POP JUMP JUMPDEST PUSH0 PUSH2 0x1F56 PUSH1 0x16 DUP4 PUSH2 0x19B1 JUMP JUMPDEST SWAP2 POP PUSH2 0x1F61 DUP3 PUSH2 0x1F22 JUMP JUMPDEST PUSH1 0x20 DUP3 ADD SWAP1 POP SWAP2 SWAP1 POP JUMP JUMPDEST PUSH0 PUSH1 0x20 DUP3 ADD SWAP1 POP DUP2 DUP2 SUB PUSH0 DUP4 ADD MSTORE PUSH2 0x1F83 DUP2 PUSH2 0x1F4A JUMP JUMPDEST SWAP1 POP SWAP2 SWAP1 POP JUMP JUMPDEST PUSH32 0x4665652063616E6E6F7420657863656564203130250000000000000000000000 PUSH0 DUP3 ADD MSTORE POP JUMP JUMPDEST PUSH0 PUSH2 0x1FBE PUSH1 0x15 DUP4 PUSH2 0x19B1 JUMP JUMPDEST SWAP2 POP PUSH2 0x1FC9 DUP3 PUSH2 0x1F8A JUMP JUMPDEST PUSH1 0x20 DUP3 ADD SWAP1 POP SWAP2 SWAP1 POP JUMP JUMPDEST PUSH0 PUSH1 0x20 DUP3 ADD SWAP1 POP DUP2 DUP2 SUB PUSH0 DUP4 ADD MSTORE PUSH2 0x1FEB DUP2 PUSH2 0x1FB2 JUMP JUMPDEST SWAP1 POP SWAP2 SWAP1 POP JUMP JUMPDEST PUSH32 0x416D6F756E742062656C6F77206D696E696D756D206465706F73697400000000 PUSH0 DUP3 ADD MSTORE POP JUMP JUMPDEST PUSH0 PUSH2 0x2026 PUSH1 0x1C DUP4 PUSH2 0x19B1 JUMP JUMPDEST SWAP2 POP PUSH2 0x2031 DUP3 PUSH2 0x1FF2 JUMP JUMPDEST PUSH1 0x20 DUP3 ADD SWAP1 POP SWAP2 SWAP1 POP JUMP JUMPDEST PUSH0 PUSH1 0x20 DUP3 ADD SWAP1 POP DUP2 DUP2 SUB PUSH0 DUP4 ADD MSTORE PUSH2 0x2053 DUP2 PUSH2 0x201A JUMP JUMPDEST SWAP1 POP SWAP2 SWAP1 POP JUMP JUMPDEST PUSH32 0x4465706F73697420776F756C64206578636565642062616E6B20636170616369 PUSH0 DUP3 ADD MSTORE PUSH32 0x7479000000000000000000000000000000000000000000000000000000000000 PUSH1 0x20 DUP3 ADD MSTORE POP JUMP JUMPDEST PUSH0 PUSH2 0x20B4 PUSH1 0x22 DUP4 PUSH2 0x19B1 JUMP JUMPDEST SWAP2 POP PUSH2 0x20BF DUP3 PUSH2 0x205A JUMP JUMPDEST PUSH1 0x40 DUP3 ADD SWAP1 POP SWAP2 SWAP1 POP JUMP JUMPDEST PUSH0 PUSH1 0x20 DUP3 ADD SWAP1 POP DUP2 DUP2 SUB PUSH0 DUP4 ADD MSTORE PUSH2 0x20E1 DUP2 PUSH2 0x20A8 JUMP JUMPDEST SWAP1 POP SWAP2 SWAP1 POP JUMP JUMPDEST PUSH0 PUSH1 0x60 DUP3 ADD SWAP1 POP PUSH2 0x20FB PUSH0 DUP4 ADD DUP7 PUSH2 0x1915 JUMP JUMPDEST PUSH2 0x2108 PUSH1 0x20 DUP4 ADD DUP6 PUSH2 0x1915 JUMP JUMPDEST PUSH2 0x2115 PUSH1 0x40 DUP4 ADD DUP5 PUSH2 0x17A4 JUMP JUMPDEST SWAP5 SWAP4 POP POP POP POP JUMP JUMPDEST PUSH0 PUSH1 0x60 DUP3 ADD SWAP1 POP PUSH2 0x2130 PUSH0 DUP4 ADD DUP7 PUSH2 0x17A4 JUMP JUMPDEST PUSH2 0x213D PUSH1 0x20 DUP4 ADD DUP6 PUSH2 0x17A4 JUMP JUMPDEST PUSH2 0x214A PUSH1 0x40 DUP4 ADD DUP5 PUSH2 0x17A4 JUMP JUMPDEST SWAP5 SWAP4 POP POP POP POP JUMP INVALID LOG2 PUSH5 0x6970667358 0x22 SLT KECCAK256 CALLF 0x3119 0x2E CREATE SWAP5 DUP11 PUSH7 0x58CD9C19ADBA4A JUMPI 0x21 DUP5 PUSH12 0x7EC7B3FB31ED9EAB03CE9CD1 0xA5 PUSH5 0x736F6C6343 STOP ADDMOD 0x1E STOP CALLER "
				},
				"gasEstimates": {
					"creation": {
						"codeDepositCost": "1716800",
						"executionCost": "infinite",
						"totalCost": "infinite"
					},
					"external": {
						"accounts(address)": "infinite",
						"bankCap()": "infinite",
						"createAccount()": "48193",
						"deposit(uint256)": "infinite",
						"getAccountBalance(address)": "5125",
						"getTotalDepositsCount()": "2543",
						"getTotalWithdrawalsCount()": "2477",
						"getUserDepositCount(address)": "5127",
						"getUserWithdrawalCount(address)": "5170",
						"lockPeriod()": "2537",
						"minimumDeposit()": "2470",
						"owner()": "2537",
						"renounceOwnership()": "infinite",
						"setLockPeriod(uint256)": "infinite",
						"setMinimumDeposit(uint256)": "infinite",
						"setTokenAddress(address)": "infinite",
						"setWithdrawalFee(uint256)": "infinite",
						"token()": "infinite",
						"totalDeposits()": "2536",
						"totalDepositsCount()": "2492",
						"totalWithdrawalsCount()": "2449",
						"transferOwnership(address)": "infinite",
						"withdraw(uint256)": "infinite",
						"withdrawFees()": "infinite",
						"withdrawalFee()": "2558"
					}
				},
				"methodIdentifiers": {
					"accounts(address)": "5e5c06e2",
					"bankCap()": "ecbea24d",
					"createAccount()": "9dca362f",
					"deposit(uint256)": "b6b55f25",
					"getAccountBalance(address)": "93423e9c",
					"getTotalDepositsCount()": "b30d5815",
					"getTotalWithdrawalsCount()": "b6e7d830",
					"getUserDepositCount(address)": "1bae91a4",
					"getUserWithdrawalCount(address)": "d3b5f520",
					"lockPeriod()": "3fd8b02f",
					"minimumDeposit()": "636bfbab",
					"owner()": "8da5cb5b",
					"renounceOwnership()": "715018a6",
					"setLockPeriod(uint256)": "779972da",
					"setMinimumDeposit(uint256)": "e78ec42e",
					"setTokenAddress(address)": "26a4e8d2",
					"setWithdrawalFee(uint256)": "ac1e5025",
					"token()": "fc0c546a",
					"totalDeposits()": "7d882097",
					"totalDepositsCount()": "c847119d",
					"totalWithdrawalsCount()": "0770e571",
					"transferOwnership(address)": "f2fde38b",
					"withdraw(uint256)": "2e1a7d4d",
					"withdrawFees()": "476343ee",
					"withdrawalFee()": "8bc7e8c4"
				}
			},
			"storageLayout": {
				"storage": [
					{
						"astId": 8,
						"contract": "contracts/KipuBank.sol:KipuBank",
						"label": "_owner",
						"offset": 0,
						"slot": "0",
						"type": "t_address"
					},
					{
						"astId": 266,
						"contract": "contracts/KipuBank.sol:KipuBank",
						"label": "_status",
						"offset": 0,
						"slot": "1",
						"type": "t_uint256"
					},
					{
						"astId": 336,
						"contract": "contracts/KipuBank.sol:KipuBank",
						"label": "token",
						"offset": 0,
						"slot": "2",
						"type": "t_contract(IERC20)225"
					},
					{
						"astId": 340,
						"contract": "contracts/KipuBank.sol:KipuBank",
						"label": "totalDeposits",
						"offset": 0,
						"slot": "3",
						"type": "t_uint256"
					},
					{
						"astId": 342,
						"contract": "contracts/KipuBank.sol:KipuBank",
						"label": "totalDepositsCount",
						"offset": 0,
						"slot": "4",
						"type": "t_uint256"
					},
					{
						"astId": 344,
						"contract": "contracts/KipuBank.sol:KipuBank",
						"label": "totalWithdrawalsCount",
						"offset": 0,
						"slot": "5",
						"type": "t_uint256"
					},
					{
						"astId": 360,
						"contract": "contracts/KipuBank.sol:KipuBank",
						"label": "accounts",
						"offset": 0,
						"slot": "6",
						"type": "t_mapping(t_address,t_struct(Account)355_storage)"
					},
					{
						"astId": 367,
						"contract": "contracts/KipuBank.sol:KipuBank",
						"label": "minimumDeposit",
						"offset": 0,
						"slot": "7",
						"type": "t_uint256"
					},
					{
						"astId": 370,
						"contract": "contracts/KipuBank.sol:KipuBank",
						"label": "withdrawalFee",
						"offset": 0,
						"slot": "8",
						"type": "t_uint256"
					},
					{
						"astId": 373,
						"contract": "contracts/KipuBank.sol:KipuBank",
						"label": "lockPeriod",
						"offset": 0,
						"slot": "9",
						"type": "t_uint256"
					}
				],
				"types": {
					"t_address": {
						"encoding": "inplace",
						"label": "address",
						"numberOfBytes": "20"
					},
					"t_bool": {
						"encoding": "inplace",
						"label": "bool",
						"numberOfBytes": "1"
					},
					"t_contract(IERC20)225": {
						"encoding": "inplace",
						"label": "contract IERC20",
						"numberOfBytes": "20"
					},
					"t_mapping(t_address,t_struct(Account)355_storage)": {
						"encoding": "mapping",
						"key": "t_address",
						"label": "mapping(address => struct KipuBank.Account)",
						"numberOfBytes": "32",
						"value": "t_struct(Account)355_storage"
					},
					"t_struct(Account)355_storage": {
						"encoding": "inplace",
						"label": "struct KipuBank.Account",
						"members": [
							{
								"astId": 346,
								"contract": "contracts/KipuBank.sol:KipuBank",
								"label": "balance",
								"offset": 0,
								"slot": "0",
								"type": "t_uint256"
							},
							{
								"astId": 348,
								"contract": "contracts/KipuBank.sol:KipuBank",
								"label": "lastDepositTimestamp",
								"offset": 0,
								"slot": "1",
								"type": "t_uint256"
							},
							{
								"astId": 350,
								"contract": "contracts/KipuBank.sol:KipuBank",
								"label": "exists",
								"offset": 0,
								"slot": "2",
								"type": "t_bool"
							},
							{
								"astId": 352,
								"contract": "contracts/KipuBank.sol:KipuBank",
								"label": "depositCount",
								"offset": 0,
								"slot": "3",
								"type": "t_uint256"
							},
							{
								"astId": 354,
								"contract": "contracts/KipuBank.sol:KipuBank",
								"label": "withdrawalCount",
								"offset": 0,
								"slot": "4",
								"type": "t_uint256"
							}
						],
						"numberOfBytes": "160"
					},
					"t_uint256": {
						"encoding": "inplace",
						"label": "uint256",
						"numberOfBytes": "32"
					}
				}
			},
			"userdoc": {
				"kind": "user",
				"methods": {},
				"version": 1
			}
		}
	}
}